{"abi":[{"type":"constructor","inputs":[{"name":"_gameContract","type":"address","internalType":"address"},{"name":"_aiBackendSigner","type":"address","internalType":"address"}],"stateMutability":"nonpayable"},{"type":"function","name":"addAIToGame","inputs":[{"name":"_gameId","type":"uint256","internalType":"uint256"},{"name":"_aiPlayerId","type":"uint256","internalType":"uint256"}],"outputs":[],"stateMutability":"nonpayable"},{"type":"function","name":"addressToAIId","inputs":[{"name":"","type":"address","internalType":"address"}],"outputs":[{"name":"","type":"uint256","internalType":"uint256"}],"stateMutability":"view"},{"type":"function","name":"aiAvailableBalance","inputs":[{"name":"","type":"uint256","internalType":"uint256"}],"outputs":[{"name":"","type":"uint256","internalType":"uint256"}],"stateMutability":"view"},{"type":"function","name":"aiBackendSigner","inputs":[],"outputs":[{"name":"","type":"address","internalType":"address"}],"stateMutability":"view"},{"type":"function","name":"aiGameCurrentPlayer","inputs":[{"name":"","type":"uint256","internalType":"uint256"}],"outputs":[{"name":"","type":"address","internalType":"address"}],"stateMutability":"view"},{"type":"function","name":"aiGameStates","inputs":[{"name":"","type":"uint256","internalType":"uint256"}],"outputs":[{"name":"","type":"uint256","internalType":"uint256"}],"stateMutability":"view"},{"type":"function","name":"aiMoveHistory","inputs":[{"name":"","type":"uint256","internalType":"uint256"},{"name":"","type":"uint256","internalType":"uint256"}],"outputs":[{"name":"gameId","type":"uint256","internalType":"uint256"},{"name":"aiPlayerId","type":"uint256","internalType":"uint256"},{"name":"subtraction","type":"uint256","internalType":"uint256"},{"name":"timestamp","type":"uint256","internalType":"uint256"},{"name":"reasoning","type":"string","internalType":"string"},{"name":"numberBefore","type":"uint256","internalType":"uint256"},{"name":"numberAfter","type":"uint256","internalType":"uint256"}],"stateMutability":"view"},{"type":"function","name":"aiPlayerCounter","inputs":[],"outputs":[{"name":"","type":"uint256","internalType":"uint256"}],"stateMutability":"view"},{"type":"function","name":"aiPlayers","inputs":[{"name":"","type":"uint256","internalType":"uint256"}],"outputs":[{"name":"name","type":"string","internalType":"string"},{"name":"skillLevel","type":"uint256","internalType":"uint256"},{"name":"personality","type":"string","internalType":"string"},{"name":"isActive","type":"bool","internalType":"bool"},{"name":"playerAddress","type":"address","internalType":"address"},{"name":"gamesPlayed","type":"uint256","internalType":"uint256"},{"name":"gamesWon","type":"uint256","internalType":"uint256"},{"name":"totalEarnings","type":"uint256","internalType":"uint256"},{"name":"createdAt","type":"uint256","internalType":"uint256"}],"stateMutability":"view"},{"type":"function","name":"aiStrategies","inputs":[{"name":"","type":"uint256","internalType":"uint256"}],"outputs":[{"name":"aiPlayerId","type":"uint256","internalType":"uint256"},{"name":"strategyName","type":"string","internalType":"string"},{"name":"aggressiveness","type":"uint256","internalType":"uint256"},{"name":"riskTolerance","type":"uint256","internalType":"uint256"},{"name":"prefersEarlyGame","type":"bool","internalType":"bool"},{"name":"avoidsZero","type":"bool","internalType":"bool"}],"stateMutability":"view"},{"type":"function","name":"aiTotalEarnings","inputs":[{"name":"","type":"uint256","internalType":"uint256"}],"outputs":[{"name":"","type":"uint256","internalType":"uint256"}],"stateMutability":"view"},{"type":"function","name":"bulkUpdateAIActivity","inputs":[{"name":"_aiIds","type":"uint256[]","internalType":"uint256[]"},{"name":"_activities","type":"bool[]","internalType":"bool[]"}],"outputs":[],"stateMutability":"nonpayable"},{"type":"function","name":"calculateAIMove","inputs":[{"name":"_gameId","type":"uint256","internalType":"uint256"},{"name":"_aiPlayerId","type":"uint256","internalType":"uint256"}],"outputs":[{"name":"suggestedMove","type":"uint256","internalType":"uint256"},{"name":"reasoning","type":"string","internalType":"string"}],"stateMutability":"view"},{"type":"function","name":"createCustomAIPlayer","inputs":[{"name":"_name","type":"string","internalType":"string"},{"name":"_skillLevel","type":"uint256","internalType":"uint256"},{"name":"_personality","type":"string","internalType":"string"}],"outputs":[{"name":"","type":"uint256","internalType":"uint256"}],"stateMutability":"nonpayable"},{"type":"function","name":"emergencyWithdraw","inputs":[],"outputs":[],"stateMutability":"nonpayable"},{"type":"function","name":"executeAIMove","inputs":[{"name":"_gameId","type":"uint256","internalType":"uint256"},{"name":"_aiPlayerId","type":"uint256","internalType":"uint256"},{"name":"_subtraction","type":"uint256","internalType":"uint256"},{"name":"_signature","type":"bytes","internalType":"bytes"}],"outputs":[],"stateMutability":"nonpayable"},{"type":"function","name":"fundAIPlayer","inputs":[{"name":"_aiPlayerId","type":"uint256","internalType":"uint256"}],"outputs":[],"stateMutability":"payable"},{"type":"function","name":"gameAIPlayers","inputs":[{"name":"","type":"uint256","internalType":"uint256"},{"name":"","type":"uint256","internalType":"uint256"}],"outputs":[{"name":"","type":"uint256","internalType":"uint256"}],"stateMutability":"view"},{"type":"function","name":"gameContract","inputs":[],"outputs":[{"name":"","type":"address","internalType":"address"}],"stateMutability":"view"},{"type":"function","name":"getAILeaderboard","inputs":[],"outputs":[{"name":"aiIds","type":"uint256[]","internalType":"uint256[]"},{"name":"names","type":"string[]","internalType":"string[]"},{"name":"winRates","type":"uint256[]","internalType":"uint256[]"},{"name":"totalEarnings","type":"uint256[]","internalType":"uint256[]"}],"stateMutability":"view"},{"type":"function","name":"getAIMoveAdvice","inputs":[{"name":"_gameId","type":"uint256","internalType":"uint256"},{"name":"_advisorAIId","type":"uint256","internalType":"uint256"}],"outputs":[{"name":"suggestedMove","type":"uint256","internalType":"uint256"},{"name":"reasoning","type":"string","internalType":"string"},{"name":"confidence","type":"uint256","internalType":"uint256"}],"stateMutability":"view"},{"type":"function","name":"getAIMoveHistory","inputs":[{"name":"_gameId","type":"uint256","internalType":"uint256"}],"outputs":[{"name":"","type":"tuple[]","internalType":"struct ZeroSumAI.AIMove[]","components":[{"name":"gameId","type":"uint256","internalType":"uint256"},{"name":"aiPlayerId","type":"uint256","internalType":"uint256"},{"name":"subtraction","type":"uint256","internalType":"uint256"},{"name":"timestamp","type":"uint256","internalType":"uint256"},{"name":"reasoning","type":"string","internalType":"string"},{"name":"numberBefore","type":"uint256","internalType":"uint256"},{"name":"numberAfter","type":"uint256","internalType":"uint256"}]}],"stateMutability":"view"},{"type":"function","name":"getAIPlayer","inputs":[{"name":"_aiPlayerId","type":"uint256","internalType":"uint256"}],"outputs":[{"name":"","type":"tuple","internalType":"struct ZeroSumAI.AIPlayer","components":[{"name":"name","type":"string","internalType":"string"},{"name":"skillLevel","type":"uint256","internalType":"uint256"},{"name":"personality","type":"string","internalType":"string"},{"name":"isActive","type":"bool","internalType":"bool"},{"name":"playerAddress","type":"address","internalType":"address"},{"name":"gamesPlayed","type":"uint256","internalType":"uint256"},{"name":"gamesWon","type":"uint256","internalType":"uint256"},{"name":"totalEarnings","type":"uint256","internalType":"uint256"},{"name":"createdAt","type":"uint256","internalType":"uint256"}]}],"stateMutability":"view"},{"type":"function","name":"getAIStats","inputs":[{"name":"_aiPlayerId","type":"uint256","internalType":"uint256"}],"outputs":[{"name":"gamesPlayed","type":"uint256","internalType":"uint256"},{"name":"gamesWon","type":"uint256","internalType":"uint256"},{"name":"winRate","type":"uint256","internalType":"uint256"},{"name":"totalEarnings","type":"uint256","internalType":"uint256"},{"name":"availableBalance","type":"uint256","internalType":"uint256"},{"name":"skillLevel","type":"uint256","internalType":"uint256"}],"stateMutability":"view"},{"type":"function","name":"getAIStrategy","inputs":[{"name":"_aiPlayerId","type":"uint256","internalType":"uint256"}],"outputs":[{"name":"","type":"tuple","internalType":"struct ZeroSumAI.AIStrategy","components":[{"name":"aiPlayerId","type":"uint256","internalType":"uint256"},{"name":"strategyName","type":"string","internalType":"string"},{"name":"aggressiveness","type":"uint256","internalType":"uint256"},{"name":"riskTolerance","type":"uint256","internalType":"uint256"},{"name":"prefersEarlyGame","type":"bool","internalType":"bool"},{"name":"avoidsZero","type":"bool","internalType":"bool"}]}],"stateMutability":"view"},{"type":"function","name":"getActiveAIPlayers","inputs":[],"outputs":[{"name":"","type":"tuple[]","internalType":"struct ZeroSumAI.AIPlayer[]","components":[{"name":"name","type":"string","internalType":"string"},{"name":"skillLevel","type":"uint256","internalType":"uint256"},{"name":"personality","type":"string","internalType":"string"},{"name":"isActive","type":"bool","internalType":"bool"},{"name":"playerAddress","type":"address","internalType":"address"},{"name":"gamesPlayed","type":"uint256","internalType":"uint256"},{"name":"gamesWon","type":"uint256","internalType":"uint256"},{"name":"totalEarnings","type":"uint256","internalType":"uint256"},{"name":"createdAt","type":"uint256","internalType":"uint256"}]}],"stateMutability":"view"},{"type":"function","name":"getAllAIPlayers","inputs":[],"outputs":[{"name":"","type":"tuple[]","internalType":"struct ZeroSumAI.AIPlayer[]","components":[{"name":"name","type":"string","internalType":"string"},{"name":"skillLevel","type":"uint256","internalType":"uint256"},{"name":"personality","type":"string","internalType":"string"},{"name":"isActive","type":"bool","internalType":"bool"},{"name":"playerAddress","type":"address","internalType":"address"},{"name":"gamesPlayed","type":"uint256","internalType":"uint256"},{"name":"gamesWon","type":"uint256","internalType":"uint256"},{"name":"totalEarnings","type":"uint256","internalType":"uint256"},{"name":"createdAt","type":"uint256","internalType":"uint256"}]}],"stateMutability":"view"},{"type":"function","name":"getGameAIPlayers","inputs":[{"name":"_gameId","type":"uint256","internalType":"uint256"}],"outputs":[{"name":"","type":"uint256[]","internalType":"uint256[]"}],"stateMutability":"view"},{"type":"function","name":"getMultipleAIAdvice","inputs":[{"name":"_gameId","type":"uint256","internalType":"uint256"}],"outputs":[{"name":"aiIds","type":"uint256[]","internalType":"uint256[]"},{"name":"suggestedMoves","type":"uint256[]","internalType":"uint256[]"},{"name":"reasonings","type":"string[]","internalType":"string[]"},{"name":"confidences","type":"uint256[]","internalType":"uint256[]"}],"stateMutability":"view"},{"type":"function","name":"isAIInGame","inputs":[{"name":"","type":"uint256","internalType":"uint256"},{"name":"","type":"uint256","internalType":"uint256"}],"outputs":[{"name":"","type":"bool","internalType":"bool"}],"stateMutability":"view"},{"type":"function","name":"owner","inputs":[],"outputs":[{"name":"","type":"address","internalType":"address"}],"stateMutability":"view"},{"type":"function","name":"recordAIGameResult","inputs":[{"name":"_gameId","type":"uint256","internalType":"uint256"},{"name":"_winnerAIId","type":"uint256","internalType":"uint256"},{"name":"_earnings","type":"uint256","internalType":"uint256"}],"outputs":[],"stateMutability":"nonpayable"},{"type":"function","name":"removeAIFromGame","inputs":[{"name":"_gameId","type":"uint256","internalType":"uint256"},{"name":"_aiPlayerId","type":"uint256","internalType":"uint256"}],"outputs":[],"stateMutability":"nonpayable"},{"type":"function","name":"renounceOwnership","inputs":[],"outputs":[],"stateMutability":"nonpayable"},{"type":"function","name":"setAIBackendSigner","inputs":[{"name":"_newSigner","type":"address","internalType":"address"}],"outputs":[],"stateMutability":"nonpayable"},{"type":"function","name":"setGameContract","inputs":[{"name":"_gameContract","type":"address","internalType":"address"}],"outputs":[],"stateMutability":"nonpayable"},{"type":"function","name":"transferOwnership","inputs":[{"name":"newOwner","type":"address","internalType":"address"}],"outputs":[],"stateMutability":"nonpayable"},{"type":"function","name":"updateAIPlayer","inputs":[{"name":"_aiPlayerId","type":"uint256","internalType":"uint256"},{"name":"_name","type":"string","internalType":"string"},{"name":"_skillLevel","type":"uint256","internalType":"uint256"},{"name":"_personality","type":"string","internalType":"string"},{"name":"_isActive","type":"bool","internalType":"bool"}],"outputs":[],"stateMutability":"nonpayable"},{"type":"function","name":"updateAIStrategy","inputs":[{"name":"_aiPlayerId","type":"uint256","internalType":"uint256"},{"name":"_strategyName","type":"string","internalType":"string"},{"name":"_aggressiveness","type":"uint256","internalType":"uint256"},{"name":"_riskTolerance","type":"uint256","internalType":"uint256"},{"name":"_prefersEarlyGame","type":"bool","internalType":"bool"},{"name":"_avoidsZero","type":"bool","internalType":"bool"}],"outputs":[],"stateMutability":"nonpayable"},{"type":"function","name":"updateGameState","inputs":[{"name":"_gameId","type":"uint256","internalType":"uint256"},{"name":"_currentNumber","type":"uint256","internalType":"uint256"},{"name":"_currentPlayer","type":"address","internalType":"address"}],"outputs":[],"stateMutability":"nonpayable"},{"type":"function","name":"withdrawAIEarnings","inputs":[{"name":"_aiPlayerId","type":"uint256","internalType":"uint256"},{"name":"_amount","type":"uint256","internalType":"uint256"}],"outputs":[],"stateMutability":"nonpayable"},{"type":"event","name":"AIBackendSignerUpdated","inputs":[{"name":"newSigner","type":"address","indexed":false,"internalType":"address"}],"anonymous":false},{"type":"event","name":"AIEarningsWithdrawn","inputs":[{"name":"aiPlayerId","type":"uint256","indexed":true,"internalType":"uint256"},{"name":"amount","type":"uint256","indexed":false,"internalType":"uint256"}],"anonymous":false},{"type":"event","name":"AIGameFinished","inputs":[{"name":"gameId","type":"uint256","indexed":true,"internalType":"uint256"},{"name":"winnerAIId","type":"uint256","indexed":true,"internalType":"uint256"},{"name":"earnings","type":"uint256","indexed":false,"internalType":"uint256"}],"anonymous":false},{"type":"event","name":"AIMoveExecuted","inputs":[{"name":"gameId","type":"uint256","indexed":true,"internalType":"uint256"},{"name":"aiPlayerId","type":"uint256","indexed":true,"internalType":"uint256"},{"name":"subtraction","type":"uint256","indexed":false,"internalType":"uint256"},{"name":"reasoning","type":"string","indexed":false,"internalType":"string"}],"anonymous":false},{"type":"event","name":"AIMoveSuggestion","inputs":[{"name":"gameId","type":"uint256","indexed":true,"internalType":"uint256"},{"name":"aiPlayerId","type":"uint256","indexed":true,"internalType":"uint256"},{"name":"suggestedMove","type":"uint256","indexed":false,"internalType":"uint256"},{"name":"reasoning","type":"string","indexed":false,"internalType":"string"}],"anonymous":false},{"type":"event","name":"AIPlayerCreated","inputs":[{"name":"aiPlayerId","type":"uint256","indexed":true,"internalType":"uint256"},{"name":"name","type":"string","indexed":false,"internalType":"string"},{"name":"skillLevel","type":"uint256","indexed":false,"internalType":"uint256"},{"name":"playerAddress","type":"address","indexed":false,"internalType":"address"}],"anonymous":false},{"type":"event","name":"AIStrategyUpdated","inputs":[{"name":"aiPlayerId","type":"uint256","indexed":true,"internalType":"uint256"},{"name":"strategyName","type":"string","indexed":false,"internalType":"string"}],"anonymous":false},{"type":"event","name":"OwnershipTransferred","inputs":[{"name":"previousOwner","type":"address","indexed":true,"internalType":"address"},{"name":"newOwner","type":"address","indexed":true,"internalType":"address"}],"anonymous":false},{"type":"error","name":"OwnableInvalidOwner","inputs":[{"name":"owner","type":"address","internalType":"address"}]},{"type":"error","name":"OwnableUnauthorizedAccount","inputs":[{"name":"account","type":"address","internalType":"address"}]}],"bytecode":{"object":"0x608060405234801561000f575f5ffd5b5060405161835738038061835783398181016040528101906100319190610ac5565b335f73ffffffffffffffffffffffffffffffffffffffff168173ffffffffffffffffffffffffffffffffffffffff16036100a2575f6040517f1e4fbdf70000000000000000000000000000000000000000000000000000000081526004016100999190610b12565b60405180910390fd5b6100b18161014760201b60201c565b508160095f6101000a81548173ffffffffffffffffffffffffffffffffffffffff021916908373ffffffffffffffffffffffffffffffffffffffff16021790555080600b5f6101000a81548173ffffffffffffffffffffffffffffffffffffffff021916908373ffffffffffffffffffffffffffffffffffffffff16021790555061014061020860201b60201c565b5050611006565b5f5f5f9054906101000a900473ffffffffffffffffffffffffffffffffffffffff169050815f5f6101000a81548173ffffffffffffffffffffffffffffffffffffffff021916908373ffffffffffffffffffffffffffffffffffffffff1602179055508173ffffffffffffffffffffffffffffffffffffffff168173ffffffffffffffffffffffffffffffffffffffff167f8be0079c531659141344cd1fd0a4f28419497f9722a3daafe3b4186f6b6457e060405160405180910390a35050565b6102676040518060400160405280600c81526020017f43616c63756c7573204361740000000000000000000000000000000000000000815250605a6040518060600160405280603081526020016181cd6030913961050260201b60201c565b6102c66040518060400160405280600b81526020017f52616e646f6d205269636b000000000000000000000000000000000000000000815250601e60405180606001604052806032815260200161828e6032913961050260201b60201c565b6103256040518060400160405280600c81526020017f5374656164792053746576650000000000000000000000000000000000000000815250603c6040518060600160405280603281526020016181fd6032913961050260201b60201c565b6103846040518060400160405280600a81526020017f5269736b79205269746100000000000000000000000000000000000000000000815250602d6040518060600160405280603581526020016182f26035913961050260201b60201c565b6103e36040518060400160405280600d81526020017f5065726665637420506574726100000000000000000000000000000000000000815250605f6040518060600160405280603081526020016183276030913961050260201b60201c565b6104426040518060400160405280600c81526020017f4e6577626965204e616e6379000000000000000000000000000000000000000081525060146040518060600160405280602781526020016182676027913961050260201b60201c565b6104a16040518060400160405280600d81526020017f416461707469766520416c657800000000000000000000000000000000000000815250604b6040518060600160405280603281526020016182c06032913961050260201b60201c565b6105006040518060400160405280600b81526020017f426c756666204265747479000000000000000000000000000000000000000000815250604160405180606001604052806038815260200161822f6038913961050260201b60201c565b565b600a5f81548092919061051490610b61565b91905055505f600a544260405160200161052f929190610c1c565b604051602081830303815290604052805190602001205f1c90506040518061012001604052808581526020018481526020018381526020016001151581526020018273ffffffffffffffffffffffffffffffffffffffff1681526020015f81526020015f81526020015f81526020014281525060015f600a5481526020019081526020015f205f820151815f0190816105c89190610e86565b506020820151816001015560408201518160020190816105e89190610e86565b506060820151816003015f6101000a81548160ff02191690831515021790555060808201518160030160016101000a81548173ffffffffffffffffffffffffffffffffffffffff021916908373ffffffffffffffffffffffffffffffffffffffff16021790555060a0820151816004015560c0820151816005015560e082015181600601556101008201518160070155905050600a5460025f8373ffffffffffffffffffffffffffffffffffffffff1673ffffffffffffffffffffffffffffffffffffffff1681526020019081526020015f20819055506106d1600a548461071560201b60201c565b600a547f4f5da6b19f1e4d21acc49a33d05a874141d46250dca04247ff5c21d35ba6f37785858460405161070793929190610fca565b60405180910390a250505050565b61071d610a32565b82815f018181525050605a82106107a8576040518060400160405280600781526020017f4f7074696d616c0000000000000000000000000000000000000000000000000081525081602001819052506046816040018181525050601e8160600181815250505f81608001901515908115158152505060018160a00190151590811515815250506109a7565b6046821061082b576040518060400160405280600881526020017f41646170746976650000000000000000000000000000000000000000000000008152508160200181905250603c8160400181815250506032816060018181525050600181608001901515908115158152505060018160a00190151590811515815250506109a6565b603282106108ac576040518060400160405280600881526020017f42616c616e6365640000000000000000000000000000000000000000000000008152508160200181905250603281604001818152505060328160600181815250505f8160800190151590811515815250505f8160a00190151590811515815250506109a5565b601e821061092e576040518060400160405280600681526020017f52616e646f6d000000000000000000000000000000000000000000000000000081525081602001819052506050816040018181525050605081606001818152505060018160800190151590811515815250505f8160a00190151590811515815250506109a4565b6040518060400160405280600881526020017f426567696e6e65720000000000000000000000000000000000000000000000008152508160200181905250605a816040018181525050605a81606001818152505060018160800190151590811515815250505f8160a00190151590811515815250505b5b5b5b8060065f8581526020019081526020015f205f820151815f015560208201518160010190816109d69190610e86565b5060408201518160020155606082015181600301556080820151816004015f6101000a81548160ff02191690831515021790555060a08201518160040160016101000a81548160ff021916908315150217905550905050505050565b6040518060c001604052805f8152602001606081526020015f81526020015f81526020015f151581526020015f151581525090565b5f5ffd5b5f73ffffffffffffffffffffffffffffffffffffffff82169050919050565b5f610a9482610a6b565b9050919050565b610aa481610a8a565b8114610aae575f5ffd5b50565b5f81519050610abf81610a9b565b92915050565b5f5f60408385031215610adb57610ada610a67565b5b5f610ae885828601610ab1565b9250506020610af985828601610ab1565b9150509250929050565b610b0c81610a8a565b82525050565b5f602082019050610b255f830184610b03565b92915050565b7f4e487b71000000000000000000000000000000000000000000000000000000005f52601160045260245ffd5b5f819050919050565b5f610b6b82610b58565b91507fffffffffffffffffffffffffffffffffffffffffffffffffffffffffffffffff8203610b9d57610b9c610b2b565b5b600182019050919050565b5f81905092915050565b7f5a65726f53756d414900000000000000000000000000000000000000000000005f82015250565b5f610be6600983610ba8565b9150610bf182610bb2565b600982019050919050565b5f819050919050565b610c16610c1182610b58565b610bfc565b82525050565b5f610c2682610bda565b9150610c328285610c05565b602082019150610c428284610c05565b6020820191508190509392505050565b5f81519050919050565b7f4e487b71000000000000000000000000000000000000000000000000000000005f52604160045260245ffd5b7f4e487b71000000000000000000000000000000000000000000000000000000005f52602260045260245ffd5b5f6002820490506001821680610ccd57607f821691505b602082108103610ce057610cdf610c89565b5b50919050565b5f819050815f5260205f209050919050565b5f6020601f8301049050919050565b5f82821b905092915050565b5f60088302610d427fffffffffffffffffffffffffffffffffffffffffffffffffffffffffffffffff82610d07565b610d4c8683610d07565b95508019841693508086168417925050509392505050565b5f819050919050565b5f610d87610d82610d7d84610b58565b610d64565b610b58565b9050919050565b5f819050919050565b610da083610d6d565b610db4610dac82610d8e565b848454610d13565b825550505050565b5f5f905090565b610dcb610dbc565b610dd6818484610d97565b505050565b5b81811015610df957610dee5f82610dc3565b600181019050610ddc565b5050565b601f821115610e3e57610e0f81610ce6565b610e1884610cf8565b81016020851015610e27578190505b610e3b610e3385610cf8565b830182610ddb565b50505b505050565b5f82821c905092915050565b5f610e5e5f1984600802610e43565b1980831691505092915050565b5f610e768383610e4f565b9150826002028217905092915050565b610e8f82610c52565b67ffffffffffffffff811115610ea857610ea7610c5c565b5b610eb28254610cb6565b610ebd828285610dfd565b5f60209050601f831160018114610eee575f8415610edc578287015190505b610ee68582610e6b565b865550610f4d565b601f198416610efc86610ce6565b5f5b82811015610f2357848901518255600182019150602085019450602081019050610efe565b86831015610f405784890151610f3c601f891682610e4f565b8355505b6001600288020188555050505b505050505050565b5f82825260208201905092915050565b8281835e5f83830152505050565b5f601f19601f8301169050919050565b5f610f8d82610c52565b610f978185610f55565b9350610fa7818560208601610f65565b610fb081610f73565b840191505092915050565b610fc481610b58565b82525050565b5f6060820190508181035f830152610fe28186610f83565b9050610ff16020830185610fbb565b610ffe6040830184610b03565b949350505050565b6171ba806110135f395ff3fe608060405260043610610245575f3560e01c80637458957411610138578063a0f40a04116100b5578063d7837bce11610079578063d7837bce14610936578063db2e21bc14610960578063ee82c3ab14610976578063f1a24d8c146109b2578063f2fde38b146109dc578063f614647b14610a0457610245565b8063a0f40a0414610839578063b8dfdffc1461087b578063bdac72d3146108a3578063bdd679ae146108cb578063d3f330091461090c57610245565b80638da5cb5b116100fc5780638da5cb5b1461071f5780639575af1f146107495780639b057618146107855780639cf2d8d5146107c15780639e32d311146107fd57610245565b8063745895741461061657806383c018cf14610652578063861d1fcb146106935780638851483a146106bb5780638c1fcf41146106e357610245565b8063355dc87e116101c65780635c0f57451161018a5780635c0f5745146105335780635c2edcc51461056f5780636221b91a146105ab5780636f0ce7c0146105d8578063715018a61461060057610245565b8063355dc87e14610438578063390278db1461047c578063405ebd4d146104a4578063511093ba146104cc578063599a8e731461050957610245565b806324964ba61161020d57806324964ba61461033d57806324c7cad71461035957806327c2950e146103955780632a3a4216146103bd5780632cf33bc6146103fc57610245565b8063056afdfa1461024957806307034fd9146102715780630c8e72e9146102ad578063121e3a87146102d75780631a91eb70146102ff575b5f5ffd5b348015610254575f5ffd5b5061026f600480360381019061026a9190615116565b610a2c565b005b34801561027c575f5ffd5b50610297600480360381019061029291906151c5565b610b2d565b6040516102a491906152f4565b60405180910390f35b3480156102b8575f5ffd5b506102c1610c3a565b6040516102ce91906154d7565b60405180910390f35b3480156102e2575f5ffd5b506102fd60048036038101906102f891906154f7565b610ec7565b005b34801561030a575f5ffd5b50610325600480360381019061032091906154f7565b611036565b6040516103349392919061558c565b60405180910390f35b610357600480360381019061035291906151c5565b6113b5565b005b348015610364575f5ffd5b5061037f600480360381019061037a91906155c8565b611447565b60405161038c9190615650565b60405180910390f35b3480156103a0575f5ffd5b506103bb60048036038101906103b691906154f7565b6114b8565b005b3480156103c8575f5ffd5b506103e360048036038101906103de91906151c5565b611631565b6040516103f394939291906157cc565b60405180910390f35b348015610407575f5ffd5b50610422600480360381019061041d91906154f7565b611bb5565b60405161042f9190615650565b60405180910390f35b348015610443575f5ffd5b5061045e600480360381019061045991906151c5565b611be0565b60405161047399989796959493929190615849565b60405180910390f35b348015610487575f5ffd5b506104a2600480360381019061049d91906154f7565b611d62565b005b3480156104af575f5ffd5b506104ca60048036038101906104c5919061590c565b611ed1565b005b3480156104d7575f5ffd5b506104f260048036038101906104ed91906154f7565b611f1c565b604051610500929190615937565b60405180910390f35b348015610514575f5ffd5b5061051d61233d565b60405161052a91906154d7565b60405180910390f35b34801561053e575f5ffd5b50610559600480360381019061055491906154f7565b612653565b6040516105669190615965565b60405180910390f35b34801561057a575f5ffd5b50610595600480360381019061059091906151c5565b61267d565b6040516105a29190615650565b60405180910390f35b3480156105b6575f5ffd5b506105bf612692565b6040516105cf949392919061597e565b60405180910390f35b3480156105e3575f5ffd5b506105fe60048036038101906105f99190615a7b565b612e1e565b005b34801561060b575f5ffd5b50610614613300565b005b348015610621575f5ffd5b5061063c600480360381019061063791906151c5565b613313565b6040516106499190615c4f565b60405180910390f35b34801561065d575f5ffd5b50610678600480360381019061067391906151c5565b61344b565b60405161068a96959493929190615c6f565b60405180910390f35b34801561069e575f5ffd5b506106b960048036038101906106b49190615cce565b613694565b005b3480156106c6575f5ffd5b506106e160048036038101906106dc919061590c565b6137ca565b005b3480156106ee575f5ffd5b50610709600480360381019061070491906151c5565b61384c565b6040516107169190615d1e565b60405180910390f35b34801561072a575f5ffd5b5061073361387c565b6040516107409190615d1e565b60405180910390f35b348015610754575f5ffd5b5061076f600480360381019061076a919061590c565b6138a3565b60405161077c9190615650565b60405180910390f35b348015610790575f5ffd5b506107ab60048036038101906107a691906151c5565b6138b8565b6040516107b89190615650565b60405180910390f35b3480156107cc575f5ffd5b506107e760048036038101906107e291906151c5565b6138cd565b6040516107f49190615d37565b60405180910390f35b348015610808575f5ffd5b50610823600480360381019061081e91906151c5565b613934565b6040516108309190615650565b60405180910390f35b348015610844575f5ffd5b5061085f600480360381019061085a91906154f7565b613949565b6040516108729796959493929190615d57565b60405180910390f35b348015610886575f5ffd5b506108a1600480360381019061089c9190615f4f565b613a27565b005b3480156108ae575f5ffd5b506108c960048036038101906108c49190615fc5565b613b51565b005b3480156108d6575f5ffd5b506108f160048036038101906108ec91906151c5565b613d5d565b60405161090396959493929190616015565b60405180910390f35b348015610917575f5ffd5b50610920613e34565b60405161092d9190615d1e565b60405180910390f35b348015610941575f5ffd5b5061094a613e59565b6040516109579190615650565b60405180910390f35b34801561096b575f5ffd5b50610974613e5f565b005b348015610981575f5ffd5b5061099c600480360381019061099791906151c5565b613f19565b6040516109a99190616144565b60405180910390f35b3480156109bd575f5ffd5b506109c6614106565b6040516109d39190615d1e565b60405180910390f35b3480156109e7575f5ffd5b50610a0260048036038101906109fd919061590c565b61412b565b005b348015610a0f575f5ffd5b50610a2a6004803603810190610a259190616164565b6141af565b005b610a34614343565b600a54851115610a79576040517f08c379a0000000000000000000000000000000000000000000000000000000008152600401610a7090616253565b60405180910390fd5b60018310158015610a8b575060648311155b610aca576040517f08c379a0000000000000000000000000000000000000000000000000000000008152600401610ac1906162bb565b60405180910390fd5b5f60015f8781526020019081526020015f20905084815f019081610aee91906164d6565b5083816001018190555082816002019081610b0991906164d6565b5081816003015f6101000a81548160ff021916908315150217905550505050505050565b610b35614ecf565b60065f8381526020019081526020015f206040518060c00160405290815f8201548152602001600182018054610b6a90616306565b80601f0160208091040260200160405190810160405280929190818152602001828054610b9690616306565b8015610be15780601f10610bb857610100808354040283529160200191610be1565b820191905f5260205f20905b815481529060010190602001808311610bc457829003601f168201915b505050505081526020016002820154815260200160038201548152602001600482015f9054906101000a900460ff161515151581526020016004820160019054906101000a900460ff1615151515815250509050919050565b60605f600a5467ffffffffffffffff811115610c5957610c58614fbd565b5b604051908082528060200260200182016040528015610c9257816020015b610c7f614f04565b815260200190600190039081610c775790505b5090505f600190505b600a548111610ebf5760015f8281526020019081526020015f20604051806101200160405290815f82018054610cd090616306565b80601f0160208091040260200160405190810160405280929190818152602001828054610cfc90616306565b8015610d475780601f10610d1e57610100808354040283529160200191610d47565b820191905f5260205f20905b815481529060010190602001808311610d2a57829003601f168201915b5050505050815260200160018201548152602001600282018054610d6a90616306565b80601f0160208091040260200160405190810160405280929190818152602001828054610d9690616306565b8015610de15780601f10610db857610100808354040283529160200191610de1565b820191905f5260205f20905b815481529060010190602001808311610dc457829003601f168201915b50505050508152602001600382015f9054906101000a900460ff161515151581526020016003820160019054906101000a900473ffffffffffffffffffffffffffffffffffffffff1673ffffffffffffffffffffffffffffffffffffffff1673ffffffffffffffffffffffffffffffffffffffff16815260200160048201548152602001600582015481526020016006820154815260200160078201548152505082600183610e9091906165d2565b81518110610ea157610ea0616605565b5b60200260200101819052508080610eb790616632565b915050610c9b565b508091505090565b610ecf614343565b60015f8281526020019081526020015f206003015f9054906101000a900460ff16610f2f576040517f08c379a0000000000000000000000000000000000000000000000000000000008152600401610f26906166c3565b60405180910390fd5b60055f8381526020019081526020015f205f8281526020019081526020015f205f9054906101000a900460ff1615610f9c576040517f08c379a0000000000000000000000000000000000000000000000000000000008152600401610f939061672b565b60405180910390fd5b60035f8381526020019081526020015f2081908060018154018082558091505060019003905f5260205f20015f9091909190915055600160055f8481526020019081526020015f205f8381526020019081526020015f205f6101000a81548160ff02191690831515021790555060015f8281526020019081526020015f206004015f81548092919061102d90616632565b91905055505050565b5f60605f60015f8581526020019081526020015f206003015f9054906101000a900460ff1661109a576040517f08c379a000000000000000000000000000000000000000000000000000000000815260040161109190616793565b60405180910390fd5b5f60075f8781526020019081526020015f205490505f60015f8781526020019081526020015f20604051806101200160405290815f820180546110dc90616306565b80601f016020809104026020016040519081016040528092919081815260200182805461110890616306565b80156111535780601f1061112a57610100808354040283529160200191611153565b820191905f5260205f20905b81548152906001019060200180831161113657829003601f168201915b505050505081526020016001820154815260200160028201805461117690616306565b80601f01602080910402602001604051908101604052809291908181526020018280546111a290616306565b80156111ed5780601f106111c4576101008083540402835291602001916111ed565b820191905f5260205f20905b8154815290600101906020018083116111d057829003601f168201915b50505050508152602001600382015f9054906101000a900460ff161515151581526020016003820160019054906101000a900473ffffffffffffffffffffffffffffffffffffffff1673ffffffffffffffffffffffffffffffffffffffff1673ffffffffffffffffffffffffffffffffffffffff16815260200160048201548152602001600582015481526020016006820154815260200160078201548152505090505f60065f8881526020019081526020015f206040518060c00160405290815f82015481526020016001820180546112c690616306565b80601f01602080910402602001604051908101604052809291908181526020018280546112f290616306565b801561133d5780601f106113145761010080835404028352916020019161133d565b820191905f5260205f20905b81548152906001019060200180831161132057829003601f168201915b505050505081526020016002820154815260200160038201548152602001600482015f9054906101000a900460ff161515151581526020016004820160019054906101000a900460ff161515151581525050905061139c8383836143ca565b8096508197505050816020015193505050509250925092565b6113bd614343565b60015f8281526020019081526020015f206003015f9054906101000a900460ff1661141d576040517f08c379a0000000000000000000000000000000000000000000000000000000008152600401611414906166c3565b60405180910390fd5b34600d5f8381526020019081526020015f205f82825461143d91906167b1565b9250508190555050565b5f611450614343565b60018310158015611462575060648311155b6114a1576040517f08c379a0000000000000000000000000000000000000000000000000000000008152600401611498906162bb565b60405180910390fd5b6114ac848484614422565b600a5490509392505050565b6114c0614343565b60055f8381526020019081526020015f205f8281526020019081526020015f205f9054906101000a900460ff1661152c576040517f08c379a00000000000000000000000000000000000000000000000000000000081526004016115239061682e565b60405180910390fd5b5f60035f8481526020019081526020015f2090505f5f90505b81805490508110156115f4578282828154811061156557611564616605565b5b905f5260205f200154036115e757816001838054905061158591906165d2565b8154811061159657611595616605565b5b905f5260205f2001548282815481106115b2576115b1616605565b5b905f5260205f200181905550818054806115cf576115ce61684c565b5b600190038181905f5260205f20015f905590556115f4565b8080600101915050611545565b505f60055f8581526020019081526020015f205f8481526020019081526020015f205f6101000a81548160ff021916908315150217905550505050565b6060806060805f5f90505f600190505b600a5481116116925760015f8281526020019081526020015f206003015f9054906101000a900460ff161561167f57818061167b90616632565b9250505b808061168a90616632565b915050611641565b508067ffffffffffffffff8111156116ad576116ac614fbd565b5b6040519080825280602002602001820160405280156116db5781602001602082028036833780820191505090505b5094508067ffffffffffffffff8111156116f8576116f7614fbd565b5b6040519080825280602002602001820160405280156117265781602001602082028036833780820191505090505b5093508067ffffffffffffffff81111561174357611742614fbd565b5b60405190808252806020026020018201604052801561177657816020015b60608152602001906001900390816117615790505b5092508067ffffffffffffffff81111561179357611792614fbd565b5b6040519080825280602002602001820160405280156117c15781602001602082028036833780820191505090505b5091505f5f90505f60075f8981526020019081526020015f205490505f600190505b600a548111611baa5760015f8281526020019081526020015f206003015f9054906101000a900460ff1615611b97578088848151811061182657611825616605565b5b602002602001018181525050611b178260015f8481526020019081526020015f20604051806101200160405290815f8201805461186290616306565b80601f016020809104026020016040519081016040528092919081815260200182805461188e90616306565b80156118d95780601f106118b0576101008083540402835291602001916118d9565b820191905f5260205f20905b8154815290600101906020018083116118bc57829003601f168201915b50505050508152602001600182015481526020016002820180546118fc90616306565b80601f016020809104026020016040519081016040528092919081815260200182805461192890616306565b80156119735780601f1061194a57610100808354040283529160200191611973565b820191905f5260205f20905b81548152906001019060200180831161195657829003601f168201915b50505050508152602001600382015f9054906101000a900460ff161515151581526020016003820160019054906101000a900473ffffffffffffffffffffffffffffffffffffffff1673ffffffffffffffffffffffffffffffffffffffff1673ffffffffffffffffffffffffffffffffffffffff16815260200160048201548152602001600582015481526020016006820154815260200160078201548152505060065f8581526020019081526020015f206040518060c00160405290815f8201548152602001600182018054611a4990616306565b80601f0160208091040260200160405190810160405280929190818152602001828054611a7590616306565b8015611ac05780601f10611a9757610100808354040283529160200191611ac0565b820191905f5260205f20905b815481529060010190602001808311611aa357829003601f168201915b505050505081526020016002820154815260200160038201548152602001600482015f9054906101000a900460ff161515151581526020016004820160019054906101000a900460ff1615151515815250506143ca565b888581518110611b2a57611b29616605565b5b60200260200101888681518110611b4457611b43616605565b5b6020026020010182905282815250505060015f8281526020019081526020015f2060010154858481518110611b7c57611b7b616605565b5b6020026020010181815250508280611b9390616632565b9350505b8080611ba290616632565b9150506117e3565b505050509193509193565b6003602052815f5260405f208181548110611bce575f80fd5b905f5260205f20015f91509150505481565b6001602052805f5260405f205f91509050805f018054611bff90616306565b80601f0160208091040260200160405190810160405280929190818152602001828054611c2b90616306565b8015611c765780601f10611c4d57610100808354040283529160200191611c76565b820191905f5260205f20905b815481529060010190602001808311611c5957829003601f168201915b505050505090806001015490806002018054611c9190616306565b80601f0160208091040260200160405190810160405280929190818152602001828054611cbd90616306565b8015611d085780601f10611cdf57610100808354040283529160200191611d08565b820191905f5260205f20905b815481529060010190602001808311611ceb57829003601f168201915b505050505090806003015f9054906101000a900460ff16908060030160019054906101000a900473ffffffffffffffffffffffffffffffffffffffff16908060040154908060050154908060060154908060070154905089565b611d6a614343565b80600d5f8481526020019081526020015f20541015611dbe576040517f08c379a0000000000000000000000000000000000000000000000000000000008152600401611db5906168c3565b60405180910390fd5b80600d5f8481526020019081526020015f205f828254611dde91906165d2565b925050819055505f611dee61387c565b73ffffffffffffffffffffffffffffffffffffffff1682604051611e119061690e565b5f6040518083038185875af1925050503d805f8114611e4b576040519150601f19603f3d011682016040523d82523d5f602084013e611e50565b606091505b5050905080611e94576040517f08c379a0000000000000000000000000000000000000000000000000000000008152600401611e8b9061696c565b60405180910390fd5b827f87c29874f8a44452c0a18d8c25bef7b54dfc4d7ea9379bcc2b82ed72f14bc70683604051611ec49190615650565b60405180910390a2505050565b611ed9614343565b8060095f6101000a81548173ffffffffffffffffffffffffffffffffffffffff021916908373ffffffffffffffffffffffffffffffffffffffff16021790555050565b5f606060015f8481526020019081526020015f206003015f9054906101000a900460ff16611f7f576040517f08c379a0000000000000000000000000000000000000000000000000000000008152600401611f76906166c3565b60405180910390fd5b60055f8581526020019081526020015f205f8481526020019081526020015f205f9054906101000a900460ff16611feb576040517f08c379a0000000000000000000000000000000000000000000000000000000008152600401611fe29061682e565b60405180910390fd5b5f60075f8681526020019081526020015f205490505f8111612042576040517f08c379a0000000000000000000000000000000000000000000000000000000008152600401612039906169d4565b60405180910390fd5b5f60015f8681526020019081526020015f20604051806101200160405290815f8201805461206f90616306565b80601f016020809104026020016040519081016040528092919081815260200182805461209b90616306565b80156120e65780601f106120bd576101008083540402835291602001916120e6565b820191905f5260205f20905b8154815290600101906020018083116120c957829003601f168201915b505050505081526020016001820154815260200160028201805461210990616306565b80601f016020809104026020016040519081016040528092919081815260200182805461213590616306565b80156121805780601f1061215757610100808354040283529160200191612180565b820191905f5260205f20905b81548152906001019060200180831161216357829003601f168201915b50505050508152602001600382015f9054906101000a900460ff161515151581526020016003820160019054906101000a900473ffffffffffffffffffffffffffffffffffffffff1673ffffffffffffffffffffffffffffffffffffffff1673ffffffffffffffffffffffffffffffffffffffff16815260200160048201548152602001600582015481526020016006820154815260200160078201548152505090505f60065f8781526020019081526020015f206040518060c00160405290815f820154815260200160018201805461225990616306565b80601f016020809104026020016040519081016040528092919081815260200182805461228590616306565b80156122d05780601f106122a7576101008083540402835291602001916122d0565b820191905f5260205f20905b8154815290600101906020018083116122b357829003601f168201915b505050505081526020016002820154815260200160038201548152602001600482015f9054906101000a900460ff161515151581526020016004820160019054906101000a900460ff161515151581525050905061232f8383836143ca565b945094505050509250929050565b60605f5f90505f600190505b600a54811161239a5760015f8281526020019081526020015f206003015f9054906101000a900460ff161561238757818061238390616632565b9250505b808061239290616632565b915050612349565b505f8167ffffffffffffffff8111156123b6576123b5614fbd565b5b6040519080825280602002602001820160405280156123ef57816020015b6123dc614f04565b8152602001906001900390816123d45790505b5090505f5f90505f600190505b600a5481116126495760015f8281526020019081526020015f206003015f9054906101000a900460ff16156126365760015f8281526020019081526020015f20604051806101200160405290815f8201805461245790616306565b80601f016020809104026020016040519081016040528092919081815260200182805461248390616306565b80156124ce5780601f106124a5576101008083540402835291602001916124ce565b820191905f5260205f20905b8154815290600101906020018083116124b157829003601f168201915b50505050508152602001600182015481526020016002820180546124f190616306565b80601f016020809104026020016040519081016040528092919081815260200182805461251d90616306565b80156125685780601f1061253f57610100808354040283529160200191612568565b820191905f5260205f20905b81548152906001019060200180831161254b57829003601f168201915b50505050508152602001600382015f9054906101000a900460ff161515151581526020016003820160019054906101000a900473ffffffffffffffffffffffffffffffffffffffff1673ffffffffffffffffffffffffffffffffffffffff1673ffffffffffffffffffffffffffffffffffffffff16815260200160048201548152602001600582015481526020016006820154815260200160078201548152505083838151811061261c5761261b616605565b5b6020026020010181905250818061263290616632565b9250505b808061264190616632565b9150506123fc565b5081935050505090565b6005602052815f5260405f20602052805f5260405f205f915091509054906101000a900460ff1681565b6007602052805f5260405f205f915090505481565b6060806060805f5f90505f600190505b600a5481116127125760015f8281526020019081526020015f206003015f9054906101000a900460ff1680156126eb57505f60015f8381526020019081526020015f2060040154115b156126ff5781806126fb90616632565b9250505b808061270a90616632565b9150506126a2565b508067ffffffffffffffff81111561272d5761272c614fbd565b5b60405190808252806020026020018201604052801561275b5781602001602082028036833780820191505090505b5094508067ffffffffffffffff81111561277857612777614fbd565b5b6040519080825280602002602001820160405280156127ab57816020015b60608152602001906001900390816127965790505b5093508067ffffffffffffffff8111156127c8576127c7614fbd565b5b6040519080825280602002602001820160405280156127f65781602001602082028036833780820191505090505b5092508067ffffffffffffffff81111561281357612812614fbd565b5b6040519080825280602002602001820160405280156128415781602001602082028036833780820191505090505b5091505f5f90505f600190505b600a548111612b455760015f8281526020019081526020015f206003015f9054906101000a900460ff16801561289757505f60015f8381526020019081526020015f2060040154115b15612b32575f60015f8381526020019081526020015f20604051806101200160405290815f820180546128c990616306565b80601f01602080910402602001604051908101604052809291908181526020018280546128f590616306565b80156129405780601f1061291757610100808354040283529160200191612940565b820191905f5260205f20905b81548152906001019060200180831161292357829003601f168201915b505050505081526020016001820154815260200160028201805461296390616306565b80601f016020809104026020016040519081016040528092919081815260200182805461298f90616306565b80156129da5780601f106129b1576101008083540402835291602001916129da565b820191905f5260205f20905b8154815290600101906020018083116129bd57829003601f168201915b50505050508152602001600382015f9054906101000a900460ff161515151581526020016003820160019054906101000a900473ffffffffffffffffffffffffffffffffffffffff1673ffffffffffffffffffffffffffffffffffffffff1673ffffffffffffffffffffffffffffffffffffffff168152602001600482015481526020016005820154815260200160068201548152602001600782015481525050905081888481518110612a9157612a90616605565b5b602002602001018181525050805f0151878481518110612ab457612ab3616605565b5b60200260200101819052508060a0015160648260c00151612ad591906169f2565b612adf9190616a60565b868481518110612af257612af1616605565b5b6020026020010181815250508060e00151858481518110612b1657612b15616605565b5b6020026020010181815250508280612b2d90616632565b935050505b8080612b3d90616632565b91505061284e565b505f5f90505b600183612b5891906165d2565b811015612e15575f5f90505b60018285612b7291906165d2565b612b7c91906165d2565b811015612e075785600182612b9191906167b1565b81518110612ba257612ba1616605565b5b6020026020010151868281518110612bbd57612bbc616605565b5b60200260200101511015612dfa5787600182612bd991906167b1565b81518110612bea57612be9616605565b5b6020026020010151888281518110612c0557612c04616605565b5b6020026020010151898381518110612c2057612c1f616605565b5b602002602001018a600185612c3591906167b1565b81518110612c4657612c45616605565b5b602002602001018281525082815250505086600182612c6591906167b1565b81518110612c7657612c75616605565b5b6020026020010151878281518110612c9157612c90616605565b5b6020026020010151888381518110612cac57612cab616605565b5b6020026020010189600185612cc191906167b1565b81518110612cd257612cd1616605565b5b60200260200101829052829052505085600182612cef91906167b1565b81518110612d0057612cff616605565b5b6020026020010151868281518110612d1b57612d1a616605565b5b6020026020010151878381518110612d3657612d35616605565b5b6020026020010188600185612d4b91906167b1565b81518110612d5c57612d5b616605565b5b602002602001018281525082815250505084600182612d7b91906167b1565b81518110612d8c57612d8b616605565b5b6020026020010151858281518110612da757612da6616605565b5b6020026020010151868381518110612dc257612dc1616605565b5b6020026020010187600185612dd791906167b1565b81518110612de857612de7616605565b5b60200260200101828152508281525050505b8080600101915050612b64565b508080600101915050612b4b565b50505090919293565b612e2a8484848461462f565b612e69576040517f08c379a0000000000000000000000000000000000000000000000000000000008152600401612e6090616ada565b60405180910390fd5b60055f8581526020019081526020015f205f8481526020019081526020015f205f9054906101000a900460ff16612ed5576040517f08c379a0000000000000000000000000000000000000000000000000000000008152600401612ecc9061682e565b60405180910390fd5b5f60015f8581526020019081526020015f2090505f60075f8781526020019081526020015f205490505f8482612f0b91906165d2565b90505f5f6131e48486604051806101200160405290815f82018054612f2f90616306565b80601f0160208091040260200160405190810160405280929190818152602001828054612f5b90616306565b8015612fa65780601f10612f7d57610100808354040283529160200191612fa6565b820191905f5260205f20905b815481529060010190602001808311612f8957829003601f168201915b5050505050815260200160018201548152602001600282018054612fc990616306565b80601f0160208091040260200160405190810160405280929190818152602001828054612ff590616306565b80156130405780601f1061301757610100808354040283529160200191613040565b820191905f5260205f20905b81548152906001019060200180831161302357829003601f168201915b50505050508152602001600382015f9054906101000a900460ff161515151581526020016003820160019054906101000a900473ffffffffffffffffffffffffffffffffffffffff1673ffffffffffffffffffffffffffffffffffffffff1673ffffffffffffffffffffffffffffffffffffffff16815260200160048201548152602001600582015481526020016006820154815260200160078201548152505060065f8c81526020019081526020015f206040518060c00160405290815f820154815260200160018201805461311690616306565b80601f016020809104026020016040519081016040528092919081815260200182805461314290616306565b801561318d5780601f106131645761010080835404028352916020019161318d565b820191905f5260205f20905b81548152906001019060200180831161317057829003601f168201915b505050505081526020016002820154815260200160038201548152602001600482015f9054906101000a900460ff161515151581526020016004820160019054906101000a900460ff1615151515815250506143ca565b9150915060045f8a81526020019081526020015f206040518060e001604052808b81526020018a815260200189815260200142815260200183815260200186815260200185815250908060018154018082558091505060019003905f5260205f2090600702015f909190919091505f820151815f0155602082015181600101556040820151816002015560608201518160030155608082015181600401908161328d91906164d6565b5060a0820151816005015560c0820151816006015550508260075f8b81526020019081526020015f208190555087897f1dbd0974742af958f4929dfb8b9b390956906f9500046be8007d8d455cec284a89846040516132ed929190615937565b60405180910390a3505050505050505050565b613308614343565b6133115f61474b565b565b606060045f8381526020019081526020015f20805480602002602001604051908101604052809291908181526020015f905b82821015613440578382905f5260205f2090600702016040518060e00160405290815f820154815260200160018201548152602001600282015481526020016003820154815260200160048201805461339d90616306565b80601f01602080910402602001604051908101604052809291908181526020018280546133c990616306565b80156134145780601f106133eb57610100808354040283529160200191613414565b820191905f5260205f20905b8154815290600101906020018083116133f757829003601f168201915b505050505081526020016005820154815260200160068201548152505081526020019060010190613345565b505050509050919050565b5f5f5f5f5f5f5f60015f8981526020019081526020015f20604051806101200160405290815f8201805461347e90616306565b80601f01602080910402602001604051908101604052809291908181526020018280546134aa90616306565b80156134f55780601f106134cc576101008083540402835291602001916134f5565b820191905f5260205f20905b8154815290600101906020018083116134d857829003601f168201915b505050505081526020016001820154815260200160028201805461351890616306565b80601f016020809104026020016040519081016040528092919081815260200182805461354490616306565b801561358f5780601f106135665761010080835404028352916020019161358f565b820191905f5260205f20905b81548152906001019060200180831161357257829003601f168201915b50505050508152602001600382015f9054906101000a900460ff161515151581526020016003820160019054906101000a900473ffffffffffffffffffffffffffffffffffffffff1673ffffffffffffffffffffffffffffffffffffffff1673ffffffffffffffffffffffffffffffffffffffff16815260200160048201548152602001600582015481526020016006820154815260200160078201548152505090508060a0015196508060c0015195505f871161364d575f613666565b8660648761365b91906169f2565b6136659190616a60565b5b94508060e001519350600d5f8981526020019081526020015f20549250806020015191505091939550919395565b60095f9054906101000a900473ffffffffffffffffffffffffffffffffffffffff1673ffffffffffffffffffffffffffffffffffffffff163373ffffffffffffffffffffffffffffffffffffffff16148061372157506136f261387c565b73ffffffffffffffffffffffffffffffffffffffff163373ffffffffffffffffffffffffffffffffffffffff16145b613760576040517f08c379a000000000000000000000000000000000000000000000000000000000815260040161375790616b42565b60405180910390fd5b8160075f8581526020019081526020015f20819055508060085f8581526020019081526020015f205f6101000a81548173ffffffffffffffffffffffffffffffffffffffff021916908373ffffffffffffffffffffffffffffffffffffffff160217905550505050565b6137d2614343565b80600b5f6101000a81548173ffffffffffffffffffffffffffffffffffffffff021916908373ffffffffffffffffffffffffffffffffffffffff1602179055507fbfc9dabc033c5f9c953bc1b2b12901d815af3cd6f1f6e67ede839ea925e8c242816040516138419190615d1e565b60405180910390a150565b6008602052805f5260405f205f915054906101000a900473ffffffffffffffffffffffffffffffffffffffff1681565b5f5f5f9054906101000a900473ffffffffffffffffffffffffffffffffffffffff16905090565b6002602052805f5260405f205f915090505481565b600c602052805f5260405f205f915090505481565b606060035f8381526020019081526020015f2080548060200260200160405190810160405280929190818152602001828054801561392857602002820191905f5260205f20905b815481526020019060010190808311613914575b50505050509050919050565b600d602052805f5260405f205f915090505481565b6004602052815f5260405f208181548110613962575f80fd5b905f5260205f2090600702015f9150915050805f01549080600101549080600201549080600301549080600401805461399a90616306565b80601f01602080910402602001604051908101604052809291908181526020018280546139c690616306565b8015613a115780601f106139e857610100808354040283529160200191613a11565b820191905f5260205f20905b8154815290600101906020018083116139f457829003601f168201915b5050505050908060050154908060060154905087565b613a2f614343565b8051825114613a73576040517f08c379a0000000000000000000000000000000000000000000000000000000008152600401613a6a90616baa565b60405180910390fd5b5f5f90505b8251811015613b4c57600a54838281518110613a9757613a96616605565b5b60200260200101511115613ae0576040517f08c379a0000000000000000000000000000000000000000000000000000000008152600401613ad790616c12565b60405180910390fd5b818181518110613af357613af2616605565b5b602002602001015160015f858481518110613b1157613b10616605565b5b602002602001015181526020019081526020015f206003015f6101000a81548160ff0219169083151502179055508080600101915050613a78565b505050565b60095f9054906101000a900473ffffffffffffffffffffffffffffffffffffffff1673ffffffffffffffffffffffffffffffffffffffff163373ffffffffffffffffffffffffffffffffffffffff161480613bde5750613baf61387c565b73ffffffffffffffffffffffffffffffffffffffff163373ffffffffffffffffffffffffffffffffffffffff16145b613c1d576040517f08c379a0000000000000000000000000000000000000000000000000000000008152600401613c1490616b42565b60405180910390fd5b60055f8481526020019081526020015f205f8381526020019081526020015f205f9054906101000a900460ff16613c89576040517f08c379a0000000000000000000000000000000000000000000000000000000008152600401613c809061682e565b60405180910390fd5b5f60015f8481526020019081526020015f209050806005015f815480929190613cb190616632565b919050555081816006015f828254613cc991906167b1565b9250508190555081600c5f8581526020019081526020015f205f828254613cf091906167b1565b9250508190555081600d5f8581526020019081526020015f205f828254613d1791906167b1565b9250508190555082847f444013a45379b0c33c500074d8a4f4cf3293f999524080f52dee5400bf53aa5884604051613d4f9190615650565b60405180910390a350505050565b6006602052805f5260405f205f91509050805f015490806001018054613d8290616306565b80601f0160208091040260200160405190810160405280929190818152602001828054613dae90616306565b8015613df95780601f10613dd057610100808354040283529160200191613df9565b820191905f5260205f20905b815481529060010190602001808311613ddc57829003601f168201915b505050505090806002015490806003015490806004015f9054906101000a900460ff16908060040160019054906101000a900460ff16905086565b60095f9054906101000a900473ffffffffffffffffffffffffffffffffffffffff1681565b600a5481565b613e67614343565b5f613e7061387c565b73ffffffffffffffffffffffffffffffffffffffff1647604051613e939061690e565b5f6040518083038185875af1925050503d805f8114613ecd576040519150601f19603f3d011682016040523d82523d5f602084013e613ed2565b606091505b5050905080613f16576040517f08c379a0000000000000000000000000000000000000000000000000000000008152600401613f0d90616c7a565b60405180910390fd5b50565b613f21614f04565b60015f8381526020019081526020015f20604051806101200160405290815f82018054613f4d90616306565b80601f0160208091040260200160405190810160405280929190818152602001828054613f7990616306565b8015613fc45780601f10613f9b57610100808354040283529160200191613fc4565b820191905f5260205f20905b815481529060010190602001808311613fa757829003601f168201915b5050505050815260200160018201548152602001600282018054613fe790616306565b80601f016020809104026020016040519081016040528092919081815260200182805461401390616306565b801561405e5780601f106140355761010080835404028352916020019161405e565b820191905f5260205f20905b81548152906001019060200180831161404157829003601f168201915b50505050508152602001600382015f9054906101000a900460ff161515151581526020016003820160019054906101000a900473ffffffffffffffffffffffffffffffffffffffff1673ffffffffffffffffffffffffffffffffffffffff1673ffffffffffffffffffffffffffffffffffffffff1681526020016004820154815260200160058201548152602001600682015481526020016007820154815250509050919050565b600b5f9054906101000a900473ffffffffffffffffffffffffffffffffffffffff1681565b614133614343565b5f73ffffffffffffffffffffffffffffffffffffffff168173ffffffffffffffffffffffffffffffffffffffff16036141a3575f6040517f1e4fbdf700000000000000000000000000000000000000000000000000000000815260040161419a9190615d1e565b60405180910390fd5b6141ac8161474b565b50565b6141b7614343565b600a548611156141fc576040517f08c379a00000000000000000000000000000000000000000000000000000000081526004016141f390616253565b60405180910390fd5b6064841115801561420e575060648311155b61424d576040517f08c379a000000000000000000000000000000000000000000000000000000000815260040161424490616ce2565b60405180910390fd5b6040518060c00160405280878152602001868152602001858152602001848152602001831515815260200182151581525060065f8881526020019081526020015f205f820151815f015560208201518160010190816142ac91906164d6565b5060408201518160020155606082015181600301556080820151816004015f6101000a81548160ff02191690831515021790555060a08201518160040160016101000a81548160ff021916908315150217905550905050857fc43895aa0f4b5d525c1447ee69bf3aac022ef0b3a18cd29054c557c5fa6027ed866040516143339190616d00565b60405180910390a2505050505050565b61434b61480c565b73ffffffffffffffffffffffffffffffffffffffff1661436961387c565b73ffffffffffffffffffffffffffffffffffffffff16146143c85761438c61480c565b6040517f118cdaa70000000000000000000000000000000000000000000000000000000081526004016143bf9190615d1e565b60405180910390fd5b565b5f606060508460200151106143ec576143e38584614813565b9150915061441a565b603284602001511061440b5761440285846148f3565b9150915061441a565b6144158584614a27565b915091505b935093915050565b600a5f81548092919061443490616632565b91905055505f600a544260405160200161444f929190616d94565b604051602081830303815290604052805190602001205f1c90506040518061012001604052808581526020018481526020018381526020016001151581526020018273ffffffffffffffffffffffffffffffffffffffff1681526020015f81526020015f81526020015f81526020014281525060015f600a5481526020019081526020015f205f820151815f0190816144e891906164d6565b5060208201518160010155604082015181600201908161450891906164d6565b506060820151816003015f6101000a81548160ff02191690831515021790555060808201518160030160016101000a81548173ffffffffffffffffffffffffffffffffffffffff021916908373ffffffffffffffffffffffffffffffffffffffff16021790555060a0820151816004015560c0820151816005015560e082015181600601556101008201518160070155905050600a5460025f8373ffffffffffffffffffffffffffffffffffffffff1673ffffffffffffffffffffffffffffffffffffffff1681526020019081526020015f20819055506145eb600a5484614b4d565b600a547f4f5da6b19f1e4d21acc49a33d05a874141d46250dca04247ff5c21d35ba6f37785858460405161462193929190616dca565b60405180910390a250505050565b5f5f858585306040516020016146489493929190616e4b565b6040516020818303038152906040528051906020012090505f816040516020016146729190616f0b565b6040516020818303038152906040528051906020012090505f5f5f61469687614e6a565b9250925092505f6001858386866040515f81526020016040526040516146bf9493929190616f5a565b6020604051602081039080840390855afa1580156146df573d5f5f3e3d5ffd5b505050602060405103519050600b5f9054906101000a900473ffffffffffffffffffffffffffffffffffffffff1673ffffffffffffffffffffffffffffffffffffffff168173ffffffffffffffffffffffffffffffffffffffff16149650505050505050949350505050565b5f5f5f9054906101000a900473ffffffffffffffffffffffffffffffffffffffff169050815f5f6101000a81548173ffffffffffffffffffffffffffffffffffffffff021916908373ffffffffffffffffffffffffffffffffffffffff1602179055508173ffffffffffffffffffffffffffffffffffffffff168173ffffffffffffffffffffffffffffffffffffffff167f8be0079c531659141344cd1fd0a4f28419497f9722a3daafe3b4186f6b6457e060405160405180910390a35050565b5f33905090565b5f60606003841161484d5760018461482b91906165d2565b91506040518060600160405280602181526020016171646021913990506148d4565b600160048561485c9190616f9d565b0361489c57606460148561487091906169f2565b61487a9190616a60565b91506040518060600160405280602e81526020016170e1602e913990506148d3565b6004846148a99190616f9d565b91505f82036148b757600191505b6040518060600160405280603081526020016171346030913990505b5b5f82036148e057600191505b838211156148ec578391505b9250929050565b5f60605f428560405160200161490a929190616fcd565b604051602081830303815290604052805190602001205f1c90508360a001518015614936575060058511155b1561495f576001925060405180606001604052806021815260200161709d602191399150614a13565b836080015180156149705750603285115b156149b357606484604001518661498791906169f2565b6149919190616a60565b925060405180606001604052806025815260200161710f602591399150614a12565b5f6014826149c19190616f9d565b600f6149cd91906167b1565b9050606481876149dd91906169f2565b6149e79190616a60565b93505f84036149f557600193505b6040518060600160405280602381526020016170be602391399250505b5b84831115614a1f578492505b509250929050565b5f60605f424486604051602001614a4093929190616ff8565b604051602081830303815290604052805190602001205f1c90506046846060015110614abd578481614a729190616f9d565b6001614a7e91906167b1565b92506040518060400160405280601d81526020017f52616e646f6d3a2048696768207269736b2072616e646f6d206d6f76650000008152509150614b39565b5f6064601e87614acd91906169f2565b614ad79190616a60565b90505f8103614ae557600190505b8082614af19190616f9d565b6001614afd91906167b1565b93506040518060400160405280602081526020017f52616e646f6d3a20436f6e7365727661746976652072616e646f6d206d6f76658152509250505b84831115614b45578492505b509250929050565b614b55614ecf565b82815f018181525050605a8210614be0576040518060400160405280600781526020017f4f7074696d616c0000000000000000000000000000000000000000000000000081525081602001819052506046816040018181525050601e8160600181815250505f81608001901515908115158152505060018160a0019015159081151581525050614ddf565b60468210614c63576040518060400160405280600881526020017f41646170746976650000000000000000000000000000000000000000000000008152508160200181905250603c8160400181815250506032816060018181525050600181608001901515908115158152505060018160a0019015159081151581525050614dde565b60328210614ce4576040518060400160405280600881526020017f42616c616e6365640000000000000000000000000000000000000000000000008152508160200181905250603281604001818152505060328160600181815250505f8160800190151590811515815250505f8160a0019015159081151581525050614ddd565b601e8210614d66576040518060400160405280600681526020017f52616e646f6d000000000000000000000000000000000000000000000000000081525081602001819052506050816040018181525050605081606001818152505060018160800190151590811515815250505f8160a0019015159081151581525050614ddc565b6040518060400160405280600881526020017f426567696e6e65720000000000000000000000000000000000000000000000008152508160200181905250605a816040018181525050605a81606001818152505060018160800190151590811515815250505f8160a00190151590811515815250505b5b5b5b8060065f8581526020019081526020015f205f820151815f01556020820151816001019081614e0e91906164d6565b5060408201518160020155606082015181600301556080820151816004015f6101000a81548160ff02191690831515021790555060a08201518160040160016101000a81548160ff021916908315150217905550905050505050565b5f5f5f6041845114614eb1576040517f08c379a0000000000000000000000000000000000000000000000000000000008152600401614ea89061707e565b60405180910390fd5b602084015192506040840151915060608401515f1a90509193909250565b6040518060c001604052805f8152602001606081526020015f81526020015f81526020015f151581526020015f151581525090565b604051806101200160405280606081526020015f8152602001606081526020015f151581526020015f73ffffffffffffffffffffffffffffffffffffffff1681526020015f81526020015f81526020015f81526020015f81525090565b5f604051905090565b5f5ffd5b5f5ffd5b5f819050919050565b614f8481614f72565b8114614f8e575f5ffd5b50565b5f81359050614f9f81614f7b565b92915050565b5f5ffd5b5f5ffd5b5f601f19601f8301169050919050565b7f4e487b71000000000000000000000000000000000000000000000000000000005f52604160045260245ffd5b614ff382614fad565b810181811067ffffffffffffffff8211171561501257615011614fbd565b5b80604052505050565b5f615024614f61565b90506150308282614fea565b919050565b5f67ffffffffffffffff82111561504f5761504e614fbd565b5b61505882614fad565b9050602081019050919050565b828183375f83830152505050565b5f61508561508084615035565b61501b565b9050828152602081018484840111156150a1576150a0614fa9565b5b6150ac848285615065565b509392505050565b5f82601f8301126150c8576150c7614fa5565b5b81356150d8848260208601615073565b91505092915050565b5f8115159050919050565b6150f5816150e1565b81146150ff575f5ffd5b50565b5f81359050615110816150ec565b92915050565b5f5f5f5f5f60a0868803121561512f5761512e614f6a565b5b5f61513c88828901614f91565b955050602086013567ffffffffffffffff81111561515d5761515c614f6e565b5b615169888289016150b4565b945050604061517a88828901614f91565b935050606086013567ffffffffffffffff81111561519b5761519a614f6e565b5b6151a7888289016150b4565b92505060806151b888828901615102565b9150509295509295909350565b5f602082840312156151da576151d9614f6a565b5b5f6151e784828501614f91565b91505092915050565b6151f981614f72565b82525050565b5f81519050919050565b5f82825260208201905092915050565b8281835e5f83830152505050565b5f615231826151ff565b61523b8185615209565b935061524b818560208601615219565b61525481614fad565b840191505092915050565b615268816150e1565b82525050565b5f60c083015f8301516152835f8601826151f0565b506020830151848203602086015261529b8282615227565b91505060408301516152b060408601826151f0565b5060608301516152c360608601826151f0565b5060808301516152d6608086018261525f565b5060a08301516152e960a086018261525f565b508091505092915050565b5f6020820190508181035f83015261530c818461526e565b905092915050565b5f81519050919050565b5f82825260208201905092915050565b5f819050602082019050919050565b5f73ffffffffffffffffffffffffffffffffffffffff82169050919050565b5f6153668261533d565b9050919050565b6153768161535c565b82525050565b5f61012083015f8301518482035f8601526153978282615227565b91505060208301516153ac60208601826151f0565b50604083015184820360408601526153c48282615227565b91505060608301516153d9606086018261525f565b5060808301516153ec608086018261536d565b5060a08301516153ff60a08601826151f0565b5060c083015161541260c08601826151f0565b5060e083015161542560e08601826151f0565b5061010083015161543a6101008601826151f0565b508091505092915050565b5f615450838361537c565b905092915050565b5f602082019050919050565b5f61546e82615314565b615478818561531e565b93508360208202850161548a8561532e565b805f5b858110156154c557848403895281516154a68582615445565b94506154b183615458565b925060208a0199505060018101905061548d565b50829750879550505050505092915050565b5f6020820190508181035f8301526154ef8184615464565b905092915050565b5f5f6040838503121561550d5761550c614f6a565b5b5f61551a85828601614f91565b925050602061552b85828601614f91565b9150509250929050565b61553e81614f72565b82525050565b5f82825260208201905092915050565b5f61555e826151ff565b6155688185615544565b9350615578818560208601615219565b61558181614fad565b840191505092915050565b5f60608201905061559f5f830186615535565b81810360208301526155b18185615554565b90506155c06040830184615535565b949350505050565b5f5f5f606084860312156155df576155de614f6a565b5b5f84013567ffffffffffffffff8111156155fc576155fb614f6e565b5b615608868287016150b4565b935050602061561986828701614f91565b925050604084013567ffffffffffffffff81111561563a57615639614f6e565b5b615646868287016150b4565b9150509250925092565b5f6020820190506156635f830184615535565b92915050565b5f81519050919050565b5f82825260208201905092915050565b5f819050602082019050919050565b5f61569d83836151f0565b60208301905092915050565b5f602082019050919050565b5f6156bf82615669565b6156c98185615673565b93506156d483615683565b805f5b838110156157045781516156eb8882615692565b97506156f6836156a9565b9250506001810190506156d7565b5085935050505092915050565b5f81519050919050565b5f82825260208201905092915050565b5f819050602082019050919050565b5f6157458383615227565b905092915050565b5f602082019050919050565b5f61576382615711565b61576d818561571b565b93508360208202850161577f8561572b565b805f5b858110156157ba578484038952815161579b858261573a565b94506157a68361574d565b925060208a01995050600181019050615782565b50829750879550505050505092915050565b5f6080820190508181035f8301526157e481876156b5565b905081810360208301526157f881866156b5565b9050818103604083015261580c8185615759565b9050818103606083015261582081846156b5565b905095945050505050565b615834816150e1565b82525050565b6158438161535c565b82525050565b5f610120820190508181035f830152615862818c615554565b9050615871602083018b615535565b8181036040830152615883818a615554565b9050615892606083018961582b565b61589f608083018861583a565b6158ac60a0830187615535565b6158b960c0830186615535565b6158c660e0830185615535565b6158d4610100830184615535565b9a9950505050505050505050565b6158eb8161535c565b81146158f5575f5ffd5b50565b5f81359050615906816158e2565b92915050565b5f6020828403121561592157615920614f6a565b5b5f61592e848285016158f8565b91505092915050565b5f60408201905061594a5f830185615535565b818103602083015261595c8184615554565b90509392505050565b5f6020820190506159785f83018461582b565b92915050565b5f6080820190508181035f83015261599681876156b5565b905081810360208301526159aa8186615759565b905081810360408301526159be81856156b5565b905081810360608301526159d281846156b5565b905095945050505050565b5f67ffffffffffffffff8211156159f7576159f6614fbd565b5b615a0082614fad565b9050602081019050919050565b5f615a1f615a1a846159dd565b61501b565b905082815260208101848484011115615a3b57615a3a614fa9565b5b615a46848285615065565b509392505050565b5f82601f830112615a6257615a61614fa5565b5b8135615a72848260208601615a0d565b91505092915050565b5f5f5f5f60808587031215615a9357615a92614f6a565b5b5f615aa087828801614f91565b9450506020615ab187828801614f91565b9350506040615ac287828801614f91565b925050606085013567ffffffffffffffff811115615ae357615ae2614f6e565b5b615aef87828801615a4e565b91505092959194509250565b5f81519050919050565b5f82825260208201905092915050565b5f819050602082019050919050565b5f60e083015f830151615b395f8601826151f0565b506020830151615b4c60208601826151f0565b506040830151615b5f60408601826151f0565b506060830151615b7260608601826151f0565b5060808301518482036080860152615b8a8282615227565b91505060a0830151615b9f60a08601826151f0565b5060c0830151615bb260c08601826151f0565b508091505092915050565b5f615bc88383615b24565b905092915050565b5f602082019050919050565b5f615be682615afb565b615bf08185615b05565b935083602082028501615c0285615b15565b805f5b85811015615c3d5784840389528151615c1e8582615bbd565b9450615c2983615bd0565b925060208a01995050600181019050615c05565b50829750879550505050505092915050565b5f6020820190508181035f830152615c678184615bdc565b905092915050565b5f60c082019050615c825f830189615535565b615c8f6020830188615535565b615c9c6040830187615535565b615ca96060830186615535565b615cb66080830185615535565b615cc360a0830184615535565b979650505050505050565b5f5f5f60608486031215615ce557615ce4614f6a565b5b5f615cf286828701614f91565b9350506020615d0386828701614f91565b9250506040615d14868287016158f8565b9150509250925092565b5f602082019050615d315f83018461583a565b92915050565b5f6020820190508181035f830152615d4f81846156b5565b905092915050565b5f60e082019050615d6a5f83018a615535565b615d776020830189615535565b615d846040830188615535565b615d916060830187615535565b8181036080830152615da38186615554565b9050615db260a0830185615535565b615dbf60c0830184615535565b98975050505050505050565b5f67ffffffffffffffff821115615de557615de4614fbd565b5b602082029050602081019050919050565b5f5ffd5b5f615e0c615e0784615dcb565b61501b565b90508083825260208201905060208402830185811115615e2f57615e2e615df6565b5b835b81811015615e585780615e448882614f91565b845260208401935050602081019050615e31565b5050509392505050565b5f82601f830112615e7657615e75614fa5565b5b8135615e86848260208601615dfa565b91505092915050565b5f67ffffffffffffffff821115615ea957615ea8614fbd565b5b602082029050602081019050919050565b5f615ecc615ec784615e8f565b61501b565b90508083825260208201905060208402830185811115615eef57615eee615df6565b5b835b81811015615f185780615f048882615102565b845260208401935050602081019050615ef1565b5050509392505050565b5f82601f830112615f3657615f35614fa5565b5b8135615f46848260208601615eba565b91505092915050565b5f5f60408385031215615f6557615f64614f6a565b5b5f83013567ffffffffffffffff811115615f8257615f81614f6e565b5b615f8e85828601615e62565b925050602083013567ffffffffffffffff811115615faf57615fae614f6e565b5b615fbb85828601615f22565b9150509250929050565b5f5f5f60608486031215615fdc57615fdb614f6a565b5b5f615fe986828701614f91565b9350506020615ffa86828701614f91565b925050604061600b86828701614f91565b9150509250925092565b5f60c0820190506160285f830189615535565b818103602083015261603a8188615554565b90506160496040830187615535565b6160566060830186615535565b616063608083018561582b565b61607060a083018461582b565b979650505050505050565b5f61012083015f8301518482035f8601526160968282615227565b91505060208301516160ab60208601826151f0565b50604083015184820360408601526160c38282615227565b91505060608301516160d8606086018261525f565b5060808301516160eb608086018261536d565b5060a08301516160fe60a08601826151f0565b5060c083015161611160c08601826151f0565b5060e083015161612460e08601826151f0565b506101008301516161396101008601826151f0565b508091505092915050565b5f6020820190508181035f83015261615c818461607b565b905092915050565b5f5f5f5f5f5f60c0878903121561617e5761617d614f6a565b5b5f61618b89828a01614f91565b965050602087013567ffffffffffffffff8111156161ac576161ab614f6e565b5b6161b889828a016150b4565b95505060406161c989828a01614f91565b94505060606161da89828a01614f91565b93505060806161eb89828a01615102565b92505060a06161fc89828a01615102565b9150509295509295509295565b7f414920706c6179657220646f6573206e6f7420657869737400000000000000005f82015250565b5f61623d601883615544565b915061624882616209565b602082019050919050565b5f6020820190508181035f83015261626a81616231565b9050919050565b7f496e76616c696420736b696c6c206c6576656c000000000000000000000000005f82015250565b5f6162a5601383615544565b91506162b082616271565b602082019050919050565b5f6020820190508181035f8301526162d281616299565b9050919050565b7f4e487b71000000000000000000000000000000000000000000000000000000005f52602260045260245ffd5b5f600282049050600182168061631d57607f821691505b6020821081036163305761632f6162d9565b5b50919050565b5f819050815f5260205f209050919050565b5f6020601f8301049050919050565b5f82821b905092915050565b5f600883026163927fffffffffffffffffffffffffffffffffffffffffffffffffffffffffffffffff82616357565b61639c8683616357565b95508019841693508086168417925050509392505050565b5f819050919050565b5f6163d76163d26163cd84614f72565b6163b4565b614f72565b9050919050565b5f819050919050565b6163f0836163bd565b6164046163fc826163de565b848454616363565b825550505050565b5f5f905090565b61641b61640c565b6164268184846163e7565b505050565b5b818110156164495761643e5f82616413565b60018101905061642c565b5050565b601f82111561648e5761645f81616336565b61646884616348565b81016020851015616477578190505b61648b61648385616348565b83018261642b565b50505b505050565b5f82821c905092915050565b5f6164ae5f1984600802616493565b1980831691505092915050565b5f6164c6838361649f565b9150826002028217905092915050565b6164df826151ff565b67ffffffffffffffff8111156164f8576164f7614fbd565b5b6165028254616306565b61650d82828561644d565b5f60209050601f83116001811461653e575f841561652c578287015190505b61653685826164bb565b86555061659d565b601f19841661654c86616336565b5f5b828110156165735784890151825560018201915060208501945060208101905061654e565b86831015616590578489015161658c601f89168261649f565b8355505b6001600288020188555050505b505050505050565b7f4e487b71000000000000000000000000000000000000000000000000000000005f52601160045260245ffd5b5f6165dc82614f72565b91506165e783614f72565b92508282039050818111156165ff576165fe6165a5565b5b92915050565b7f4e487b71000000000000000000000000000000000000000000000000000000005f52603260045260245ffd5b5f61663c82614f72565b91507fffffffffffffffffffffffffffffffffffffffffffffffffffffffffffffffff820361666e5761666d6165a5565b5b600182019050919050565b7f414920706c61796572206e6f74206163746976650000000000000000000000005f82015250565b5f6166ad601483615544565b91506166b882616679565b602082019050919050565b5f6020820190508181035f8301526166da816166a1565b9050919050565b7f414920616c726561647920696e20746869732067616d650000000000000000005f82015250565b5f616715601783615544565b9150616720826166e1565b602082019050919050565b5f6020820190508181035f83015261674281616709565b9050919050565b7f41492061647669736f72206e6f742061637469766500000000000000000000005f82015250565b5f61677d601583615544565b915061678882616749565b602082019050919050565b5f6020820190508181035f8301526167aa81616771565b9050919050565b5f6167bb82614f72565b91506167c683614f72565b92508282019050808211156167de576167dd6165a5565b5b92915050565b7f4149206e6f7420696e20746869732067616d65000000000000000000000000005f82015250565b5f616818601383615544565b9150616823826167e4565b602082019050919050565b5f6020820190508181035f8301526168458161680c565b9050919050565b7f4e487b71000000000000000000000000000000000000000000000000000000005f52603160045260245ffd5b7f496e73756666696369656e742041492062616c616e63650000000000000000005f82015250565b5f6168ad601783615544565b91506168b882616879565b602082019050919050565b5f6020820190508181035f8301526168da816168a1565b9050919050565b5f81905092915050565b50565b5f6168f95f836168e1565b9150616904826168eb565b5f82019050919050565b5f616918826168ee565b9150819050919050565b7f4149206561726e696e6773207769746864726177616c206661696c65640000005f82015250565b5f616956601d83615544565b915061696182616922565b602082019050919050565b5f6020820190508181035f8301526169838161694a565b9050919050565b7f496e76616c69642067616d6520737461746500000000000000000000000000005f82015250565b5f6169be601283615544565b91506169c98261698a565b602082019050919050565b5f6020820190508181035f8301526169eb816169b2565b9050919050565b5f6169fc82614f72565b9150616a0783614f72565b9250828202616a1581614f72565b91508282048414831517616a2c57616a2b6165a5565b5b5092915050565b7f4e487b71000000000000000000000000000000000000000000000000000000005f52601260045260245ffd5b5f616a6a82614f72565b9150616a7583614f72565b925082616a8557616a84616a33565b5b828204905092915050565b7f496e76616c6964204149207369676e61747572650000000000000000000000005f82015250565b5f616ac4601483615544565b9150616acf82616a90565b602082019050919050565b5f6020820190508181035f830152616af181616ab8565b9050919050565b7f4e6f7420617574686f72697a65640000000000000000000000000000000000005f82015250565b5f616b2c600e83615544565b9150616b3782616af8565b602082019050919050565b5f6020820190508181035f830152616b5981616b20565b9050919050565b7f4172726179206c656e677468206d69736d6174636800000000000000000000005f82015250565b5f616b94601583615544565b9150616b9f82616b60565b602082019050919050565b5f6020820190508181035f830152616bc181616b88565b9050919050565b7f496e76616c6964204149204944000000000000000000000000000000000000005f82015250565b5f616bfc600d83615544565b9150616c0782616bc8565b602082019050919050565b5f6020820190508181035f830152616c2981616bf0565b9050919050565b7f456d657267656e6379207769746864726177616c206661696c656400000000005f82015250565b5f616c64601b83615544565b9150616c6f82616c30565b602082019050919050565b5f6020820190508181035f830152616c9181616c58565b9050919050565b7f496e76616c696420737472617465677920706172616d657465727300000000005f82015250565b5f616ccc601b83615544565b9150616cd782616c98565b602082019050919050565b5f6020820190508181035f830152616cf981616cc0565b9050919050565b5f6020820190508181035f830152616d188184615554565b905092915050565b5f81905092915050565b7f5a65726f53756d414900000000000000000000000000000000000000000000005f82015250565b5f616d5e600983616d20565b9150616d6982616d2a565b600982019050919050565b5f819050919050565b616d8e616d8982614f72565b616d74565b82525050565b5f616d9e82616d52565b9150616daa8285616d7d565b602082019150616dba8284616d7d565b6020820191508190509392505050565b5f6060820190508181035f830152616de28186615554565b9050616df16020830185615535565b616dfe604083018461583a565b949350505050565b5f8160601b9050919050565b5f616e1c82616e06565b9050919050565b5f616e2d82616e12565b9050919050565b616e45616e408261535c565b616e23565b82525050565b5f616e568287616d7d565b602082019150616e668286616d7d565b602082019150616e768285616d7d565b602082019150616e868284616e34565b60148201915081905095945050505050565b7f19457468657265756d205369676e6564204d6573736167653a0a3332000000005f82015250565b5f616ecc601c83616d20565b9150616ed782616e98565b601c82019050919050565b5f819050919050565b5f819050919050565b616f05616f0082616ee2565b616eeb565b82525050565b5f616f1582616ec0565b9150616f218284616ef4565b60208201915081905092915050565b616f3981616ee2565b82525050565b5f60ff82169050919050565b616f5481616f3f565b82525050565b5f608082019050616f6d5f830187616f30565b616f7a6020830186616f4b565b616f876040830185616f30565b616f946060830184616f30565b95945050505050565b5f616fa782614f72565b9150616fb283614f72565b925082616fc257616fc1616a33565b5b828206905092915050565b5f616fd88285616d7d565b602082019150616fe88284616d7d565b6020820191508190509392505050565b5f6170038286616d7d565b6020820191506170138285616d7d565b6020820191506170238284616d7d565b602082019150819050949350505050565b7f496e76616c6964207369676e6174757265206c656e67746800000000000000005f82015250565b5f617068601883615544565b915061707382617034565b602082019050919050565b5f6020820190508181035f8301526170958161705c565b905091905056fe4865757269737469633a20506c6179696e672073616665206e656172207a65726f4865757269737469633a2042616c616e6365642070657263656e7461676520706c61794f7074696d616c3a2054616b652032302520746f206d61696e7461696e2077696e6e696e6720706f736974696f6e4865757269737469633a2041676772657373697665206561726c792067616d6520706c61794f7074696d616c3a204d6f766520746f20707574206f70706f6e656e7420696e206c6f73696e6720706f736974696f6e4f7074696d616c3a20466f726365206f70706f6e656e7420746f20666163652031a2646970667358221220539a55aa58fccfdad051794f0db695a9d4caa62143c957b0bbbcba6140dfc2dc64736f6c634300081c00334d617468656d61746963616c2067656e6975732077686f2063616c63756c61746573206f7074696d616c206d6f766573436f6e73657276617469766520706c61796572207769746820636f6e73697374656e742c20736166652073747261746567794149207468617420747269657320746f206d69736c656164206f70706f6e656e7473207769746820756e6578706563746564206d6f766573426567696e6e65722041492074686174206d616b6573206f6276696f7573206d697374616b65734368616f74696320706c617965722077686f206d616b65732077696c642c20756e7072656469637461626c65206d6f7665734149207468617420616461707473207374726174656779206261736564206f6e206f70706f6e656e74206265686176696f72486967682d7269736b2c20686967682d7265776172642067616d626c65722077686f20676f657320666f722062696720706c6179734e6561722d70657266656374204149207468617420616c6d6f7374206e65766572206d616b6573206d697374616b6573","linkReferences":{}},"methodIdentifiers":{"addAIToGame(uint256,uint256)":"121e3a87","addressToAIId(address)":"9575af1f","aiAvailableBalance(uint256)":"9e32d311","aiBackendSigner()":"f1a24d8c","aiGameCurrentPlayer(uint256)":"8c1fcf41","aiGameStates(uint256)":"5c2edcc5","aiMoveHistory(uint256,uint256)":"a0f40a04","aiPlayerCounter()":"d7837bce","aiPlayers(uint256)":"355dc87e","aiStrategies(uint256)":"bdd679ae","aiTotalEarnings(uint256)":"9b057618","bulkUpdateAIActivity(uint256[],bool[])":"b8dfdffc","calculateAIMove(uint256,uint256)":"511093ba","createCustomAIPlayer(string,uint256,string)":"24c7cad7","emergencyWithdraw()":"db2e21bc","executeAIMove(uint256,uint256,uint256,bytes)":"6f0ce7c0","fundAIPlayer(uint256)":"24964ba6","gameAIPlayers(uint256,uint256)":"2cf33bc6","gameContract()":"d3f33009","getAILeaderboard()":"6221b91a","getAIMoveAdvice(uint256,uint256)":"1a91eb70","getAIMoveHistory(uint256)":"74589574","getAIPlayer(uint256)":"ee82c3ab","getAIStats(uint256)":"83c018cf","getAIStrategy(uint256)":"07034fd9","getActiveAIPlayers()":"599a8e73","getAllAIPlayers()":"0c8e72e9","getGameAIPlayers(uint256)":"9cf2d8d5","getMultipleAIAdvice(uint256)":"2a3a4216","isAIInGame(uint256,uint256)":"5c0f5745","owner()":"8da5cb5b","recordAIGameResult(uint256,uint256,uint256)":"bdac72d3","removeAIFromGame(uint256,uint256)":"27c2950e","renounceOwnership()":"715018a6","setAIBackendSigner(address)":"8851483a","setGameContract(address)":"405ebd4d","transferOwnership(address)":"f2fde38b","updateAIPlayer(uint256,string,uint256,string,bool)":"056afdfa","updateAIStrategy(uint256,string,uint256,uint256,bool,bool)":"f614647b","updateGameState(uint256,uint256,address)":"861d1fcb","withdrawAIEarnings(uint256,uint256)":"390278db"},"id":25}