{"abi":[{"type":"constructor","inputs":[],"stateMutability":"nonpayable"},{"type":"function","name":"cancel","inputs":[{"name":"_id","type":"uint256","internalType":"uint256"}],"outputs":[],"stateMutability":"nonpayable"},{"type":"function","name":"counter","inputs":[],"outputs":[{"name":"","type":"uint256","internalType":"uint256"}],"stateMutability":"view"},{"type":"function","name":"create","inputs":[{"name":"_name","type":"string","internalType":"string"},{"name":"_fee","type":"uint256","internalType":"uint256"},{"name":"_maxPart","type":"uint256","internalType":"uint256"},{"name":"_mode","type":"uint8","internalType":"enum ZeroSumTournament.Mode"},{"name":"_hours","type":"uint256","internalType":"uint256"}],"outputs":[{"name":"","type":"uint256","internalType":"uint256"}],"stateMutability":"nonpayable"},{"type":"function","name":"earnings","inputs":[{"name":"","type":"address","internalType":"address"}],"outputs":[{"name":"","type":"uint256","internalType":"uint256"}],"stateMutability":"view"},{"type":"function","name":"emergency","inputs":[],"outputs":[],"stateMutability":"nonpayable"},{"type":"function","name":"fee","inputs":[],"outputs":[{"name":"","type":"uint256","internalType":"uint256"}],"stateMutability":"view"},{"type":"function","name":"getParticipants","inputs":[{"name":"_id","type":"uint256","internalType":"uint256"}],"outputs":[{"name":"","type":"address[]","internalType":"address[]"}],"stateMutability":"view"},{"type":"function","name":"getRoundMatches","inputs":[{"name":"_id","type":"uint256","internalType":"uint256"},{"name":"_round","type":"uint256","internalType":"uint256"}],"outputs":[{"name":"","type":"tuple[]","internalType":"struct ZeroSumTournament.Match[]","components":[{"name":"p1","type":"address","internalType":"address"},{"name":"p2","type":"address","internalType":"address"},{"name":"winner","type":"address","internalType":"address"},{"name":"done","type":"bool","internalType":"bool"}]}],"stateMutability":"view"},{"type":"function","name":"getStats","inputs":[{"name":"_player","type":"address","internalType":"address"}],"outputs":[{"name":"","type":"uint256","internalType":"uint256"},{"name":"","type":"uint256","internalType":"uint256"},{"name":"","type":"uint256","internalType":"uint256"},{"name":"","type":"uint256","internalType":"uint256"}],"stateMutability":"view"},{"type":"function","name":"getTournament","inputs":[{"name":"_id","type":"uint256","internalType":"uint256"}],"outputs":[{"name":"","type":"tuple","internalType":"struct ZeroSumTournament.Tournament","components":[{"name":"id","type":"uint64","internalType":"uint64"},{"name":"entryFee","type":"uint64","internalType":"uint64"},{"name":"maxParticipants","type":"uint32","internalType":"uint32"},{"name":"prizePool","type":"uint64","internalType":"uint64"},{"name":"deadline","type":"uint32","internalType":"uint32"},{"name":"status","type":"uint8","internalType":"enum ZeroSumTournament.Status"},{"name":"mode","type":"uint8","internalType":"enum ZeroSumTournament.Mode"},{"name":"currentRound","type":"uint8","internalType":"uint8"},{"name":"totalRounds","type":"uint8","internalType":"uint8"},{"name":"winner","type":"address","internalType":"address"}]}],"stateMutability":"view"},{"type":"function","name":"getUIInfo","inputs":[{"name":"_id","type":"uint256","internalType":"uint256"}],"outputs":[{"name":"entryFee","type":"uint256","internalType":"uint256"},{"name":"prizePool","type":"uint256","internalType":"uint256"},{"name":"partCount","type":"uint256","internalType":"uint256"},{"name":"maxParticipants","type":"uint256","internalType":"uint256"},{"name":"timeLeft","type":"uint256","internalType":"uint256"},{"name":"status","type":"uint8","internalType":"enum ZeroSumTournament.Status"},{"name":"mode","type":"uint8","internalType":"enum ZeroSumTournament.Mode"}],"stateMutability":"view"},{"type":"function","name":"getUpcoming","inputs":[],"outputs":[{"name":"","type":"uint256[]","internalType":"uint256[]"}],"stateMutability":"view"},{"type":"function","name":"join","inputs":[{"name":"_id","type":"uint256","internalType":"uint256"}],"outputs":[],"stateMutability":"payable"},{"type":"function","name":"joined","inputs":[{"name":"","type":"uint256","internalType":"uint256"},{"name":"","type":"address","internalType":"address"}],"outputs":[{"name":"","type":"bool","internalType":"bool"}],"stateMutability":"view"},{"type":"function","name":"matches","inputs":[{"name":"","type":"uint256","internalType":"uint256"},{"name":"","type":"uint256","internalType":"uint256"},{"name":"","type":"uint256","internalType":"uint256"}],"outputs":[{"name":"p1","type":"address","internalType":"address"},{"name":"p2","type":"address","internalType":"address"},{"name":"winner","type":"address","internalType":"address"},{"name":"done","type":"bool","internalType":"bool"}],"stateMutability":"view"},{"type":"function","name":"maxPart","inputs":[],"outputs":[{"name":"","type":"uint256","internalType":"uint256"}],"stateMutability":"view"},{"type":"function","name":"minPart","inputs":[],"outputs":[{"name":"","type":"uint256","internalType":"uint256"}],"stateMutability":"view"},{"type":"function","name":"owner","inputs":[],"outputs":[{"name":"","type":"address","internalType":"address"}],"stateMutability":"view"},{"type":"function","name":"participants","inputs":[{"name":"","type":"uint256","internalType":"uint256"},{"name":"","type":"uint256","internalType":"uint256"}],"outputs":[{"name":"","type":"address","internalType":"address"}],"stateMutability":"view"},{"type":"function","name":"played","inputs":[{"name":"","type":"address","internalType":"address"}],"outputs":[{"name":"","type":"uint256","internalType":"uint256"}],"stateMutability":"view"},{"type":"function","name":"recordResult","inputs":[{"name":"_id","type":"uint256","internalType":"uint256"},{"name":"_round","type":"uint256","internalType":"uint256"},{"name":"_matchIdx","type":"uint256","internalType":"uint256"},{"name":"_winner","type":"address","internalType":"address"}],"outputs":[],"stateMutability":"nonpayable"},{"type":"function","name":"renounceOwnership","inputs":[],"outputs":[],"stateMutability":"nonpayable"},{"type":"function","name":"setFee","inputs":[{"name":"_fee","type":"uint256","internalType":"uint256"}],"outputs":[],"stateMutability":"nonpayable"},{"type":"function","name":"setLimits","inputs":[{"name":"_min","type":"uint256","internalType":"uint256"},{"name":"_max","type":"uint256","internalType":"uint256"}],"outputs":[],"stateMutability":"nonpayable"},{"type":"function","name":"tournaments","inputs":[{"name":"","type":"uint256","internalType":"uint256"}],"outputs":[{"name":"id","type":"uint64","internalType":"uint64"},{"name":"entryFee","type":"uint64","internalType":"uint64"},{"name":"maxParticipants","type":"uint32","internalType":"uint32"},{"name":"prizePool","type":"uint64","internalType":"uint64"},{"name":"deadline","type":"uint32","internalType":"uint32"},{"name":"status","type":"uint8","internalType":"enum ZeroSumTournament.Status"},{"name":"mode","type":"uint8","internalType":"enum ZeroSumTournament.Mode"},{"name":"currentRound","type":"uint8","internalType":"uint8"},{"name":"totalRounds","type":"uint8","internalType":"uint8"},{"name":"winner","type":"address","internalType":"address"}],"stateMutability":"view"},{"type":"function","name":"transferOwnership","inputs":[{"name":"newOwner","type":"address","internalType":"address"}],"outputs":[],"stateMutability":"nonpayable"},{"type":"function","name":"won","inputs":[{"name":"","type":"address","internalType":"address"}],"outputs":[{"name":"","type":"uint256","internalType":"uint256"}],"stateMutability":"view"},{"type":"event","name":"Created","inputs":[{"name":"id","type":"uint256","indexed":true,"internalType":"uint256"},{"name":"mode","type":"uint8","indexed":false,"internalType":"enum ZeroSumTournament.Mode"},{"name":"entryFee","type":"uint256","indexed":false,"internalType":"uint256"},{"name":"maxPart","type":"uint256","indexed":false,"internalType":"uint256"}],"anonymous":false},{"type":"event","name":"Finished","inputs":[{"name":"id","type":"uint256","indexed":true,"internalType":"uint256"},{"name":"winner","type":"address","indexed":true,"internalType":"address"},{"name":"prize","type":"uint256","indexed":false,"internalType":"uint256"}],"anonymous":false},{"type":"event","name":"Joined","inputs":[{"name":"id","type":"uint256","indexed":true,"internalType":"uint256"},{"name":"player","type":"address","indexed":true,"internalType":"address"}],"anonymous":false},{"type":"event","name":"MatchDone","inputs":[{"name":"id","type":"uint256","indexed":true,"internalType":"uint256"},{"name":"round","type":"uint256","indexed":false,"internalType":"uint256"},{"name":"winner","type":"address","indexed":false,"internalType":"address"},{"name":"loser","type":"address","indexed":false,"internalType":"address"}],"anonymous":false},{"type":"event","name":"OwnershipTransferred","inputs":[{"name":"previousOwner","type":"address","indexed":true,"internalType":"address"},{"name":"newOwner","type":"address","indexed":true,"internalType":"address"}],"anonymous":false},{"type":"event","name":"Started","inputs":[{"name":"id","type":"uint256","indexed":true,"internalType":"uint256"},{"name":"participants","type":"uint256","indexed":false,"internalType":"uint256"}],"anonymous":false},{"type":"error","name":"OwnableInvalidOwner","inputs":[{"name":"owner","type":"address","internalType":"address"}]},{"type":"error","name":"OwnableUnauthorizedAccount","inputs":[{"name":"account","type":"address","internalType":"address"}]},{"type":"error","name":"ReentrancyGuardReentrantCall","inputs":[]}],"bytecode":{"object":"0x6080604052600a80556004600b556040600c5534801561001d575f5ffd5b503360015f819055505f73ffffffffffffffffffffffffffffffffffffffff168173ffffffffffffffffffffffffffffffffffffffff1603610096575f6040517f1e4fbdf700000000000000000000000000000000000000000000000000000000815260040161008d919061075e565b60405180910390fd5b6100a5816100b960201b60201c565b506100b461017c60201b60201c565b610b5f565b5f60015f9054906101000a900473ffffffffffffffffffffffffffffffffffffffff1690508160015f6101000a81548173ffffffffffffffffffffffffffffffffffffffff021916908373ffffffffffffffffffffffffffffffffffffffff1602179055508173ffffffffffffffffffffffffffffffffffffffff168173ffffffffffffffffffffffffffffffffffffffff167f8be0079c531659141344cd1fd0a4f28419497f9722a3daafe3b4186f6b6457e060405160405180910390a35050565b6101cf6040518060400160405280600f81526020017f4d797374657279204d617374657273000000000000000000000000000000000081525067016345785d8a000060206002600361027860201b60201c565b506102236040518060400160405280600c81526020017f48617264636f72652043757000000000000000000000000000000000000000008152506706f05b59d3b2000060106003600261027860201b60201c565b506102756040518060400160405280600a81526020017f4c617374205374616e640000000000000000000000000000000000000000000081525066b1a2bc2ec50000604060048061027860201b60201c565b50565b5f600b54841015801561028d5750600c548411155b6102cc576040517f08c379a00000000000000000000000000000000000000000000000000000000081526004016102c3906107d1565b60405180910390fd5b6102db846106bc60201b60201c565b61031a576040517f08c379a000000000000000000000000000000000000000000000000000000000815260040161031190610839565b60405180910390fd5b6001821015801561032c575060a88211155b61036b576040517f08c379a0000000000000000000000000000000000000000000000000000000008152600401610362906108a1565b60405180910390fd5b5f85116103ad576040517f08c379a00000000000000000000000000000000000000000000000000000000081526004016103a490610909565b60405180910390fd5b60095f8154809291906103bf9061095d565b919050555060405180610140016040528060095467ffffffffffffffff1681526020018667ffffffffffffffff1681526020018563ffffffff1681526020015f67ffffffffffffffff168152602001610e108461041c91906109a4565b4261042791906109e5565b63ffffffff1681526020015f600381111561044557610444610a18565b5b815260200184600481111561045d5761045c610a18565b5b81526020015f60ff16815260200161047a866106e060201b60201c565b60ff1681526020015f73ffffffffffffffffffffffffffffffffffffffff1681525060025f60095481526020019081526020015f205f820151815f015f6101000a81548167ffffffffffffffff021916908367ffffffffffffffff1602179055506020820151815f0160086101000a81548167ffffffffffffffff021916908367ffffffffffffffff1602179055506040820151815f0160106101000a81548163ffffffff021916908363ffffffff1602179055506060820151815f0160146101000a81548167ffffffffffffffff021916908367ffffffffffffffff1602179055506080820151815f01601c6101000a81548163ffffffff021916908363ffffffff16021790555060a0820151816001015f6101000a81548160ff021916908360038111156105ad576105ac610a18565b5b021790555060c08201518160010160016101000a81548160ff021916908360048111156105dd576105dc610a18565b5b021790555060e08201518160010160026101000a81548160ff021916908360ff1602179055506101008201518160010160036101000a81548160ff021916908360ff1602179055506101208201518160010160046101000a81548173ffffffffffffffffffffffffffffffffffffffff021916908373ffffffffffffffffffffffffffffffffffffffff1602179055509050506009547fb119e7cc1f933b6c1d5bc4c27d5aa4f16a28f41c44d020ebdee0a531541a5f808487876040516106a693929190610a9a565b60405180910390a2600954905095945050505050565b5f5f821180156106d957505f6001836106d59190610acf565b8316145b9050919050565b5f5f5f90505f8390505b6001811115610715576002816107009190610b2f565b9050818061070d9061095d565b9250506106ea565b8192505050919050565b5f73ffffffffffffffffffffffffffffffffffffffff82169050919050565b5f6107488261071f565b9050919050565b6107588161073e565b82525050565b5f6020820190506107715f83018461074f565b92915050565b5f82825260208201905092915050565b7f496e76616c69642073697a6500000000000000000000000000000000000000005f82015250565b5f6107bb600c83610777565b91506107c682610787565b602082019050919050565b5f6020820190508181035f8301526107e8816107af565b9050919050565b7f4d75737420626520706f776572206f66203200000000000000000000000000005f82015250565b5f610823601283610777565b915061082e826107ef565b602082019050919050565b5f6020820190508181035f83015261085081610817565b9050919050565b7f496e76616c69642074696d6500000000000000000000000000000000000000005f82015250565b5f61088b600c83610777565b915061089682610857565b602082019050919050565b5f6020820190508181035f8301526108b88161087f565b9050919050565b7f46656520726571756972656400000000000000000000000000000000000000005f82015250565b5f6108f3600c83610777565b91506108fe826108bf565b602082019050919050565b5f6020820190508181035f830152610920816108e7565b9050919050565b7f4e487b71000000000000000000000000000000000000000000000000000000005f52601160045260245ffd5b5f819050919050565b5f61096782610954565b91507fffffffffffffffffffffffffffffffffffffffffffffffffffffffffffffffff820361099957610998610927565b5b600182019050919050565b5f6109ae82610954565b91506109b983610954565b92508282026109c781610954565b915082820484148315176109de576109dd610927565b5b5092915050565b5f6109ef82610954565b91506109fa83610954565b9250828201905080821115610a1257610a11610927565b5b92915050565b7f4e487b71000000000000000000000000000000000000000000000000000000005f52602160045260245ffd5b60058110610a5657610a55610a18565b5b50565b5f819050610a6682610a45565b919050565b5f610a7582610a59565b9050919050565b610a8581610a6b565b82525050565b610a9481610954565b82525050565b5f606082019050610aad5f830186610a7c565b610aba6020830185610a8b565b610ac76040830184610a8b565b949350505050565b5f610ad982610954565b9150610ae483610954565b9250828203905081811115610afc57610afb610927565b5b92915050565b7f4e487b71000000000000000000000000000000000000000000000000000000005f52601260045260245ffd5b5f610b3982610954565b9150610b4483610954565b925082610b5457610b53610b02565b5b828204905092915050565b614a4180610b6c5f395ff3fe60806040526004361061019b575f3560e01c806381fb1fb4116100eb578063caa6fea411610089578063ebb15d2c11610063578063ebb15d2c146105f9578063f2fde38b14610623578063f310ed681461064b578063f5431fd31461068a5761019b565b8063caa6fea41461057d578063ddca3f4314610593578063def86bc6146105bd5761019b565b8063bea5fcc5116100c5578063bea5fcc51461049e578063c1e3bd3e146104da578063c23f85d614610516578063c4590d3f146105555761019b565b806381fb1fb4146104105780638da5cb5b1461044c578063b954ad34146104765761019b565b8063410966151161015857806369fe0e2d1161013257806369fe0e2d14610351578063715018a61461037957806371ee1aba1461038f5780637503e1b7146103cb5761019b565b806341096615146102af578063543fd313146102eb57806361bc221a146103275761019b565b8063049878f31461019f57806305338206146101bb5780631a5bd7fc146101e55780631cc60908146102215780633db967671461025d57806340e58ee514610287575b5f5ffd5b6101b960048036038101906101b4919061339c565b6106cc565b005b3480156101c6575f5ffd5b506101cf610b86565b6040516101dc91906133d6565b60405180910390f35b3480156101f0575f5ffd5b5061020b6004803603810190610206919061339c565b610b8c565b604051610218919061360c565b60405180910390f35b34801561022c575f5ffd5b5061024760048036038101906102429190613650565b610d99565b60405161025491906133d6565b60405180910390f35b348015610268575f5ffd5b50610271610dae565b60405161027e9190613732565b60405180910390f35b348015610292575f5ffd5b506102ad60048036038101906102a8919061339c565b610f27565b005b3480156102ba575f5ffd5b506102d560048036038101906102d09190613752565b61121b565b6040516102e291906138a5565b60405180910390f35b3480156102f6575f5ffd5b50610311600480360381019061030c9190613650565b6113b1565b60405161031e91906133d6565b60405180910390f35b348015610332575f5ffd5b5061033b6113c6565b60405161034891906133d6565b60405180910390f35b34801561035c575f5ffd5b506103776004803603810190610372919061339c565b6113cc565b005b348015610384575f5ffd5b5061038d611422565b005b34801561039a575f5ffd5b506103b560048036038101906103b09190613650565b611435565b6040516103c291906133d6565b60405180910390f35b3480156103d6575f5ffd5b506103f160048036038101906103ec919061339c565b61144a565b6040516104079a9998979695949392919061391f565b60405180910390f35b34801561041b575f5ffd5b5061043660048036038101906104319190613752565b611544565b60405161044391906139b9565b60405180910390f35b348015610457575f5ffd5b5061046061158c565b60405161046d91906139b9565b60405180910390f35b348015610481575f5ffd5b5061049c600480360381019061049791906139d2565b6115b4565b005b3480156104a9575f5ffd5b506104c460048036038101906104bf9190613a36565b61196c565b6040516104d19190613a83565b60405180910390f35b3480156104e5575f5ffd5b5061050060048036038101906104fb919061339c565b611996565b60405161050d9190613b44565b60405180910390f35b348015610521575f5ffd5b5061053c60048036038101906105379190613650565b611a32565b60405161054c9493929190613b64565b60405180910390f35b348015610560575f5ffd5b5061057b60048036038101906105769190613752565b611bdc565b005b348015610588575f5ffd5b50610591611ca1565b005b34801561059e575f5ffd5b506105a7611d5b565b6040516105b491906133d6565b60405180910390f35b3480156105c8575f5ffd5b506105e360048036038101906105de9190613d06565b611d61565b6040516105f091906133d6565b60405180910390f35b348015610604575f5ffd5b5061060d611d82565b60405161061a91906133d6565b60405180910390f35b34801561062e575f5ffd5b5061064960048036038101906106449190613650565b611d88565b005b348015610656575f5ffd5b50610671600480360381019061066c9190613d99565b611e0c565b6040516106819493929190613de9565b60405180910390f35b348015610695575f5ffd5b506106b060048036038101906106ab919061339c565b611ec7565b6040516106c39796959493929190613e2c565b60405180910390f35b6106d4612192565b5f60025f8381526020019081526020015f2090505f815f015f9054906101000a900467ffffffffffffffff1667ffffffffffffffff160361074a576040517f08c379a000000000000000000000000000000000000000000000000000000000815260040161074190613ef3565b60405180910390fd5b5f600381111561075d5761075c61342f565b5b816001015f9054906101000a900460ff1660038111156107805761077f61342f565b5b146107c0576040517f08c379a00000000000000000000000000000000000000000000000000000000081526004016107b790613f5b565b60405180910390fd5b805f01601c9054906101000a900463ffffffff1663ffffffff1642111561081c576040517f08c379a000000000000000000000000000000000000000000000000000000000815260040161081390613fc3565b60405180910390fd5b805f0160109054906101000a900463ffffffff1663ffffffff1660035f8481526020019081526020015f20805490501061088b576040517f08c379a00000000000000000000000000000000000000000000000000000000081526004016108829061402b565b60405180910390fd5b805f0160089054906101000a900467ffffffffffffffff1667ffffffffffffffff1634146108ee576040517f08c379a00000000000000000000000000000000000000000000000000000000081526004016108e590614093565b60405180910390fd5b60055f8381526020019081526020015f205f3373ffffffffffffffffffffffffffffffffffffffff1673ffffffffffffffffffffffffffffffffffffffff1681526020019081526020015f205f9054906101000a900460ff1615610987576040517f08c379a000000000000000000000000000000000000000000000000000000000815260040161097e906140fb565b60405180910390fd5b60035f8381526020019081526020015f2033908060018154018082558091505060019003905f5260205f20015f9091909190916101000a81548173ffffffffffffffffffffffffffffffffffffffff021916908373ffffffffffffffffffffffffffffffffffffffff16021790555034815f0160148282829054906101000a900467ffffffffffffffff16610a1c9190614146565b92506101000a81548167ffffffffffffffff021916908367ffffffffffffffff160217905550600160055f8481526020019081526020015f205f3373ffffffffffffffffffffffffffffffffffffffff1673ffffffffffffffffffffffffffffffffffffffff1681526020019081526020015f205f6101000a81548160ff02191690831515021790555060075f3373ffffffffffffffffffffffffffffffffffffffff1673ffffffffffffffffffffffffffffffffffffffff1681526020019081526020015f205f815480929190610af390614181565b91905055503373ffffffffffffffffffffffffffffffffffffffff16827fc0081eeafa0d002abcd7d58d84b6e688d1526b9c3d915a282212ba08c49a17a760405160405180910390a3805f0160109054906101000a900463ffffffff1663ffffffff1660035f8481526020019081526020015f208054905003610b7a57610b79826121d6565b5b50610b8361228d565b50565b600b5481565b610b946132a5565b60025f8381526020019081526020015f20604051806101400160405290815f82015f9054906101000a900467ffffffffffffffff1667ffffffffffffffff1667ffffffffffffffff1681526020015f820160089054906101000a900467ffffffffffffffff1667ffffffffffffffff1667ffffffffffffffff1681526020015f820160109054906101000a900463ffffffff1663ffffffff1663ffffffff1681526020015f820160149054906101000a900467ffffffffffffffff1667ffffffffffffffff1667ffffffffffffffff1681526020015f8201601c9054906101000a900463ffffffff1663ffffffff1663ffffffff168152602001600182015f9054906101000a900460ff166003811115610cb157610cb061342f565b5b6003811115610cc357610cc261342f565b5b81526020016001820160019054906101000a900460ff166004811115610cec57610ceb61342f565b5b6004811115610cfe57610cfd61342f565b5b81526020016001820160029054906101000a900460ff1660ff1660ff1681526020016001820160039054906101000a900460ff1660ff1660ff1681526020016001820160049054906101000a900473ffffffffffffffffffffffffffffffffffffffff1673ffffffffffffffffffffffffffffffffffffffff1673ffffffffffffffffffffffffffffffffffffffff16815250509050919050565b6007602052805f5260405f205f915090505481565b60605f5f90505f600190505b6009548111610e30575f6003811115610dd657610dd561342f565b5b60025f8381526020019081526020015f206001015f9054906101000a900460ff166003811115610e0957610e0861342f565b5b03610e1d578180610e1990614181565b9250505b8080610e2890614181565b915050610dba565b505f8167ffffffffffffffff811115610e4c57610e4b613bbf565b5b604051908082528060200260200182016040528015610e7a5781602001602082028036833780820191505090505b5090505f5f90505f600190505b6009548111610f1d575f6003811115610ea357610ea261342f565b5b60025f8381526020019081526020015f206001015f9054906101000a900460ff166003811115610ed657610ed561342f565b5b03610f0a5780838381518110610eef57610eee6141c8565b5b6020026020010181815250508180610f0690614181565b9250505b8080610f1590614181565b915050610e87565b5081935050505090565b610f2f612296565b5f60025f8381526020019081526020015f2090505f6003811115610f5657610f5561342f565b5b816001015f9054906101000a900460ff166003811115610f7957610f7861342f565b5b14610fb9576040517f08c379a0000000000000000000000000000000000000000000000000000000008152600401610fb09061423f565b60405180910390fd5b6003816001015f6101000a81548160ff02191690836003811115610fe057610fdf61342f565b5b02179055505f60035f8481526020019081526020015f2080548060200260200160405190810160405280929190818152602001828054801561107457602002820191905f5260205f20905b815f9054906101000a900473ffffffffffffffffffffffffffffffffffffffff1673ffffffffffffffffffffffffffffffffffffffff168152602001906001019080831161102b575b505050505090505f825f0160089054906101000a900467ffffffffffffffff1667ffffffffffffffff1690505f5f90505b82518110156111ea5760075f8483815181106110c4576110c36141c8565b5b602002602001015173ffffffffffffffffffffffffffffffffffffffff1673ffffffffffffffffffffffffffffffffffffffff1681526020019081526020015f205f8154809291906111159061425d565b91905055505f83828151811061112e5761112d6141c8565b5b602002602001015173ffffffffffffffffffffffffffffffffffffffff1683604051611159906142b1565b5f6040518083038185875af1925050503d805f8114611193576040519150601f19603f3d011682016040523d82523d5f602084013e611198565b606091505b50509050806111dc576040517f08c379a00000000000000000000000000000000000000000000000000000000081526004016111d39061430f565b60405180910390fd5b5080806001019150506110a5565b505f835f0160146101000a81548167ffffffffffffffff021916908367ffffffffffffffff16021790555050505050565b606060045f8481526020019081526020015f205f8381526020019081526020015f20805480602002602001604051908101604052809291908181526020015f905b828210156113a5578382905f5260205f2090600302016040518060800160405290815f82015f9054906101000a900473ffffffffffffffffffffffffffffffffffffffff1673ffffffffffffffffffffffffffffffffffffffff1673ffffffffffffffffffffffffffffffffffffffff168152602001600182015f9054906101000a900473ffffffffffffffffffffffffffffffffffffffff1673ffffffffffffffffffffffffffffffffffffffff1673ffffffffffffffffffffffffffffffffffffffff168152602001600282015f9054906101000a900473ffffffffffffffffffffffffffffffffffffffff1673ffffffffffffffffffffffffffffffffffffffff1673ffffffffffffffffffffffffffffffffffffffff1681526020016002820160149054906101000a900460ff1615151515815250508152602001906001019061125c565b50505050905092915050565b6008602052805f5260405f205f915090505481565b60095481565b6113d4612296565b6019811115611418576040517f08c379a000000000000000000000000000000000000000000000000000000000815260040161140f90614377565b60405180910390fd5b80600a8190555050565b61142a612296565b6114335f61231d565b565b6006602052805f5260405f205f915090505481565b6002602052805f5260405f205f91509050805f015f9054906101000a900467ffffffffffffffff1690805f0160089054906101000a900467ffffffffffffffff1690805f0160109054906101000a900463ffffffff1690805f0160149054906101000a900467ffffffffffffffff1690805f01601c9054906101000a900463ffffffff1690806001015f9054906101000a900460ff16908060010160019054906101000a900460ff16908060010160029054906101000a900460ff16908060010160039054906101000a900460ff16908060010160049054906101000a900473ffffffffffffffffffffffffffffffffffffffff1690508a565b6003602052815f5260405f20818154811061155d575f80fd5b905f5260205f20015f915091509054906101000a900473ffffffffffffffffffffffffffffffffffffffff1681565b5f60015f9054906101000a900473ffffffffffffffffffffffffffffffffffffffff16905090565b6115bc612296565b5f60025f8681526020019081526020015f209050600160038111156115e4576115e361342f565b5b816001015f9054906101000a900460ff1660038111156116075761160661342f565b5b14611647576040517f08c379a000000000000000000000000000000000000000000000000000000000815260040161163e906143df565b60405180910390fd5b8060010160029054906101000a900460ff1660ff16841461169d576040517f08c379a000000000000000000000000000000000000000000000000000000000815260040161169490614447565b60405180910390fd5b5f60045f8781526020019081526020015f205f8681526020019081526020015f2084815481106116d0576116cf6141c8565b5b905f5260205f20906003020190508060020160149054906101000a900460ff1615611730576040517f08c379a0000000000000000000000000000000000000000000000000000000008152600401611727906144af565b60405180910390fd5b805f015f9054906101000a900473ffffffffffffffffffffffffffffffffffffffff1673ffffffffffffffffffffffffffffffffffffffff168373ffffffffffffffffffffffffffffffffffffffff1614806117da5750806001015f9054906101000a900473ffffffffffffffffffffffffffffffffffffffff1673ffffffffffffffffffffffffffffffffffffffff168373ffffffffffffffffffffffffffffffffffffffff16145b611819576040517f08c379a000000000000000000000000000000000000000000000000000000000815260040161181090614517565b60405180910390fd5b82816002015f6101000a81548173ffffffffffffffffffffffffffffffffffffffff021916908373ffffffffffffffffffffffffffffffffffffffff16021790555060018160020160146101000a81548160ff0219169083151502179055505f815f015f9054906101000a900473ffffffffffffffffffffffffffffffffffffffff1673ffffffffffffffffffffffffffffffffffffffff168473ffffffffffffffffffffffffffffffffffffffff16146118f657815f015f9054906101000a900473ffffffffffffffffffffffffffffffffffffffff1661191b565b816001015f9054906101000a900473ffffffffffffffffffffffffffffffffffffffff165b9050867f8bc544b9ce409fec3bb6a7b3f3bafb9fa6c28102db099acf6810eca1ee4a0d9787868460405161195193929190614535565b60405180910390a261196387876123e0565b50505050505050565b6005602052815f5260405f20602052805f5260405f205f915091509054906101000a900460ff1681565b606060035f8381526020019081526020015f20805480602002602001604051908101604052809291908181526020018280548015611a2657602002820191905f5260205f20905b815f9054906101000a900473ffffffffffffffffffffffffffffffffffffffff1673ffffffffffffffffffffffffffffffffffffffff16815260200190600101908083116119dd575b50505050509050919050565b5f5f5f5f60075f8673ffffffffffffffffffffffffffffffffffffffff1673ffffffffffffffffffffffffffffffffffffffff1681526020019081526020015f205460065f8773ffffffffffffffffffffffffffffffffffffffff1673ffffffffffffffffffffffffffffffffffffffff1681526020019081526020015f205460085f8873ffffffffffffffffffffffffffffffffffffffff1673ffffffffffffffffffffffffffffffffffffffff1681526020019081526020015f20545f60075f8a73ffffffffffffffffffffffffffffffffffffffff1673ffffffffffffffffffffffffffffffffffffffff1681526020019081526020015f205411611b3a575f611bcd565b60075f8973ffffffffffffffffffffffffffffffffffffffff1673ffffffffffffffffffffffffffffffffffffffff1681526020019081526020015f2054606460065f8b73ffffffffffffffffffffffffffffffffffffffff1673ffffffffffffffffffffffffffffffffffffffff1681526020019081526020015f2054611bc2919061456a565b611bcc91906145d8565b5b93509350935093509193509193565b611be4612296565b60028210158015611bf757506101008111155b611c36576040517f08c379a0000000000000000000000000000000000000000000000000000000008152600401611c2d90614517565b60405180910390fd5b611c3f82612615565b8015611c505750611c4f81612615565b5b611c8f576040517f08c379a0000000000000000000000000000000000000000000000000000000008152600401611c8690614652565b60405180910390fd5b81600b8190555080600c819055505050565b611ca9612296565b5f611cb261158c565b73ffffffffffffffffffffffffffffffffffffffff1647604051611cd5906142b1565b5f6040518083038185875af1925050503d805f8114611d0f576040519150601f19603f3d011682016040523d82523d5f602084013e611d14565b606091505b5050905080611d58576040517f08c379a0000000000000000000000000000000000000000000000000000000008152600401611d4f906146ba565b60405180910390fd5b50565b600a5481565b5f611d6a612296565b611d778686868686612639565b905095945050505050565b600c5481565b611d90612296565b5f73ffffffffffffffffffffffffffffffffffffffff168173ffffffffffffffffffffffffffffffffffffffff1603611e00575f6040517f1e4fbdf7000000000000000000000000000000000000000000000000000000008152600401611df791906139b9565b60405180910390fd5b611e098161231d565b50565b6004602052825f5260405f20602052815f5260405f208181548110611e2f575f80fd5b905f5260205f2090600302015f925092505050805f015f9054906101000a900473ffffffffffffffffffffffffffffffffffffffff1690806001015f9054906101000a900473ffffffffffffffffffffffffffffffffffffffff1690806002015f9054906101000a900473ffffffffffffffffffffffffffffffffffffffff16908060020160149054906101000a900460ff16905084565b5f5f5f5f5f5f5f5f60025f8a81526020019081526020015f20604051806101400160405290815f82015f9054906101000a900467ffffffffffffffff1667ffffffffffffffff1667ffffffffffffffff1681526020015f820160089054906101000a900467ffffffffffffffff1667ffffffffffffffff1667ffffffffffffffff1681526020015f820160109054906101000a900463ffffffff1663ffffffff1663ffffffff1681526020015f820160149054906101000a900467ffffffffffffffff1667ffffffffffffffff1667ffffffffffffffff1681526020015f8201601c9054906101000a900463ffffffff1663ffffffff1663ffffffff168152602001600182015f9054906101000a900460ff166003811115611fec57611feb61342f565b5b6003811115611ffe57611ffd61342f565b5b81526020016001820160019054906101000a900460ff1660048111156120275761202661342f565b5b60048111156120395761203861342f565b5b81526020016001820160029054906101000a900460ff1660ff1660ff1681526020016001820160039054906101000a900460ff1660ff1660ff1681526020016001820160049054906101000a900473ffffffffffffffffffffffffffffffffffffffff1673ffffffffffffffffffffffffffffffffffffffff1673ffffffffffffffffffffffffffffffffffffffff16815250509050806020015167ffffffffffffffff169750806060015167ffffffffffffffff16965060035f8a81526020019081526020015f20805490509550806040015163ffffffff1694505f60038111156121285761212761342f565b5b8160a00151600381111561213f5761213e61342f565b5b1480156121555750806080015163ffffffff1642105b61215f575f612176565b42816080015163ffffffff1661217591906146d8565b5b93508060a0015192508060c00151915050919395979092949650565b60025f54036121cd576040517f3ee5aeb500000000000000000000000000000000000000000000000000000000815260040160405180910390fd5b60025f81905550565b5f60025f8381526020019081526020015f2090506001816001015f6101000a81548160ff021916908360038111156122115761221061342f565b5b021790555060018160010160026101000a81548160ff021916908360ff160217905550817f87ac41d581680567c1ef44614ddfa5522f853ea15b877693a35b1e4157cc309d60035f8581526020019081526020015f208054905060405161227891906133d6565b60405180910390a261228982612a71565b5050565b60015f81905550565b61229e612d0c565b73ffffffffffffffffffffffffffffffffffffffff166122bc61158c565b73ffffffffffffffffffffffffffffffffffffffff161461231b576122df612d0c565b6040517f118cdaa700000000000000000000000000000000000000000000000000000000815260040161231291906139b9565b60405180910390fd5b565b5f60015f9054906101000a900473ffffffffffffffffffffffffffffffffffffffff1690508160015f6101000a81548173ffffffffffffffffffffffffffffffffffffffff021916908373ffffffffffffffffffffffffffffffffffffffff1602179055508173ffffffffffffffffffffffffffffffffffffffff168173ffffffffffffffffffffffffffffffffffffffff167f8be0079c531659141344cd1fd0a4f28419497f9722a3daafe3b4186f6b6457e060405160405180910390a35050565b5f60045f8481526020019081526020015f205f8381526020019081526020015f2090505f5f90505b818054905081101561245c57818181548110612427576124266141c8565b5b905f5260205f20906003020160020160149054906101000a900460ff1661244f575050612611565b8080600101915050612408565b505f818054905067ffffffffffffffff81111561247c5761247b613bbf565b5b6040519080825280602002602001820160405280156124aa5781602001602082028036833780820191505090505b5090505f5f90505b828054905081101561255a578281815481106124d1576124d06141c8565b5b905f5260205f2090600302016002015f9054906101000a900473ffffffffffffffffffffffffffffffffffffffff16828281518110612513576125126141c8565b5b602002602001019073ffffffffffffffffffffffffffffffffffffffff16908173ffffffffffffffffffffffffffffffffffffffff168152505080806001019150506124b2565b505f60025f8681526020019081526020015f2090508060010160039054906101000a900460ff1660ff1684036125b3576125ae85835f815181106125a1576125a06141c8565b5b6020026020010151612d13565b61260d565b80600101600281819054906101000a900460ff16809291906125d49061470b565b91906101000a81548160ff021916908360ff1602179055505061260c85838360010160029054906101000a900460ff1660ff16613061565b5b5050505b5050565b5f5f8211801561263257505f60018361262e91906146d8565b8316145b9050919050565b5f600b54841015801561264e5750600c548411155b61268d576040517f08c379a00000000000000000000000000000000000000000000000000000000081526004016126849061477d565b60405180910390fd5b61269684612615565b6126d5576040517f08c379a00000000000000000000000000000000000000000000000000000000081526004016126cc906147e5565b60405180910390fd5b600182101580156126e7575060a88211155b612726576040517f08c379a000000000000000000000000000000000000000000000000000000000815260040161271d9061484d565b60405180910390fd5b5f8511612768576040517f08c379a000000000000000000000000000000000000000000000000000000000815260040161275f906148b5565b60405180910390fd5b60095f81548092919061277a90614181565b919050555060405180610140016040528060095467ffffffffffffffff1681526020018667ffffffffffffffff1681526020018563ffffffff1681526020015f67ffffffffffffffff168152602001610e10846127d7919061456a565b426127e291906148d3565b63ffffffff1681526020015f6003811115612800576127ff61342f565b5b81526020018460048111156128185761281761342f565b5b81526020015f60ff16815260200161282f86613266565b60ff1681526020015f73ffffffffffffffffffffffffffffffffffffffff1681525060025f60095481526020019081526020015f205f820151815f015f6101000a81548167ffffffffffffffff021916908367ffffffffffffffff1602179055506020820151815f0160086101000a81548167ffffffffffffffff021916908367ffffffffffffffff1602179055506040820151815f0160106101000a81548163ffffffff021916908363ffffffff1602179055506060820151815f0160146101000a81548167ffffffffffffffff021916908367ffffffffffffffff1602179055506080820151815f01601c6101000a81548163ffffffff021916908363ffffffff16021790555060a0820151816001015f6101000a81548160ff021916908360038111156129625761296161342f565b5b021790555060c08201518160010160016101000a81548160ff021916908360048111156129925761299161342f565b5b021790555060e08201518160010160026101000a81548160ff021916908360ff1602179055506101008201518160010160036101000a81548160ff021916908360ff1602179055506101208201518160010160046101000a81548173ffffffffffffffffffffffffffffffffffffffff021916908373ffffffffffffffffffffffffffffffffffffffff1602179055509050506009547fb119e7cc1f933b6c1d5bc4c27d5aa4f16a28f41c44d020ebdee0a531541a5f80848787604051612a5b93929190614906565b60405180910390a2600954905095945050505050565b5f60035f8381526020019081526020015f20805480602002602001604051908101604052809291908181526020018280548015612b0057602002820191905f5260205f20905b815f9054906101000a900473ffffffffffffffffffffffffffffffffffffffff1673ffffffffffffffffffffffffffffffffffffffff1681526020019060010190808311612ab7575b505050505090505f5f90505b8151811015612d075760045f8481526020019081526020015f205f600181526020019081526020015f206040518060800160405280848481518110612b5457612b536141c8565b5b602002602001015173ffffffffffffffffffffffffffffffffffffffff16815260200184600185612b8591906148d3565b81518110612b9657612b956141c8565b5b602002602001015173ffffffffffffffffffffffffffffffffffffffff1681526020015f73ffffffffffffffffffffffffffffffffffffffff1681526020015f1515815250908060018154018082558091505060019003905f5260205f2090600302015f909190919091505f820151815f015f6101000a81548173ffffffffffffffffffffffffffffffffffffffff021916908373ffffffffffffffffffffffffffffffffffffffff1602179055506020820151816001015f6101000a81548173ffffffffffffffffffffffffffffffffffffffff021916908373ffffffffffffffffffffffffffffffffffffffff1602179055506040820151816002015f6101000a81548173ffffffffffffffffffffffffffffffffffffffff021916908373ffffffffffffffffffffffffffffffffffffffff16021790555060608201518160020160146101000a81548160ff0219169083151502179055505050600281612d0091906148d3565b9050612b0c565b505050565b5f33905090565b5f60025f8481526020019081526020015f209050818160010160046101000a81548173ffffffffffffffffffffffffffffffffffffffff021916908373ffffffffffffffffffffffffffffffffffffffff1602179055506002816001015f6101000a81548160ff02191690836003811115612d9157612d9061342f565b5b021790555060065f8373ffffffffffffffffffffffffffffffffffffffff1673ffffffffffffffffffffffffffffffffffffffff1681526020019081526020015f205f815480929190612de390614181565b91905055505f6064600a54835f0160149054906101000a900467ffffffffffffffff1667ffffffffffffffff16612e1a919061456a565b612e2491906145d8565b90505f81835f0160149054906101000a900467ffffffffffffffff1667ffffffffffffffff16612e5491906146d8565b90508060085f8673ffffffffffffffffffffffffffffffffffffffff1673ffffffffffffffffffffffffffffffffffffffff1681526020019081526020015f205f828254612ea291906148d3565b925050819055505f8473ffffffffffffffffffffffffffffffffffffffff1682604051612ece906142b1565b5f6040518083038185875af1925050503d805f8114612f08576040519150601f19603f3d011682016040523d82523d5f602084013e612f0d565b606091505b5050905080612f51576040517f08c379a0000000000000000000000000000000000000000000000000000000008152600401612f4890614985565b60405180910390fd5b5f83111561300a57612f6161158c565b73ffffffffffffffffffffffffffffffffffffffff1683604051612f84906142b1565b5f6040518083038185875af1925050503d805f8114612fbe576040519150601f19603f3d011682016040523d82523d5f602084013e612fc3565b606091505b50508091505080613009576040517f08c379a0000000000000000000000000000000000000000000000000000000008152600401613000906149ed565b60405180910390fd5b5b8473ffffffffffffffffffffffffffffffffffffffff16867faf2bb36f0c1768b43962889aeacec480eb4a1adcb3def0cd80b77f86d19f40998460405161305191906133d6565b60405180910390a3505050505050565b5f5f90505b82518110156132605760045f8581526020019081526020015f205f8381526020019081526020015f2060405180608001604052808584815181106130ad576130ac6141c8565b5b602002602001015173ffffffffffffffffffffffffffffffffffffffff168152602001856001856130de91906148d3565b815181106130ef576130ee6141c8565b5b602002602001015173ffffffffffffffffffffffffffffffffffffffff1681526020015f73ffffffffffffffffffffffffffffffffffffffff1681526020015f1515815250908060018154018082558091505060019003905f5260205f2090600302015f909190919091505f820151815f015f6101000a81548173ffffffffffffffffffffffffffffffffffffffff021916908373ffffffffffffffffffffffffffffffffffffffff1602179055506020820151816001015f6101000a81548173ffffffffffffffffffffffffffffffffffffffff021916908373ffffffffffffffffffffffffffffffffffffffff1602179055506040820151816002015f6101000a81548173ffffffffffffffffffffffffffffffffffffffff021916908373ffffffffffffffffffffffffffffffffffffffff16021790555060608201518160020160146101000a81548160ff021916908315150217905550505060028161325991906148d3565b9050613066565b50505050565b5f5f5f90505f8390505b600181111561329b5760028161328691906145d8565b9050818061329390614181565b925050613270565b8192505050919050565b6040518061014001604052805f67ffffffffffffffff1681526020015f67ffffffffffffffff1681526020015f63ffffffff1681526020015f67ffffffffffffffff1681526020015f63ffffffff1681526020015f600381111561330c5761330b61342f565b5b81526020015f60048111156133245761332361342f565b5b81526020015f60ff1681526020015f60ff1681526020015f73ffffffffffffffffffffffffffffffffffffffff1681525090565b5f604051905090565b5f5ffd5b5f5ffd5b5f819050919050565b61337b81613369565b8114613385575f5ffd5b50565b5f8135905061339681613372565b92915050565b5f602082840312156133b1576133b0613361565b5b5f6133be84828501613388565b91505092915050565b6133d081613369565b82525050565b5f6020820190506133e95f8301846133c7565b92915050565b5f67ffffffffffffffff82169050919050565b61340b816133ef565b82525050565b5f63ffffffff82169050919050565b61342981613411565b82525050565b7f4e487b71000000000000000000000000000000000000000000000000000000005f52602160045260245ffd5b6004811061346d5761346c61342f565b5b50565b5f81905061347d8261345c565b919050565b5f61348c82613470565b9050919050565b61349c81613482565b82525050565b600581106134b3576134b261342f565b5b50565b5f8190506134c3826134a2565b919050565b5f6134d2826134b6565b9050919050565b6134e2816134c8565b82525050565b5f60ff82169050919050565b6134fd816134e8565b82525050565b5f73ffffffffffffffffffffffffffffffffffffffff82169050919050565b5f61352c82613503565b9050919050565b61353c81613522565b82525050565b61014082015f8201516135575f850182613402565b50602082015161356a6020850182613402565b50604082015161357d6040850182613420565b5060608201516135906060850182613402565b5060808201516135a36080850182613420565b5060a08201516135b660a0850182613493565b5060c08201516135c960c08501826134d9565b5060e08201516135dc60e08501826134f4565b506101008201516135f16101008501826134f4565b50610120820151613606610120850182613533565b50505050565b5f610140820190506136205f830184613542565b92915050565b61362f81613522565b8114613639575f5ffd5b50565b5f8135905061364a81613626565b92915050565b5f6020828403121561366557613664613361565b5b5f6136728482850161363c565b91505092915050565b5f81519050919050565b5f82825260208201905092915050565b5f819050602082019050919050565b6136ad81613369565b82525050565b5f6136be83836136a4565b60208301905092915050565b5f602082019050919050565b5f6136e08261367b565b6136ea8185613685565b93506136f583613695565b805f5b8381101561372557815161370c88826136b3565b9750613717836136ca565b9250506001810190506136f8565b5085935050505092915050565b5f6020820190508181035f83015261374a81846136d6565b905092915050565b5f5f6040838503121561376857613767613361565b5b5f61377585828601613388565b925050602061378685828601613388565b9150509250929050565b5f81519050919050565b5f82825260208201905092915050565b5f819050602082019050919050565b5f8115159050919050565b6137cd816137b9565b82525050565b608082015f8201516137e75f850182613533565b5060208201516137fa6020850182613533565b50604082015161380d6040850182613533565b50606082015161382060608501826137c4565b50505050565b5f61383183836137d3565b60808301905092915050565b5f602082019050919050565b5f61385382613790565b61385d818561379a565b9350613868836137aa565b805f5b8381101561389857815161387f8882613826565b975061388a8361383d565b92505060018101905061386b565b5085935050505092915050565b5f6020820190508181035f8301526138bd8184613849565b905092915050565b6138ce816133ef565b82525050565b6138dd81613411565b82525050565b6138ec81613482565b82525050565b6138fb816134c8565b82525050565b61390a816134e8565b82525050565b61391981613522565b82525050565b5f610140820190506139335f83018d6138c5565b613940602083018c6138c5565b61394d604083018b6138d4565b61395a606083018a6138c5565b61396760808301896138d4565b61397460a08301886138e3565b61398160c08301876138f2565b61398e60e0830186613901565b61399c610100830185613901565b6139aa610120830184613910565b9b9a5050505050505050505050565b5f6020820190506139cc5f830184613910565b92915050565b5f5f5f5f608085870312156139ea576139e9613361565b5b5f6139f787828801613388565b9450506020613a0887828801613388565b9350506040613a1987828801613388565b9250506060613a2a8782880161363c565b91505092959194509250565b5f5f60408385031215613a4c57613a4b613361565b5b5f613a5985828601613388565b9250506020613a6a8582860161363c565b9150509250929050565b613a7d816137b9565b82525050565b5f602082019050613a965f830184613a74565b92915050565b5f81519050919050565b5f82825260208201905092915050565b5f819050602082019050919050565b5f613ad08383613533565b60208301905092915050565b5f602082019050919050565b5f613af282613a9c565b613afc8185613aa6565b9350613b0783613ab6565b805f5b83811015613b37578151613b1e8882613ac5565b9750613b2983613adc565b925050600181019050613b0a565b5085935050505092915050565b5f6020820190508181035f830152613b5c8184613ae8565b905092915050565b5f608082019050613b775f8301876133c7565b613b8460208301866133c7565b613b9160408301856133c7565b613b9e60608301846133c7565b95945050505050565b5f5ffd5b5f5ffd5b5f601f19601f8301169050919050565b7f4e487b71000000000000000000000000000000000000000000000000000000005f52604160045260245ffd5b613bf582613baf565b810181811067ffffffffffffffff82111715613c1457613c13613bbf565b5b80604052505050565b5f613c26613358565b9050613c328282613bec565b919050565b5f67ffffffffffffffff821115613c5157613c50613bbf565b5b613c5a82613baf565b9050602081019050919050565b828183375f83830152505050565b5f613c87613c8284613c37565b613c1d565b905082815260208101848484011115613ca357613ca2613bab565b5b613cae848285613c67565b509392505050565b5f82601f830112613cca57613cc9613ba7565b5b8135613cda848260208601613c75565b91505092915050565b60058110613cef575f5ffd5b50565b5f81359050613d0081613ce3565b92915050565b5f5f5f5f5f60a08688031215613d1f57613d1e613361565b5b5f86013567ffffffffffffffff811115613d3c57613d3b613365565b5b613d4888828901613cb6565b9550506020613d5988828901613388565b9450506040613d6a88828901613388565b9350506060613d7b88828901613cf2565b9250506080613d8c88828901613388565b9150509295509295909350565b5f5f5f60608486031215613db057613daf613361565b5b5f613dbd86828701613388565b9350506020613dce86828701613388565b9250506040613ddf86828701613388565b9150509250925092565b5f608082019050613dfc5f830187613910565b613e096020830186613910565b613e166040830185613910565b613e236060830184613a74565b95945050505050565b5f60e082019050613e3f5f83018a6133c7565b613e4c60208301896133c7565b613e5960408301886133c7565b613e6660608301876133c7565b613e7360808301866133c7565b613e8060a08301856138e3565b613e8d60c08301846138f2565b98975050505050505050565b5f82825260208201905092915050565b7f4e6f7420666f756e6400000000000000000000000000000000000000000000005f82015250565b5f613edd600983613e99565b9150613ee882613ea9565b602082019050919050565b5f6020820190508181035f830152613f0a81613ed1565b9050919050565b7f436c6f73656400000000000000000000000000000000000000000000000000005f82015250565b5f613f45600683613e99565b9150613f5082613f11565b602082019050919050565b5f6020820190508181035f830152613f7281613f39565b9050919050565b7f45787069726564000000000000000000000000000000000000000000000000005f82015250565b5f613fad600783613e99565b9150613fb882613f79565b602082019050919050565b5f6020820190508181035f830152613fda81613fa1565b9050919050565b7f46756c6c000000000000000000000000000000000000000000000000000000005f82015250565b5f614015600483613e99565b915061402082613fe1565b602082019050919050565b5f6020820190508181035f83015261404281614009565b9050919050565b7f57726f6e672066656500000000000000000000000000000000000000000000005f82015250565b5f61407d600983613e99565b915061408882614049565b602082019050919050565b5f6020820190508181035f8301526140aa81614071565b9050919050565b7f416c7265616479206a6f696e65640000000000000000000000000000000000005f82015250565b5f6140e5600e83613e99565b91506140f0826140b1565b602082019050919050565b5f6020820190508181035f830152614112816140d9565b9050919050565b7f4e487b71000000000000000000000000000000000000000000000000000000005f52601160045260245ffd5b5f614150826133ef565b915061415b836133ef565b9250828201905067ffffffffffffffff81111561417b5761417a614119565b5b92915050565b5f61418b82613369565b91507fffffffffffffffffffffffffffffffffffffffffffffffffffffffffffffffff82036141bd576141bc614119565b5b600182019050919050565b7f4e487b71000000000000000000000000000000000000000000000000000000005f52603260045260245ffd5b7f43616e6e6f742063616e63656c000000000000000000000000000000000000005f82015250565b5f614229600d83613e99565b9150614234826141f5565b602082019050919050565b5f6020820190508181035f8301526142568161421d565b9050919050565b5f61426782613369565b91505f820361427957614278614119565b5b600182039050919050565b5f81905092915050565b50565b5f61429c5f83614284565b91506142a78261428e565b5f82019050919050565b5f6142bb82614291565b9150819050919050565b7f526566756e64206661696c6564000000000000000000000000000000000000005f82015250565b5f6142f9600d83613e99565b9150614304826142c5565b602082019050919050565b5f6020820190508181035f830152614326816142ed565b9050919050565b7f546f6f20686967680000000000000000000000000000000000000000000000005f82015250565b5f614361600883613e99565b915061436c8261432d565b602082019050919050565b5f6020820190508181035f83015261438e81614355565b9050919050565b7f4e6f7420616374697665000000000000000000000000000000000000000000005f82015250565b5f6143c9600a83613e99565b91506143d482614395565b602082019050919050565b5f6020820190508181035f8301526143f6816143bd565b9050919050565b7f57726f6e6720726f756e640000000000000000000000000000000000000000005f82015250565b5f614431600b83613e99565b915061443c826143fd565b602082019050919050565b5f6020820190508181035f83015261445e81614425565b9050919050565b7f446f6e65000000000000000000000000000000000000000000000000000000005f82015250565b5f614499600483613e99565b91506144a482614465565b602082019050919050565b5f6020820190508181035f8301526144c68161448d565b9050919050565b7f496e76616c6964000000000000000000000000000000000000000000000000005f82015250565b5f614501600783613e99565b915061450c826144cd565b602082019050919050565b5f6020820190508181035f83015261452e816144f5565b9050919050565b5f6060820190506145485f8301866133c7565b6145556020830185613910565b6145626040830184613910565b949350505050565b5f61457482613369565b915061457f83613369565b925082820261458d81613369565b915082820484148315176145a4576145a3614119565b5b5092915050565b7f4e487b71000000000000000000000000000000000000000000000000000000005f52601260045260245ffd5b5f6145e282613369565b91506145ed83613369565b9250826145fd576145fc6145ab565b5b828204905092915050565b7f506f776572206f662032000000000000000000000000000000000000000000005f82015250565b5f61463c600a83613e99565b915061464782614608565b602082019050919050565b5f6020820190508181035f83015261466981614630565b9050919050565b7f4661696c656400000000000000000000000000000000000000000000000000005f82015250565b5f6146a4600683613e99565b91506146af82614670565b602082019050919050565b5f6020820190508181035f8301526146d181614698565b9050919050565b5f6146e282613369565b91506146ed83613369565b925082820390508181111561470557614704614119565b5b92915050565b5f614715826134e8565b915060ff820361472857614727614119565b5b600182019050919050565b7f496e76616c69642073697a6500000000000000000000000000000000000000005f82015250565b5f614767600c83613e99565b915061477282614733565b602082019050919050565b5f6020820190508181035f8301526147948161475b565b9050919050565b7f4d75737420626520706f776572206f66203200000000000000000000000000005f82015250565b5f6147cf601283613e99565b91506147da8261479b565b602082019050919050565b5f6020820190508181035f8301526147fc816147c3565b9050919050565b7f496e76616c69642074696d6500000000000000000000000000000000000000005f82015250565b5f614837600c83613e99565b915061484282614803565b602082019050919050565b5f6020820190508181035f8301526148648161482b565b9050919050565b7f46656520726571756972656400000000000000000000000000000000000000005f82015250565b5f61489f600c83613e99565b91506148aa8261486b565b602082019050919050565b5f6020820190508181035f8301526148cc81614893565b9050919050565b5f6148dd82613369565b91506148e883613369565b9250828201905080821115614900576148ff614119565b5b92915050565b5f6060820190506149195f8301866138f2565b61492660208301856133c7565b61493360408301846133c7565b949350505050565b7f5072697a65206661696c656400000000000000000000000000000000000000005f82015250565b5f61496f600c83613e99565b915061497a8261493b565b602082019050919050565b5f6020820190508181035f83015261499c81614963565b9050919050565b7f466565206661696c6564000000000000000000000000000000000000000000005f82015250565b5f6149d7600a83613e99565b91506149e2826149a3565b602082019050919050565b5f6020820190508181035f830152614a04816149cb565b905091905056fea26469706673582212204a089dca47c7537b7d38fb9cb7b52cb172610cb86f19725052142d2f6aca9c9964736f6c634300081c0033","linkReferences":{}},"methodIdentifiers":{"cancel(uint256)":"40e58ee5","counter()":"61bc221a","create(string,uint256,uint256,uint8,uint256)":"def86bc6","earnings(address)":"543fd313","emergency()":"caa6fea4","fee()":"ddca3f43","getParticipants(uint256)":"c1e3bd3e","getRoundMatches(uint256,uint256)":"41096615","getStats(address)":"c23f85d6","getTournament(uint256)":"1a5bd7fc","getUIInfo(uint256)":"f5431fd3","getUpcoming()":"3db96767","join(uint256)":"049878f3","joined(uint256,address)":"bea5fcc5","matches(uint256,uint256,uint256)":"f310ed68","maxPart()":"ebb15d2c","minPart()":"05338206","owner()":"8da5cb5b","participants(uint256,uint256)":"81fb1fb4","played(address)":"1cc60908","recordResult(uint256,uint256,uint256,address)":"b954ad34","renounceOwnership()":"715018a6","setFee(uint256)":"69fe0e2d","setLimits(uint256,uint256)":"c4590d3f","tournaments(uint256)":"7503e1b7","transferOwnership(address)":"f2fde38b","won(address)":"71ee1aba"},"id":30}