{"abi":[{"type":"constructor","inputs":[],"stateMutability":"nonpayable"},{"type":"function","name":"MAX_TIMEOUTS","inputs":[],"outputs":[{"name":"","type":"uint256","internalType":"uint256"}],"stateMutability":"view"},{"type":"function","name":"balances","inputs":[{"name":"","type":"address","internalType":"address"}],"outputs":[{"name":"","type":"uint256","internalType":"uint256"}],"stateMutability":"view"},{"type":"function","name":"claimRewards","inputs":[],"outputs":[],"stateMutability":"nonpayable"},{"type":"function","name":"createQuickDraw","inputs":[],"outputs":[],"stateMutability":"payable"},{"type":"function","name":"createStrategic","inputs":[],"outputs":[],"stateMutability":"payable"},{"type":"function","name":"emergency","inputs":[],"outputs":[],"stateMutability":"nonpayable"},{"type":"function","name":"fees","inputs":[],"outputs":[{"name":"","type":"uint256","internalType":"uint256"}],"stateMutability":"view"},{"type":"function","name":"gameCounter","inputs":[],"outputs":[{"name":"","type":"uint256","internalType":"uint256"}],"stateMutability":"view"},{"type":"function","name":"gamePlayers","inputs":[{"name":"","type":"uint256","internalType":"uint256"},{"name":"","type":"uint256","internalType":"uint256"}],"outputs":[{"name":"","type":"address","internalType":"address"}],"stateMutability":"view"},{"type":"function","name":"games","inputs":[{"name":"","type":"uint256","internalType":"uint256"}],"outputs":[{"name":"gameId","type":"uint256","internalType":"uint256"},{"name":"mode","type":"uint8","internalType":"enum ZeroSumSimplified.GameMode"},{"name":"currentNumber","type":"uint256","internalType":"uint256"},{"name":"currentPlayer","type":"address","internalType":"address"},{"name":"status","type":"uint8","internalType":"enum ZeroSumSimplified.GameStatus"},{"name":"entryFee","type":"uint256","internalType":"uint256"},{"name":"prizePool","type":"uint256","internalType":"uint256"},{"name":"winner","type":"address","internalType":"address"},{"name":"numberGenerated","type":"bool","internalType":"bool"}],"stateMutability":"view"},{"type":"function","name":"getBonus","inputs":[{"name":"_player","type":"address","internalType":"address"}],"outputs":[{"name":"","type":"uint256","internalType":"uint256"}],"stateMutability":"view"},{"type":"function","name":"getGame","inputs":[{"name":"_id","type":"uint256","internalType":"uint256"}],"outputs":[{"name":"","type":"tuple","internalType":"struct ZeroSumSimplified.Game","components":[{"name":"gameId","type":"uint256","internalType":"uint256"},{"name":"mode","type":"uint8","internalType":"enum ZeroSumSimplified.GameMode"},{"name":"currentNumber","type":"uint256","internalType":"uint256"},{"name":"currentPlayer","type":"address","internalType":"address"},{"name":"status","type":"uint8","internalType":"enum ZeroSumSimplified.GameStatus"},{"name":"entryFee","type":"uint256","internalType":"uint256"},{"name":"prizePool","type":"uint256","internalType":"uint256"},{"name":"winner","type":"address","internalType":"address"},{"name":"numberGenerated","type":"bool","internalType":"bool"}]}],"stateMutability":"view"},{"type":"function","name":"getGameForSpectators","inputs":[{"name":"_id","type":"uint256","internalType":"uint256"}],"outputs":[{"name":"status","type":"uint8","internalType":"enum ZeroSumSimplified.GameStatus"},{"name":"winner","type":"address","internalType":"address"},{"name":"players","type":"address[]","internalType":"address[]"},{"name":"currentNumber","type":"uint256","internalType":"uint256"},{"name":"numberGenerated","type":"bool","internalType":"bool"},{"name":"currentPlayer","type":"address","internalType":"address"},{"name":"mode","type":"uint256","internalType":"uint256"}],"stateMutability":"view"},{"type":"function","name":"getPlatformStats","inputs":[],"outputs":[{"name":"","type":"uint256","internalType":"uint256"},{"name":"","type":"uint256","internalType":"uint256"},{"name":"","type":"uint256","internalType":"uint256"}],"stateMutability":"view"},{"type":"function","name":"getPlayerView","inputs":[{"name":"_id","type":"uint256","internalType":"uint256"}],"outputs":[{"name":"number","type":"uint256","internalType":"uint256"},{"name":"yourTurn","type":"bool","internalType":"bool"},{"name":"status","type":"string","internalType":"string"},{"name":"timeLeft","type":"uint256","internalType":"uint256"},{"name":"condition","type":"string","internalType":"string"},{"name":"yourTimeouts","type":"uint256","internalType":"uint256"},{"name":"opponentTimeouts","type":"uint256","internalType":"uint256"}],"stateMutability":"view"},{"type":"function","name":"getPlayers","inputs":[{"name":"_id","type":"uint256","internalType":"uint256"}],"outputs":[{"name":"","type":"address[]","internalType":"address[]"}],"stateMutability":"view"},{"type":"function","name":"getStats","inputs":[{"name":"_player","type":"address","internalType":"address"}],"outputs":[{"name":"","type":"uint256","internalType":"uint256"},{"name":"","type":"uint256","internalType":"uint256"},{"name":"","type":"uint256","internalType":"uint256"},{"name":"","type":"uint256","internalType":"uint256"},{"name":"","type":"uint256","internalType":"uint256"}],"stateMutability":"view"},{"type":"function","name":"getTimeoutStatus","inputs":[{"name":"_id","type":"uint256","internalType":"uint256"},{"name":"_player","type":"address","internalType":"address"}],"outputs":[{"name":"timeouts","type":"uint256","internalType":"uint256"},{"name":"remaining","type":"uint256","internalType":"uint256"}],"stateMutability":"view"},{"type":"function","name":"handleTimeout","inputs":[{"name":"_id","type":"uint256","internalType":"uint256"}],"outputs":[],"stateMutability":"nonpayable"},{"type":"function","name":"isGameBettable","inputs":[{"name":"_id","type":"uint256","internalType":"uint256"}],"outputs":[{"name":"","type":"bool","internalType":"bool"}],"stateMutability":"view"},{"type":"function","name":"isInGame","inputs":[{"name":"","type":"uint256","internalType":"uint256"},{"name":"","type":"address","internalType":"address"}],"outputs":[{"name":"","type":"bool","internalType":"bool"}],"stateMutability":"view"},{"type":"function","name":"isOnFinalWarning","inputs":[{"name":"_id","type":"uint256","internalType":"uint256"},{"name":"_player","type":"address","internalType":"address"}],"outputs":[{"name":"","type":"bool","internalType":"bool"}],"stateMutability":"view"},{"type":"function","name":"isTimedOut","inputs":[{"name":"_id","type":"uint256","internalType":"uint256"}],"outputs":[{"name":"","type":"bool","internalType":"bool"}],"stateMutability":"view"},{"type":"function","name":"joinGame","inputs":[{"name":"_id","type":"uint256","internalType":"uint256"}],"outputs":[],"stateMutability":"payable"},{"type":"function","name":"makeMove","inputs":[{"name":"_id","type":"uint256","internalType":"uint256"},{"name":"_sub","type":"uint256","internalType":"uint256"}],"outputs":[],"stateMutability":"nonpayable"},{"type":"function","name":"owner","inputs":[],"outputs":[{"name":"","type":"address","internalType":"address"}],"stateMutability":"view"},{"type":"function","name":"paused","inputs":[],"outputs":[{"name":"","type":"bool","internalType":"bool"}],"stateMutability":"view"},{"type":"function","name":"platformFee","inputs":[],"outputs":[{"name":"","type":"uint256","internalType":"uint256"}],"stateMutability":"view"},{"type":"function","name":"played","inputs":[{"name":"","type":"address","internalType":"address"}],"outputs":[{"name":"","type":"uint256","internalType":"uint256"}],"stateMutability":"view"},{"type":"function","name":"playerTimeouts","inputs":[{"name":"","type":"uint256","internalType":"uint256"},{"name":"","type":"address","internalType":"address"}],"outputs":[{"name":"","type":"uint256","internalType":"uint256"}],"stateMutability":"view"},{"type":"function","name":"renounceOwnership","inputs":[],"outputs":[],"stateMutability":"nonpayable"},{"type":"function","name":"setPaused","inputs":[{"name":"_paused","type":"bool","internalType":"bool"}],"outputs":[],"stateMutability":"nonpayable"},{"type":"function","name":"setPlatformFee","inputs":[{"name":"_fee","type":"uint256","internalType":"uint256"}],"outputs":[],"stateMutability":"nonpayable"},{"type":"function","name":"setSpectatorContract","inputs":[{"name":"_spectator","type":"address","internalType":"address"}],"outputs":[],"stateMutability":"nonpayable"},{"type":"function","name":"setStakingAPY","inputs":[{"name":"_apy","type":"uint256","internalType":"uint256"}],"outputs":[],"stateMutability":"nonpayable"},{"type":"function","name":"setTimeLimit","inputs":[{"name":"_timeLimit","type":"uint256","internalType":"uint256"}],"outputs":[],"stateMutability":"nonpayable"},{"type":"function","name":"spectatorContract","inputs":[],"outputs":[{"name":"","type":"address","internalType":"address"}],"stateMutability":"view"},{"type":"function","name":"stake","inputs":[],"outputs":[],"stateMutability":"payable"},{"type":"function","name":"staking","inputs":[{"name":"","type":"address","internalType":"address"}],"outputs":[{"name":"amount","type":"uint256","internalType":"uint256"},{"name":"lastReward","type":"uint256","internalType":"uint256"},{"name":"rewards","type":"uint256","internalType":"uint256"}],"stateMutability":"view"},{"type":"function","name":"stakingAPY","inputs":[],"outputs":[{"name":"","type":"uint256","internalType":"uint256"}],"stateMutability":"view"},{"type":"function","name":"timeLimit","inputs":[],"outputs":[{"name":"","type":"uint256","internalType":"uint256"}],"stateMutability":"view"},{"type":"function","name":"totalStaked","inputs":[],"outputs":[{"name":"","type":"uint256","internalType":"uint256"}],"stateMutability":"view"},{"type":"function","name":"transferOwnership","inputs":[{"name":"newOwner","type":"address","internalType":"address"}],"outputs":[],"stateMutability":"nonpayable"},{"type":"function","name":"turnDeadlines","inputs":[{"name":"","type":"uint256","internalType":"uint256"}],"outputs":[{"name":"","type":"uint256","internalType":"uint256"}],"stateMutability":"view"},{"type":"function","name":"unstake","inputs":[{"name":"_amount","type":"uint256","internalType":"uint256"}],"outputs":[],"stateMutability":"nonpayable"},{"type":"function","name":"verifyFairness","inputs":[{"name":"_id","type":"uint256","internalType":"uint256"}],"outputs":[{"name":"","type":"bool","internalType":"bool"},{"name":"","type":"uint256","internalType":"uint256"},{"name":"","type":"string","internalType":"string"}],"stateMutability":"view"},{"type":"function","name":"wins","inputs":[{"name":"","type":"address","internalType":"address"}],"outputs":[{"name":"","type":"uint256","internalType":"uint256"}],"stateMutability":"view"},{"type":"function","name":"withdraw","inputs":[],"outputs":[],"stateMutability":"nonpayable"},{"type":"function","name":"withdrawFees","inputs":[],"outputs":[],"stateMutability":"nonpayable"},{"type":"event","name":"GameCreated","inputs":[{"name":"gameId","type":"uint256","indexed":true,"internalType":"uint256"},{"name":"mode","type":"uint8","indexed":false,"internalType":"enum ZeroSumSimplified.GameMode"},{"name":"creator","type":"address","indexed":false,"internalType":"address"},{"name":"entryFee","type":"uint256","indexed":false,"internalType":"uint256"}],"anonymous":false},{"type":"event","name":"GameFinished","inputs":[{"name":"gameId","type":"uint256","indexed":true,"internalType":"uint256"},{"name":"winner","type":"address","indexed":false,"internalType":"address"},{"name":"earnings","type":"uint256","indexed":false,"internalType":"uint256"}],"anonymous":false},{"type":"event","name":"MoveMade","inputs":[{"name":"gameId","type":"uint256","indexed":true,"internalType":"uint256"},{"name":"player","type":"address","indexed":false,"internalType":"address"},{"name":"subtraction","type":"uint256","indexed":false,"internalType":"uint256"},{"name":"newNumber","type":"uint256","indexed":false,"internalType":"uint256"}],"anonymous":false},{"type":"event","name":"NumberGenerated","inputs":[{"name":"gameId","type":"uint256","indexed":true,"internalType":"uint256"},{"name":"number","type":"uint256","indexed":false,"internalType":"uint256"}],"anonymous":false},{"type":"event","name":"OwnershipTransferred","inputs":[{"name":"previousOwner","type":"address","indexed":true,"internalType":"address"},{"name":"newOwner","type":"address","indexed":true,"internalType":"address"}],"anonymous":false},{"type":"event","name":"PlayerJoined","inputs":[{"name":"gameId","type":"uint256","indexed":true,"internalType":"uint256"},{"name":"player","type":"address","indexed":false,"internalType":"address"}],"anonymous":false},{"type":"event","name":"PlayerTimeout","inputs":[{"name":"gameId","type":"uint256","indexed":true,"internalType":"uint256"},{"name":"player","type":"address","indexed":true,"internalType":"address"},{"name":"timeoutCount","type":"uint256","indexed":false,"internalType":"uint256"}],"anonymous":false},{"type":"event","name":"Staked","inputs":[{"name":"staker","type":"address","indexed":true,"internalType":"address"},{"name":"amount","type":"uint256","indexed":false,"internalType":"uint256"}],"anonymous":false},{"type":"event","name":"TurnSkipped","inputs":[{"name":"gameId","type":"uint256","indexed":true,"internalType":"uint256"},{"name":"player","type":"address","indexed":true,"internalType":"address"},{"name":"timeoutCount","type":"uint256","indexed":false,"internalType":"uint256"}],"anonymous":false},{"type":"event","name":"Unstaked","inputs":[{"name":"staker","type":"address","indexed":true,"internalType":"address"},{"name":"amount","type":"uint256","indexed":false,"internalType":"uint256"}],"anonymous":false},{"type":"error","name":"OwnableInvalidOwner","inputs":[{"name":"owner","type":"address","internalType":"address"}]},{"type":"error","name":"OwnableUnauthorizedAccount","inputs":[{"name":"account","type":"address","internalType":"address"}]},{"type":"error","name":"ReentrancyGuardReentrantCall","inputs":[]}],"bytecode":{"object":"0x60806040526005600c556103e8600f5561012c601055348015610020575f5ffd5b503360015f819055505f73ffffffffffffffffffffffffffffffffffffffff168173ffffffffffffffffffffffffffffffffffffffff1603610099575f6040517f1e4fbdf700000000000000000000000000000000000000000000000000000000815260040161009091906101b0565b60405180910390fd5b6100a8816100ae60201b60201c565b506101c9565b5f60015f9054906101000a900473ffffffffffffffffffffffffffffffffffffffff1690508160015f6101000a81548173ffffffffffffffffffffffffffffffffffffffff021916908373ffffffffffffffffffffffffffffffffffffffff1602179055508173ffffffffffffffffffffffffffffffffffffffff168173ffffffffffffffffffffffffffffffffffffffff167f8be0079c531659141344cd1fd0a4f28419497f9722a3daafe3b4186f6b6457e060405160405180910390a35050565b5f73ffffffffffffffffffffffffffffffffffffffff82169050919050565b5f61019a82610171565b9050919050565b6101aa81610190565b82525050565b5f6020820190506101c35f8301846101a1565b92915050565b616015806101d65f395ff3fe6080604052600436106102ad575f3560e01c80635f5e3e9111610174578063bcd9e0c3116100db578063d764b78f11610094578063e2889c821161006e578063e2889c8214610ab4578063ed6fe70714610adc578063efaa55a014610b1a578063f2fde38b14610b36576102ad565b8063d764b78f14610a12578063dea9456d14610a50578063dfefef9f14610a78576102ad565b8063bcd9e0c3146108dd578063c08d1fe51461091a578063c23f85d614610944578063c3cb4e7a14610984578063caa6fea4146109c0578063cc8ac988146109d6576102ad565b80638da5cb5b1161012d5780638da5cb5b146107d35780639af1d35a146107fd578063a2f77bcc14610827578063b4f3626414610863578063b6f5b3a61461088b578063b79fdcc5146108b3576102ad565b80635f5e3e91146106e7578063715018a6146107235780638047a97a14610739578063817b1cd21461077557806385682a5e1461079f57806388b7225e146107a9576102ad565b8063372500ab11610218578063460e2049116101d1578063460e2049146105e3578063476343ee1461061f5780634d389e781461063557806353226bd01461067757806355e46c89146106b35780635c975abb146106bd576102ad565b8063372500ab146104f35780633a4b66f1146105095780633a740a63146105135780633a9a30731461054f5780633ccfd60b1461058b5780633d2a9026146105a1576102ad565b80631cc609081161026a5780631cc60908146103d757806325d3f8cb1461041357806326232a2e1461043b57806327e235e3146104655780632e0be39a146104a15780632e17de78146104cb576102ad565b8063117a5b90146102b157806312e8e2c3146102f5578063136d88831461031d5780631531b62a1461034957806316c38b3c146103735780631c07ec9d1461039b575b5f5ffd5b3480156102bc575f5ffd5b506102d760048036038101906102d29190614c62565b610b5e565b6040516102ec99989796959493929190614dae565b60405180910390f35b348015610300575f5ffd5b5061031b60048036038101906103169190614c62565b610c0c565b005b348015610328575f5ffd5b50610331610c62565b60405161034093929190614e39565b60405180910390f35b348015610354575f5ffd5b5061035d610c79565b60405161036a9190614e6e565b60405180910390f35b34801561037e575f5ffd5b5061039960048036038101906103949190614eb1565b610c7f565b005b3480156103a6575f5ffd5b506103c160048036038101906103bc9190614f06565b610ca3565b6040516103ce9190614f44565b60405180910390f35b3480156103e2575f5ffd5b506103fd60048036038101906103f89190614f5d565b610d08565b60405161040a9190614e6e565b60405180910390f35b34801561041e575f5ffd5b5061043960048036038101906104349190614c62565b610d1d565b005b348015610446575f5ffd5b5061044f610d74565b60405161045c9190614e6e565b60405180910390f35b348015610470575f5ffd5b5061048b60048036038101906104869190614f5d565b610d7a565b6040516104989190614e6e565b60405180910390f35b3480156104ac575f5ffd5b506104b5610d8f565b6040516104c29190614e6e565b60405180910390f35b3480156104d6575f5ffd5b506104f160048036038101906104ec9190614c62565b610d95565b005b3480156104fe575f5ffd5b50610507610f87565b005b6105116110f8565b005b34801561051e575f5ffd5b5061053960048036038101906105349190614f5d565b611238565b6040516105469190614e6e565b60405180910390f35b34801561055a575f5ffd5b5061057560048036038101906105709190614f06565b6112d2565b6040516105829190614f44565b60405180910390f35b348015610596575f5ffd5b5061059f6112fc565b005b3480156105ac575f5ffd5b506105c760048036038101906105c29190614c62565b61147d565b6040516105da9796959493929190614ff8565b60405180910390f35b3480156105ee575f5ffd5b5061060960048036038101906106049190614c62565b611cba565b604051610616919061512a565b60405180910390f35b34801561062a575f5ffd5b50610633611d56565b005b348015610640575f5ffd5b5061065b60048036038101906106569190614c62565b611e70565b60405161066e979695949392919061514a565b60405180910390f35b348015610682575f5ffd5b5061069d60048036038101906106989190614f06565b6120eb565b6040516106aa9190614e6e565b60405180910390f35b6106bb61210b565b005b3480156106c8575f5ffd5b506106d16121a8565b6040516106de9190614f44565b60405180910390f35b3480156106f2575f5ffd5b5061070d60048036038101906107089190614c62565b6121ba565b60405161071a9190614f44565b60405180910390f35b34801561072e575f5ffd5b506107376123b1565b005b348015610744575f5ffd5b5061075f600480360381019061075a9190614f5d565b6123c4565b60405161076c9190614e6e565b60405180910390f35b348015610780575f5ffd5b506107896123d9565b6040516107969190614e6e565b60405180910390f35b6107a76123df565b005b3480156107b4575f5ffd5b506107bd61247b565b6040516107ca91906151be565b60405180910390f35b3480156107de575f5ffd5b506107e76124a1565b6040516107f491906151be565b60405180910390f35b348015610808575f5ffd5b506108116124c9565b60405161081e9190614e6e565b60405180910390f35b348015610832575f5ffd5b5061084d60048036038101906108489190614c62565b6124cf565b60405161085a91906152c8565b60405180910390f35b34801561086e575f5ffd5b5061088960048036038101906108849190614c62565b61265c565b005b348015610896575f5ffd5b506108b160048036038101906108ac9190614f5d565b61296c565b005b3480156108be575f5ffd5b506108c76129b8565b6040516108d49190614e6e565b60405180910390f35b3480156108e8575f5ffd5b5061090360048036038101906108fe9190614f06565b6129bd565b6040516109119291906152e2565b60405180910390f35b348015610925575f5ffd5b5061092e612a34565b60405161093b9190614e6e565b60405180910390f35b34801561094f575f5ffd5b5061096a60048036038101906109659190614f5d565b612a3a565b60405161097b959493929190615309565b60405180910390f35b34801561098f575f5ffd5b506109aa60048036038101906109a59190614c62565b612c29565b6040516109b79190614e6e565b60405180910390f35b3480156109cb575f5ffd5b506109d4612c3e565b005b3480156109e1575f5ffd5b506109fc60048036038101906109f79190614c62565b612cf8565b604051610a099190614f44565b60405180910390f35b348015610a1d575f5ffd5b50610a386004803603810190610a339190614f5d565b612eca565b604051610a4793929190614e39565b60405180910390f35b348015610a5b575f5ffd5b50610a766004803603810190610a71919061535a565b612ef0565b005b348015610a83575f5ffd5b50610a9e6004803603810190610a99919061535a565b61348e565b604051610aab91906151be565b60405180910390f35b348015610abf575f5ffd5b50610ada6004803603810190610ad59190614c62565b6134d6565b005b348015610ae7575f5ffd5b50610b026004803603810190610afd9190614c62565b61353a565b604051610b1193929190615398565b60405180910390f35b610b346004803603810190610b2f9190614c62565b613701565b005b348015610b41575f5ffd5b50610b5c6004803603810190610b579190614f5d565b61375d565b005b6003602052805f5260405f205f91509050805f015490806001015f9054906101000a900460ff1690806002015490806003015f9054906101000a900473ffffffffffffffffffffffffffffffffffffffff16908060030160149054906101000a900460ff1690806004015490806005015490806006015f9054906101000a900473ffffffffffffffffffffffffffffffffffffffff16908060060160149054906101000a900460ff16905089565b610c146137e1565b600a811115610c58576040517f08c379a0000000000000000000000000000000000000000000000000000000008152600401610c4f9061541e565b60405180910390fd5b80600c8190555050565b5f5f5f600b54600d54600e54925092509250909192565b600f5481565b610c876137e1565b8060115f6101000a81548160ff02191690831515021790555050565b5f60016002610cb29190615469565b60025f8581526020019081526020015f205f8473ffffffffffffffffffffffffffffffffffffffff1673ffffffffffffffffffffffffffffffffffffffff1681526020019081526020015f205414905092915050565b6009602052805f5260405f205f915090505481565b610d256137e1565b611388811115610d6a576040517f08c379a0000000000000000000000000000000000000000000000000000000008152600401610d619061541e565b60405180910390fd5b80600f8190555050565b600c5481565b6007602052805f5260405f205f915090505481565b600b5481565b610d9d613868565b5f600a5f3373ffffffffffffffffffffffffffffffffffffffff1673ffffffffffffffffffffffffffffffffffffffff1681526020019081526020015f20905081815f01541015610e23576040517f08c379a0000000000000000000000000000000000000000000000000000000008152600401610e1a906154e6565b60405180910390fd5b5f610e2d336138ac565b905080826002015f828254610e429190615504565b9250508190555082825f015f828254610e5b9190615469565b9250508190555042826001018190555082600e5f828254610e7c9190615469565b925050819055505f3373ffffffffffffffffffffffffffffffffffffffff1684604051610ea890615564565b5f6040518083038185875af1925050503d805f8114610ee2576040519150601f19603f3d011682016040523d82523d5f602084013e610ee7565b606091505b5050905080610f2b576040517f08c379a0000000000000000000000000000000000000000000000000000000008152600401610f22906155c2565b60405180910390fd5b3373ffffffffffffffffffffffffffffffffffffffff167f0f5bb82176feb1b5e747e28471aa92156a04d9f3ab9f45f28e2d704232b93f7585604051610f719190614e6e565b60405180910390a2505050610f84613982565b50565b610f8f613868565b5f600a5f3373ffffffffffffffffffffffffffffffffffffffff1673ffffffffffffffffffffffffffffffffffffffff1681526020019081526020015f2090505f610fd9336138ac565b90505f818360020154610fec9190615504565b90505f8111611030576040517f08c379a00000000000000000000000000000000000000000000000000000000081526004016110279061562a565b60405180910390fd5b5f83600201819055504283600101819055505f3373ffffffffffffffffffffffffffffffffffffffff168260405161106790615564565b5f6040518083038185875af1925050503d805f81146110a1576040519150601f19603f3d011682016040523d82523d5f602084013e6110a6565b606091505b50509050806110ea576040517f08c379a00000000000000000000000000000000000000000000000000000000081526004016110e1906155c2565b60405180910390fd5b505050506110f6613982565b565b5f341161113a576040517f08c379a000000000000000000000000000000000000000000000000000000000815260040161113190615692565b60405180910390fd5b5f600a5f3373ffffffffffffffffffffffffffffffffffffffff1673ffffffffffffffffffffffffffffffffffffffff1681526020019081526020015f2090505f815f015411156111ad575f61118f336138ac565b905080826002015f8282546111a49190615504565b92505081905550505b34815f015f8282546111bf9190615504565b9250508190555042816001018190555034600e5f8282546111e09190615504565b925050819055503373ffffffffffffffffffffffffffffffffffffffff167f9e71bc8eea02a63969f509818f2dafb9254532904319f9dbda79b67bd34a5f3d3460405161122d9190614e6e565b60405180910390a250565b5f5f600a5f8473ffffffffffffffffffffffffffffffffffffffff1673ffffffffffffffffffffffffffffffffffffffff1681526020019081526020015f205f01549050674563918244f4000081106112955760969150506112cd565b670de0b6b3a764000081106112ae57607d9150506112cd565b67016345785d8a000081106112c757606e9150506112cd565b60649150505b919050565b6005602052815f5260405f20602052805f5260405f205f915091509054906101000a900460ff1681565b611304613868565b5f60075f3373ffffffffffffffffffffffffffffffffffffffff1673ffffffffffffffffffffffffffffffffffffffff1681526020019081526020015f205490505f8111611387576040517f08c379a000000000000000000000000000000000000000000000000000000000815260040161137e906156fa565b60405180910390fd5b5f60075f3373ffffffffffffffffffffffffffffffffffffffff1673ffffffffffffffffffffffffffffffffffffffff1681526020019081526020015f20819055505f3373ffffffffffffffffffffffffffffffffffffffff16826040516113ee90615564565b5f6040518083038185875af1925050503d805f8114611428576040519150601f19603f3d011682016040523d82523d5f602084013e61142d565b606091505b5050905080611471576040517f08c379a0000000000000000000000000000000000000000000000000000000008152600401611468906155c2565b60405180910390fd5b505061147b613982565b565b5f5f60605f60605f5f5f60035f8a81526020019081526020015f20604051806101200160405290815f8201548152602001600182015f9054906101000a900460ff1660018111156114d1576114d0614c9c565b5b60018111156114e3576114e2614c9c565b5b815260200160028201548152602001600382015f9054906101000a900473ffffffffffffffffffffffffffffffffffffffff1673ffffffffffffffffffffffffffffffffffffffff1673ffffffffffffffffffffffffffffffffffffffff1681526020016003820160149054906101000a900460ff16600281111561156b5761156a614c9c565b5b600281111561157d5761157c614c9c565b5b81526020016004820154815260200160058201548152602001600682015f9054906101000a900473ffffffffffffffffffffffffffffffffffffffff1673ffffffffffffffffffffffffffffffffffffffff1673ffffffffffffffffffffffffffffffffffffffff1681526020016006820160149054906101000a900460ff16151515158152505090505f60045f8b81526020019081526020015f2080548060200260200160405190810160405280929190818152602001828054801561169657602002820191905f5260205f20905b815f9054906101000a900473ffffffffffffffffffffffffffffffffffffffff1673ffffffffffffffffffffffffffffffffffffffff168152602001906001019080831161164d575b505050505090505f5f90506002825103611737573373ffffffffffffffffffffffffffffffffffffffff16825f815181106116d4576116d3615718565b5b602002602001015173ffffffffffffffffffffffffffffffffffffffff161461171757815f8151811061170a57611709615718565b5b6020026020010151611734565b8160018151811061172b5761172a615718565b5b60200260200101515b90505b826101000151611747575f61174d565b82604001515b9950826060015173ffffffffffffffffffffffffffffffffffffffff163373ffffffffffffffffffffffffffffffffffffffff1614985060025f8c81526020019081526020015f205f3373ffffffffffffffffffffffffffffffffffffffff1673ffffffffffffffffffffffffffffffffffffffff1681526020019081526020015f205494505f73ffffffffffffffffffffffffffffffffffffffff168173ffffffffffffffffffffffffffffffffffffffff160361180c575f61185a565b60025f8c81526020019081526020015f205f8273ffffffffffffffffffffffffffffffffffffffff1673ffffffffffffffffffffffffffffffffffffffff1681526020019081526020015f20545b935060018081111561186f5761186e614c9c565b5b8360200151600181111561188657611885614c9c565b5b146118c6576040518060400160405280601281526020017f5265616368207a65726f20746f2077696e2100000000000000000000000000008152506118fd565b6040518060400160405280601181526020017f444f4e2754207265616368207a65726f210000000000000000000000000000008152505b95505f600281111561191257611911614c9c565b5b8360800151600281111561192957611928614c9c565b5b03611a0e575f825190506002811480156119465750836101000151155b15611988576040518060400160405280601481526020017f47656e65726174696e67206e756d6265722e2e2e0000000000000000000000008152509850611a05565b600181146119cb576040518060400160405280600e81526020017f526561647920746f207374617274000000000000000000000000000000000000815250611a02565b6040518060400160405280601481526020017f57616974696e6720666f72206f70706f6e656e740000000000000000000000008152505b98505b5f975050611cac565b60016002811115611a2257611a21614c9c565b5b83608001516002811115611a3957611a38614c9c565b5b03611bfc5760065f8c81526020019081526020015f2054421115611b21575f60025f8d81526020019081526020015f205f856060015173ffffffffffffffffffffffffffffffffffffffff1673ffffffffffffffffffffffffffffffffffffffff1681526020019081526020015f2054905060016002611ab99190615469565b8110611adf57604051806060016040528060248152602001615f97602491399850611b18565b6040518060400160405280601e81526020017f54696d656f7574202d205475726e2077696c6c20626520736b6970706564000081525098505b5f975050611bf7565b4260065f8d81526020019081526020015f2054611b3e9190615469565b96505f60025f8d81526020019081526020015f205f856060015173ffffffffffffffffffffffffffffffffffffffff1673ffffffffffffffffffffffffffffffffffffffff1681526020019081526020015f2054905060018103611bbc57604051806060016040528060258152602001615fbb602591399850611bf5565b6040518060400160405280600b81526020017f47616d652061637469766500000000000000000000000000000000000000000081525098505b505b611cab565b3373ffffffffffffffffffffffffffffffffffffffff168360e0015173ffffffffffffffffffffffffffffffffffffffff1614611c6e576040518060400160405280600d81526020017f47616d652066696e697368656400000000000000000000000000000000000000815250611ca5565b6040518060400160405280600881526020017f596f7520776f6e210000000000000000000000000000000000000000000000008152505b97505f96505b5b505050919395979092949650565b606060045f8381526020019081526020015f20805480602002602001604051908101604052809291908181526020018280548015611d4a57602002820191905f5260205f20905b815f9054906101000a900473ffffffffffffffffffffffffffffffffffffffff1673ffffffffffffffffffffffffffffffffffffffff1681526020019060010190808311611d01575b50505050509050919050565b611d5e6137e1565b611d66613868565b5f600d5490505f8111611dae576040517f08c379a0000000000000000000000000000000000000000000000000000000008152600401611da59061578f565b60405180910390fd5b5f600d819055505f611dbe6124a1565b73ffffffffffffffffffffffffffffffffffffffff1682604051611de190615564565b5f6040518083038185875af1925050503d805f8114611e1b576040519150601f19603f3d011682016040523d82523d5f602084013e611e20565b606091505b5050905080611e64576040517f08c379a0000000000000000000000000000000000000000000000000000000008152600401611e5b906155c2565b60405180910390fd5b5050611e6e613982565b565b5f5f60605f5f5f5f5f60035f8a81526020019081526020015f20604051806101200160405290815f8201548152602001600182015f9054906101000a900460ff166001811115611ec357611ec2614c9c565b5b6001811115611ed557611ed4614c9c565b5b815260200160028201548152602001600382015f9054906101000a900473ffffffffffffffffffffffffffffffffffffffff1673ffffffffffffffffffffffffffffffffffffffff1673ffffffffffffffffffffffffffffffffffffffff1681526020016003820160149054906101000a900460ff166002811115611f5d57611f5c614c9c565b5b6002811115611f6f57611f6e614c9c565b5b81526020016004820154815260200160058201548152602001600682015f9054906101000a900473ffffffffffffffffffffffffffffffffffffffff1673ffffffffffffffffffffffffffffffffffffffff1673ffffffffffffffffffffffffffffffffffffffff1681526020016006820160149054906101000a900460ff161515151581525050905080608001518160e0015160045f8c81526020019081526020015f20836101000151612024575f61202a565b83604001515b84610100015185606001518660200151600181111561204c5761204b614c9c565b5b848054806020026020016040519081016040528092919081815260200182805480156120ca57602002820191905f5260205f20905b815f9054906101000a900473ffffffffffffffffffffffffffffffffffffffff1673ffffffffffffffffffffffffffffffffffffffff1681526020019060010190808311612081575b50505050509450975097509750975097509750975050919395979092949650565b6002602052815f5260405f20602052805f5260405f205f91509150505481565b60115f9054906101000a900460ff161561215a576040517f08c379a0000000000000000000000000000000000000000000000000000000008152600401612151906157f7565b60405180910390fd5b5f341161219c576040517f08c379a00000000000000000000000000000000000000000000000000000000081526004016121939061585f565b60405180910390fd5b6121a6600161398b565b565b60115f9054906101000a900460ff1681565b5f5f60035f8481526020019081526020015f20604051806101200160405290815f8201548152602001600182015f9054906101000a900460ff16600181111561220657612205614c9c565b5b600181111561221857612217614c9c565b5b815260200160028201548152602001600382015f9054906101000a900473ffffffffffffffffffffffffffffffffffffffff1673ffffffffffffffffffffffffffffffffffffffff1673ffffffffffffffffffffffffffffffffffffffff1681526020016003820160149054906101000a900460ff1660028111156122a05761229f614c9c565b5b60028111156122b2576122b1614c9c565b5b81526020016004820154815260200160058201548152602001600682015f9054906101000a900473ffffffffffffffffffffffffffffffffffffffff1673ffffffffffffffffffffffffffffffffffffffff1673ffffffffffffffffffffffffffffffffffffffff1681526020016006820160149054906101000a900460ff16151515158152505090505f815f0151141580156123a957505f600281111561235d5761235c614c9c565b5b8160800151600281111561237457612373614c9c565b5b14806123a857506001600281111561238f5761238e614c9c565b5b816080015160028111156123a6576123a5614c9c565b5b145b5b915050919050565b6123b96137e1565b6123c25f613c1b565b565b6008602052805f5260405f205f915090505481565b600e5481565b60115f9054906101000a900460ff161561242e576040517f08c379a0000000000000000000000000000000000000000000000000000000008152600401612425906157f7565b60405180910390fd5b5f3411612470576040517f08c379a00000000000000000000000000000000000000000000000000000000081526004016124679061585f565b60405180910390fd5b6124795f61398b565b565b601160019054906101000a900473ffffffffffffffffffffffffffffffffffffffff1681565b5f60015f9054906101000a900473ffffffffffffffffffffffffffffffffffffffff16905090565b600d5481565b6124d7614b96565b60035f8381526020019081526020015f20604051806101200160405290815f8201548152602001600182015f9054906101000a900460ff16600181111561252157612520614c9c565b5b600181111561253357612532614c9c565b5b815260200160028201548152602001600382015f9054906101000a900473ffffffffffffffffffffffffffffffffffffffff1673ffffffffffffffffffffffffffffffffffffffff1673ffffffffffffffffffffffffffffffffffffffff1681526020016003820160149054906101000a900460ff1660028111156125bb576125ba614c9c565b5b60028111156125cd576125cc614c9c565b5b81526020016004820154815260200160058201548152602001600682015f9054906101000a900473ffffffffffffffffffffffffffffffffffffffff1673ffffffffffffffffffffffffffffffffffffffff1673ffffffffffffffffffffffffffffffffffffffff1681526020016006820160149054906101000a900460ff1615151515815250509050919050565b5f60035f8381526020019081526020015f2090506001600281111561268457612683614c9c565b5b8160030160149054906101000a900460ff1660028111156126a8576126a7614c9c565b5b146126e8576040517f08c379a00000000000000000000000000000000000000000000000000000000081526004016126df906158c7565b60405180910390fd5b60065f8381526020019081526020015f2054421161273b576040517f08c379a00000000000000000000000000000000000000000000000000000000081526004016127329061592f565b60405180910390fd5b5f816003015f9054906101000a900473ffffffffffffffffffffffffffffffffffffffff16905060025f8481526020019081526020015f205f8273ffffffffffffffffffffffffffffffffffffffff1673ffffffffffffffffffffffffffffffffffffffff1681526020019081526020015f205f8154809291906127be9061594d565b91905055508073ffffffffffffffffffffffffffffffffffffffff16837f2a791377fc5eeec8a3c10b3ad4baf3687eb8dd74bdd79dbd63d29070d4c687c760025f8781526020019081526020015f205f8573ffffffffffffffffffffffffffffffffffffffff1673ffffffffffffffffffffffffffffffffffffffff1681526020019081526020015f20546040516128569190614e6e565b60405180910390a36002805f8581526020019081526020015f205f8373ffffffffffffffffffffffffffffffffffffffff1673ffffffffffffffffffffffffffffffffffffffff1681526020019081526020015f2054106128c2576128bb8382613cde565b5050612969565b6128cb83613e11565b8073ffffffffffffffffffffffffffffffffffffffff16837f483c4ee11e1d637eff6c2e536ba48554bb3f35d6895431e9bc8e02111e4c6f7060025f8781526020019081526020015f205f8573ffffffffffffffffffffffffffffffffffffffff1673ffffffffffffffffffffffffffffffffffffffff1681526020019081526020015f205460405161295e9190614e6e565b60405180910390a350505b50565b6129746137e1565b80601160016101000a81548173ffffffffffffffffffffffffffffffffffffffff021916908373ffffffffffffffffffffffffffffffffffffffff16021790555050565b600281565b5f5f60025f8581526020019081526020015f205f8473ffffffffffffffffffffffffffffffffffffffff1673ffffffffffffffffffffffffffffffffffffffff1681526020019081526020015f205491506002821015612a2957816002612a249190615469565b612a2b565b5f5b90509250929050565b60105481565b5f5f5f5f5f60075f8773ffffffffffffffffffffffffffffffffffffffff1673ffffffffffffffffffffffffffffffffffffffff1681526020019081526020015f205460085f8873ffffffffffffffffffffffffffffffffffffffff1673ffffffffffffffffffffffffffffffffffffffff1681526020019081526020015f205460095f8973ffffffffffffffffffffffffffffffffffffffff1673ffffffffffffffffffffffffffffffffffffffff1681526020019081526020015f20545f60095f8b73ffffffffffffffffffffffffffffffffffffffff1673ffffffffffffffffffffffffffffffffffffffff1681526020019081526020015f205411612b43575f612bd6565b60095f8a73ffffffffffffffffffffffffffffffffffffffff1673ffffffffffffffffffffffffffffffffffffffff1681526020019081526020015f2054606460085f8c73ffffffffffffffffffffffffffffffffffffffff1673ffffffffffffffffffffffffffffffffffffffff1681526020019081526020015f2054612bcb9190615994565b612bd59190615a02565b5b600a5f8b73ffffffffffffffffffffffffffffffffffffffff1673ffffffffffffffffffffffffffffffffffffffff1681526020019081526020015f205f01549450945094509450945091939590929450565b6006602052805f5260405f205f915090505481565b612c466137e1565b5f612c4f6124a1565b73ffffffffffffffffffffffffffffffffffffffff1647604051612c7290615564565b5f6040518083038185875af1925050503d805f8114612cac576040519150601f19603f3d011682016040523d82523d5f602084013e612cb1565b606091505b5050905080612cf5576040517f08c379a0000000000000000000000000000000000000000000000000000000008152600401612cec906155c2565b60405180910390fd5b50565b5f5f60035f8481526020019081526020015f20604051806101200160405290815f8201548152602001600182015f9054906101000a900460ff166001811115612d4457612d43614c9c565b5b6001811115612d5657612d55614c9c565b5b815260200160028201548152602001600382015f9054906101000a900473ffffffffffffffffffffffffffffffffffffffff1673ffffffffffffffffffffffffffffffffffffffff1673ffffffffffffffffffffffffffffffffffffffff1681526020016003820160149054906101000a900460ff166002811115612dde57612ddd614c9c565b5b6002811115612df057612def614c9c565b5b81526020016004820154815260200160058201548152602001600682015f9054906101000a900473ffffffffffffffffffffffffffffffffffffffff1673ffffffffffffffffffffffffffffffffffffffff1673ffffffffffffffffffffffffffffffffffffffff1681526020016006820160149054906101000a900460ff161515151581525050905060016002811115612e8e57612e8d614c9c565b5b81608001516002811115612ea557612ea4614c9c565b5b148015612ec2575060065f8481526020019081526020015f205442115b915050919050565b600a602052805f5260405f205f91509050805f0154908060010154908060020154905083565b60115f9054906101000a900460ff1615612f3f576040517f08c379a0000000000000000000000000000000000000000000000000000000008152600401612f36906157f7565b60405180910390fd5b5f60035f8481526020019081526020015f20905060016002811115612f6757612f66614c9c565b5b8160030160149054906101000a900460ff166002811115612f8b57612f8a614c9c565b5b14612fcb576040517f08c379a0000000000000000000000000000000000000000000000000000000008152600401612fc2906158c7565b60405180910390fd5b8060060160149054906101000a900460ff1661301c576040517f08c379a000000000000000000000000000000000000000000000000000000000815260040161301390615a7c565b60405180910390fd5b60065f8481526020019081526020015f2054421115613296575f816003015f9054906101000a900473ffffffffffffffffffffffffffffffffffffffff1690508073ffffffffffffffffffffffffffffffffffffffff163373ffffffffffffffffffffffffffffffffffffffff16146132945760025f8581526020019081526020015f205f8273ffffffffffffffffffffffffffffffffffffffff1673ffffffffffffffffffffffffffffffffffffffff1681526020019081526020015f205f8154809291906130eb9061594d565b91905055508073ffffffffffffffffffffffffffffffffffffffff16847f2a791377fc5eeec8a3c10b3ad4baf3687eb8dd74bdd79dbd63d29070d4c687c760025f8881526020019081526020015f205f8573ffffffffffffffffffffffffffffffffffffffff1673ffffffffffffffffffffffffffffffffffffffff1681526020019081526020015f20546040516131839190614e6e565b60405180910390a36002805f8681526020019081526020015f205f8373ffffffffffffffffffffffffffffffffffffffff1673ffffffffffffffffffffffffffffffffffffffff1681526020019081526020015f2054106131ef576131e88482613cde565b505061348a565b6131f884613e11565b8073ffffffffffffffffffffffffffffffffffffffff16847f483c4ee11e1d637eff6c2e536ba48554bb3f35d6895431e9bc8e02111e4c6f7060025f8881526020019081526020015f205f8573ffffffffffffffffffffffffffffffffffffffff1673ffffffffffffffffffffffffffffffffffffffff1681526020019081526020015f205460405161328b9190614e6e565b60405180910390a35b505b806003015f9054906101000a900473ffffffffffffffffffffffffffffffffffffffff1673ffffffffffffffffffffffffffffffffffffffff163373ffffffffffffffffffffffffffffffffffffffff1614613327576040517f08c379a000000000000000000000000000000000000000000000000000000000815260040161331e90615ae4565b60405180910390fd5b60065f8481526020019081526020015f205442111561337b576040517f08c379a000000000000000000000000000000000000000000000000000000000815260040161337290615b4c565b60405180910390fd5b6133858383613fe1565b6133c4576040517f08c379a00000000000000000000000000000000000000000000000000000000081526004016133bb90615bb4565b60405180910390fd5b5f8282600201546133d59190615469565b9050808260020181905550837f575f1f76ee2294a7f954705e84e987596a8f2a7c3e162aea6ef8e0690cc2514233858460405161341493929190615bd2565b60405180910390a25f810361347d5760018081111561343657613435614c9c565b5b826001015f9054906101000a900460ff16600181111561345957613458614c9c565b5b0361346d576134688433613cde565b613478565b6134778433614215565b5b613487565b61348684613e11565b5b50505b5050565b6004602052815f5260405f2081815481106134a7575f80fd5b905f5260205f20015f915091509054906101000a900473ffffffffffffffffffffffffffffffffffffffff1681565b6134de6137e1565b603c81101580156134f15750610e108111155b613530576040517f08c379a000000000000000000000000000000000000000000000000000000000815260040161352790615c51565b60405180910390fd5b8060108190555050565b5f5f60605f60035f8681526020019081526020015f20604051806101200160405290815f8201548152602001600182015f9054906101000a900460ff16600181111561358957613588614c9c565b5b600181111561359b5761359a614c9c565b5b815260200160028201548152602001600382015f9054906101000a900473ffffffffffffffffffffffffffffffffffffffff1673ffffffffffffffffffffffffffffffffffffffff1673ffffffffffffffffffffffffffffffffffffffff1681526020016003820160149054906101000a900460ff16600281111561362357613622614c9c565b5b600281111561363557613634614c9c565b5b81526020016004820154815260200160058201548152602001600682015f9054906101000a900473ffffffffffffffffffffffffffffffffffffffff1673ffffffffffffffffffffffffffffffffffffffff1673ffffffffffffffffffffffffffffffffffffffff1681526020016006820160149054906101000a900460ff161515151581525050905080610100015160045f8781526020019081526020015f2080549050604051806060016040528060278152602001615f7060279139935093509350509193909250565b60115f9054906101000a900460ff1615613750576040517f08c379a0000000000000000000000000000000000000000000000000000000008152600401613747906157f7565b60405180910390fd5b61375a81336144cd565b50565b6137656137e1565b5f73ffffffffffffffffffffffffffffffffffffffff168173ffffffffffffffffffffffffffffffffffffffff16036137d5575f6040517f1e4fbdf70000000000000000000000000000000000000000000000000000000081526004016137cc91906151be565b60405180910390fd5b6137de81613c1b565b50565b6137e9614890565b73ffffffffffffffffffffffffffffffffffffffff166138076124a1565b73ffffffffffffffffffffffffffffffffffffffff16146138665761382a614890565b6040517f118cdaa700000000000000000000000000000000000000000000000000000000815260040161385d91906151be565b60405180910390fd5b565b60025f54036138a3576040517f3ee5aeb500000000000000000000000000000000000000000000000000000000815260040160405180910390fd5b60025f81905550565b5f5f600a5f8473ffffffffffffffffffffffffffffffffffffffff1673ffffffffffffffffffffffffffffffffffffffff1681526020019081526020015f206040518060600160405290815f82015481526020016001820154815260200160028201548152505090505f815f015103613928575f91505061397d565b5f8160200151426139399190615469565b90505f612710600f54845f01516139509190615994565b61395a9190615a02565b90506301e13380828261396d9190615994565b6139779190615a02565b93505050505b919050565b60015f81905550565b600b5f81548092919061399d9061594d565b91905055505f600b5490506040518061012001604052808281526020018360018111156139cd576139cc614c9c565b5b81526020015f81526020015f73ffffffffffffffffffffffffffffffffffffffff1681526020015f6002811115613a0757613a06614c9c565b5b81526020013481526020013481526020015f73ffffffffffffffffffffffffffffffffffffffff1681526020015f151581525060035f8381526020019081526020015f205f820151815f01556020820151816001015f6101000a81548160ff02191690836001811115613a7d57613a7c614c9c565b5b0217905550604082015181600201556060820151816003015f6101000a81548173ffffffffffffffffffffffffffffffffffffffff021916908373ffffffffffffffffffffffffffffffffffffffff16021790555060808201518160030160146101000a81548160ff02191690836002811115613afd57613afc614c9c565b5b021790555060a0820151816004015560c0820151816005015560e0820151816006015f6101000a81548173ffffffffffffffffffffffffffffffffffffffff021916908373ffffffffffffffffffffffffffffffffffffffff1602179055506101008201518160060160146101000a81548160ff0219169083151502179055509050505f60025f8381526020019081526020015f205f3373ffffffffffffffffffffffffffffffffffffffff1673ffffffffffffffffffffffffffffffffffffffff1681526020019081526020015f2081905550613bdb81336144cd565b807fe4216bf1ea74a23afc4c3fa522338d44ec4db2964ceb2b532d1db68869bf07f2833334604051613c0f93929190615c6f565b60405180910390a25050565b5f60015f9054906101000a900473ffffffffffffffffffffffffffffffffffffffff1690508160015f6101000a81548173ffffffffffffffffffffffffffffffffffffffff021916908373ffffffffffffffffffffffffffffffffffffffff1602179055508173ffffffffffffffffffffffffffffffffffffffff168173ffffffffffffffffffffffffffffffffffffffff167f8be0079c531659141344cd1fd0a4f28419497f9722a3daafe3b4186f6b6457e060405160405180910390a35050565b5f60045f8481526020019081526020015f20805480602002602001604051908101604052809291908181526020018280548015613d6d57602002820191905f5260205f20905b815f9054906101000a900473ffffffffffffffffffffffffffffffffffffffff1673ffffffffffffffffffffffffffffffffffffffff1681526020019060010190808311613d24575b505050505090505f8273ffffffffffffffffffffffffffffffffffffffff16825f81518110613d9f57613d9e615718565b5b602002602001015173ffffffffffffffffffffffffffffffffffffffff1614613de257815f81518110613dd557613dd4615718565b5b6020026020010151613dff565b81600181518110613df657613df5615718565b5b60200260200101515b9050613e0b8482614215565b50505050565b5f60045f8381526020019081526020015f20805480602002602001604051908101604052809291908181526020018280548015613ea057602002820191905f5260205f20905b815f9054906101000a900473ffffffffffffffffffffffffffffffffffffffff1673ffffffffffffffffffffffffffffffffffffffff1681526020019060010190808311613e57575b505050505090505f60035f8481526020019081526020015f206003015f9054906101000a900473ffffffffffffffffffffffffffffffffffffffff1690508073ffffffffffffffffffffffffffffffffffffffff16825f81518110613f0857613f07615718565b5b602002602001015173ffffffffffffffffffffffffffffffffffffffff1614613f4b57815f81518110613f3e57613f3d615718565b5b6020026020010151613f68565b81600181518110613f5f57613f5e615718565b5b60200260200101515b60035f8581526020019081526020015f206003015f6101000a81548173ffffffffffffffffffffffffffffffffffffffff021916908373ffffffffffffffffffffffffffffffffffffffff16021790555060105442613fc79190615504565b60065f8581526020019081526020015f2081905550505050565b5f5f8203613ff1575f905061420f565b5f60035f8581526020019081526020015f20604051806101200160405290815f8201548152602001600182015f9054906101000a900460ff16600181111561403c5761403b614c9c565b5b600181111561404e5761404d614c9c565b5b815260200160028201548152602001600382015f9054906101000a900473ffffffffffffffffffffffffffffffffffffffff1673ffffffffffffffffffffffffffffffffffffffff1673ffffffffffffffffffffffffffffffffffffffff1681526020016003820160149054906101000a900460ff1660028111156140d6576140d5614c9c565b5b60028111156140e8576140e7614c9c565b5b81526020016004820154815260200160058201548152602001600682015f9054906101000a900473ffffffffffffffffffffffffffffffffffffffff1673ffffffffffffffffffffffffffffffffffffffff1673ffffffffffffffffffffffffffffffffffffffff1681526020016006820160149054906101000a900460ff16151515158152505090505f600181111561418557614184614c9c565b5b8160200151600181111561419c5761419b614c9c565b5b036141ad576001831491505061420f565b5f6064600a83604001516141c19190615994565b6141cb9190615a02565b90505f81036141d957600190505b5f6064601e84604001516141ed9190615994565b6141f79190615a02565b90508185101580156142095750808511155b93505050505b92915050565b5f60035f8481526020019081526020015f20905060028160030160146101000a81548160ff0219169083600281111561425157614250614c9c565b5b021790555081816006015f6101000a81548173ffffffffffffffffffffffffffffffffffffffff021916908373ffffffffffffffffffffffffffffffffffffffff1602179055505f6064600c5483600501546142ad9190615994565b6142b79190615a02565b90505f8183600501546142ca9190615469565b90505f6142d685611238565b90505f606482846142e79190615994565b6142f19190615a02565b90508060075f8873ffffffffffffffffffffffffffffffffffffffff1673ffffffffffffffffffffffffffffffffffffffff1681526020019081526020015f205f82825461433f9190615504565b9250508190555060085f8773ffffffffffffffffffffffffffffffffffffffff1673ffffffffffffffffffffffffffffffffffffffff1681526020019081526020015f205f8154809291906143939061594d565b919050555083600d5f8282546143a99190615504565b925050819055505f73ffffffffffffffffffffffffffffffffffffffff16601160019054906101000a900473ffffffffffffffffffffffffffffffffffffffff1673ffffffffffffffffffffffffffffffffffffffff161461448a57601160019054906101000a900473ffffffffffffffffffffffffffffffffffffffff1673ffffffffffffffffffffffffffffffffffffffff1663d33a24ec886040518263ffffffff1660e01b81526004016144609190614e6e565b5f604051808303815f87803b158015614477575f5ffd5b505af1925050508015614488575060015b505b867ff5d92df6ae1a0b46d0a0c57c2e1da0d75d7591d2804ad086cb1e27ba67de7aaf87836040516144bc929190615ca4565b60405180910390a250505050505050565b5f60035f8481526020019081526020015f2090505f815f01541415801561452857505f600281111561450257614501614c9c565b5b8160030160149054906101000a900460ff16600281111561452657614525614c9c565b5b145b614567576040517f08c379a000000000000000000000000000000000000000000000000000000000815260040161455e90615d15565b60405180910390fd5b60055f8481526020019081526020015f205f8373ffffffffffffffffffffffffffffffffffffffff1673ffffffffffffffffffffffffffffffffffffffff1681526020019081526020015f205f9054906101000a900460ff1615614600576040517f08c379a00000000000000000000000000000000000000000000000000000000081526004016145f790615d7d565b60405180910390fd5b600260045f8581526020019081526020015f208054905010614657576040517f08c379a000000000000000000000000000000000000000000000000000000000815260040161464e90615de5565b60405180910390fd5b8060040154341461469d576040517f08c379a000000000000000000000000000000000000000000000000000000000815260040161469490615e4d565b60405180910390fd5b60045f8481526020019081526020015f2082908060018154018082558091505060019003905f5260205f20015f9091909190916101000a81548173ffffffffffffffffffffffffffffffffffffffff021916908373ffffffffffffffffffffffffffffffffffffffff16021790555034816005015f82825461471f9190615504565b92505081905550600160055f8581526020019081526020015f205f8473ffffffffffffffffffffffffffffffffffffffff1673ffffffffffffffffffffffffffffffffffffffff1681526020019081526020015f205f6101000a81548160ff02191690831515021790555060095f8373ffffffffffffffffffffffffffffffffffffffff1673ffffffffffffffffffffffffffffffffffffffff1681526020019081526020015f205f8154809291906147d79061594d565b91905055505f60025f8581526020019081526020015f205f8473ffffffffffffffffffffffffffffffffffffffff1673ffffffffffffffffffffffffffffffffffffffff1681526020019081526020015f2081905550827f87969bc7faf902221a147b95ceba76e011c5efb0339a0a8ee7a2bb82d9cfbbd68360405161485d91906151be565b60405180910390a2600260045f8581526020019081526020015f20805490500361488b5761488a83614897565b5b505050565b5f33905090565b5f60035f8381526020019081526020015f2090505f6148c683836001015f9054906101000a900460ff16614a07565b905080826002018190555060018260060160146101000a81548160ff02191690831515021790555060018260030160146101000a81548160ff0219169083600281111561491657614915614c9c565b5b021790555060045f8481526020019081526020015f205f8154811061493e5761493d615718565b5b905f5260205f20015f9054906101000a900473ffffffffffffffffffffffffffffffffffffffff16826003015f6101000a81548173ffffffffffffffffffffffffffffffffffffffff021916908373ffffffffffffffffffffffffffffffffffffffff160217905550601054426149b59190615504565b60065f8581526020019081526020015f2081905550827f38d9951b1e5d145a99cde7a8f3c7955b5bdb93cd10d52805d7f361cb4ba5a48a826040516149fa9190614e6e565b60405180910390a2505050565b5f5f60045f8581526020019081526020015f20805480602002602001604051908101604052809291908181526020018280548015614a9757602002820191905f5260205f20905b815f9054906101000a900473ffffffffffffffffffffffffffffffffffffffff1673ffffffffffffffffffffffffffffffffffffffff1681526020019060010190808311614a4e575b505050505090505f424486845f81518110614ab557614ab4615718565b5b602002602001015185600181518110614ad157614ad0615718565b5b60200260200101517fabcdef1234567890abcdef1234567890abcdef1234567890abcdef1234567890604051602001614b0f96959493929190615ed0565b604051602081830303815290604052805190602001205f1c90505f6001811115614b3c57614b3b614c9c565b5b846001811115614b4f57614b4e614c9c565b5b14614b7257607881614b619190615f3f565b6050614b6d9190615504565b614b8c565b602381614b7f9190615f3f565b600f614b8b9190615504565b5b9250505092915050565b6040518061012001604052805f81526020015f6001811115614bbb57614bba614c9c565b5b81526020015f81526020015f73ffffffffffffffffffffffffffffffffffffffff1681526020015f6002811115614bf557614bf4614c9c565b5b81526020015f81526020015f81526020015f73ffffffffffffffffffffffffffffffffffffffff1681526020015f151581525090565b5f5ffd5b5f819050919050565b614c4181614c2f565b8114614c4b575f5ffd5b50565b5f81359050614c5c81614c38565b92915050565b5f60208284031215614c7757614c76614c2b565b5b5f614c8484828501614c4e565b91505092915050565b614c9681614c2f565b82525050565b7f4e487b71000000000000000000000000000000000000000000000000000000005f52602160045260245ffd5b60028110614cda57614cd9614c9c565b5b50565b5f819050614cea82614cc9565b919050565b5f614cf982614cdd565b9050919050565b614d0981614cef565b82525050565b5f73ffffffffffffffffffffffffffffffffffffffff82169050919050565b5f614d3882614d0f565b9050919050565b614d4881614d2e565b82525050565b60038110614d5f57614d5e614c9c565b5b50565b5f819050614d6f82614d4e565b919050565b5f614d7e82614d62565b9050919050565b614d8e81614d74565b82525050565b5f8115159050919050565b614da881614d94565b82525050565b5f61012082019050614dc25f83018c614c8d565b614dcf602083018b614d00565b614ddc604083018a614c8d565b614de96060830189614d3f565b614df66080830188614d85565b614e0360a0830187614c8d565b614e1060c0830186614c8d565b614e1d60e0830185614d3f565b614e2b610100830184614d9f565b9a9950505050505050505050565b5f606082019050614e4c5f830186614c8d565b614e596020830185614c8d565b614e666040830184614c8d565b949350505050565b5f602082019050614e815f830184614c8d565b92915050565b614e9081614d94565b8114614e9a575f5ffd5b50565b5f81359050614eab81614e87565b92915050565b5f60208284031215614ec657614ec5614c2b565b5b5f614ed384828501614e9d565b91505092915050565b614ee581614d2e565b8114614eef575f5ffd5b50565b5f81359050614f0081614edc565b92915050565b5f5f60408385031215614f1c57614f1b614c2b565b5b5f614f2985828601614c4e565b9250506020614f3a85828601614ef2565b9150509250929050565b5f602082019050614f575f830184614d9f565b92915050565b5f60208284031215614f7257614f71614c2b565b5b5f614f7f84828501614ef2565b91505092915050565b5f81519050919050565b5f82825260208201905092915050565b8281835e5f83830152505050565b5f601f19601f8301169050919050565b5f614fca82614f88565b614fd48185614f92565b9350614fe4818560208601614fa2565b614fed81614fb0565b840191505092915050565b5f60e08201905061500b5f83018a614c8d565b6150186020830189614d9f565b818103604083015261502a8188614fc0565b90506150396060830187614c8d565b818103608083015261504b8186614fc0565b905061505a60a0830185614c8d565b61506760c0830184614c8d565b98975050505050505050565b5f81519050919050565b5f82825260208201905092915050565b5f819050602082019050919050565b6150a581614d2e565b82525050565b5f6150b6838361509c565b60208301905092915050565b5f602082019050919050565b5f6150d882615073565b6150e2818561507d565b93506150ed8361508d565b805f5b8381101561511d57815161510488826150ab565b975061510f836150c2565b9250506001810190506150f0565b5085935050505092915050565b5f6020820190508181035f83015261514281846150ce565b905092915050565b5f60e08201905061515d5f83018a614d85565b61516a6020830189614d3f565b818103604083015261517c81886150ce565b905061518b6060830187614c8d565b6151986080830186614d9f565b6151a560a0830185614d3f565b6151b260c0830184614c8d565b98975050505050505050565b5f6020820190506151d15f830184614d3f565b92915050565b6151e081614c2f565b82525050565b6151ef81614cef565b82525050565b6151fe81614d74565b82525050565b61520d81614d94565b82525050565b61012082015f8201516152285f8501826151d7565b50602082015161523b60208501826151e6565b50604082015161524e60408501826151d7565b506060820151615261606085018261509c565b50608082015161527460808501826151f5565b5060a082015161528760a08501826151d7565b5060c082015161529a60c08501826151d7565b5060e08201516152ad60e085018261509c565b506101008201516152c2610100850182615204565b50505050565b5f610120820190506152dc5f830184615213565b92915050565b5f6040820190506152f55f830185614c8d565b6153026020830184614c8d565b9392505050565b5f60a08201905061531c5f830188614c8d565b6153296020830187614c8d565b6153366040830186614c8d565b6153436060830185614c8d565b6153506080830184614c8d565b9695505050505050565b5f5f604083850312156153705761536f614c2b565b5b5f61537d85828601614c4e565b925050602061538e85828601614c4e565b9150509250929050565b5f6060820190506153ab5f830186614d9f565b6153b86020830185614c8d565b81810360408301526153ca8184614fc0565b9050949350505050565b7f546f6f20686967680000000000000000000000000000000000000000000000005f82015250565b5f615408600883614f92565b9150615413826153d4565b602082019050919050565b5f6020820190508181035f830152615435816153fc565b9050919050565b7f4e487b71000000000000000000000000000000000000000000000000000000005f52601160045260245ffd5b5f61547382614c2f565b915061547e83614c2f565b92508282039050818111156154965761549561543c565b5b92915050565b7f496e73756666696369656e7400000000000000000000000000000000000000005f82015250565b5f6154d0600c83614f92565b91506154db8261549c565b602082019050919050565b5f6020820190508181035f8301526154fd816154c4565b9050919050565b5f61550e82614c2f565b915061551983614c2f565b92508282019050808211156155315761553061543c565b5b92915050565b5f81905092915050565b50565b5f61554f5f83615537565b915061555a82615541565b5f82019050919050565b5f61556e82615544565b9150819050919050565b7f4661696c656400000000000000000000000000000000000000000000000000005f82015250565b5f6155ac600683614f92565b91506155b782615578565b602082019050919050565b5f6020820190508181035f8301526155d9816155a0565b9050919050565b7f4e6f2072657761726473000000000000000000000000000000000000000000005f82015250565b5f615614600a83614f92565b915061561f826155e0565b602082019050919050565b5f6020820190508181035f83015261564181615608565b9050919050565b7f4d757374207374616b65000000000000000000000000000000000000000000005f82015250565b5f61567c600a83614f92565b915061568782615648565b602082019050919050565b5f6020820190508181035f8301526156a981615670565b9050919050565b7f4e6f2062616c616e6365000000000000000000000000000000000000000000005f82015250565b5f6156e4600a83614f92565b91506156ef826156b0565b602082019050919050565b5f6020820190508181035f830152615711816156d8565b9050919050565b7f4e487b71000000000000000000000000000000000000000000000000000000005f52603260045260245ffd5b7f4e6f2066656573000000000000000000000000000000000000000000000000005f82015250565b5f615779600783614f92565b915061578482615745565b602082019050919050565b5f6020820190508181035f8301526157a68161576d565b9050919050565b7f50617573656400000000000000000000000000000000000000000000000000005f82015250565b5f6157e1600683614f92565b91506157ec826157ad565b602082019050919050565b5f6020820190508181035f83015261580e816157d5565b9050919050565b7f46656520726571756972656400000000000000000000000000000000000000005f82015250565b5f615849600c83614f92565b915061585482615815565b602082019050919050565b5f6020820190508181035f8301526158768161583d565b9050919050565b7f4e6f7420616374697665000000000000000000000000000000000000000000005f82015250565b5f6158b1600a83614f92565b91506158bc8261587d565b602082019050919050565b5f6020820190508181035f8301526158de816158a5565b9050919050565b7f4e6f2074696d656f7574000000000000000000000000000000000000000000005f82015250565b5f615919600a83614f92565b9150615924826158e5565b602082019050919050565b5f6020820190508181035f8301526159468161590d565b9050919050565b5f61595782614c2f565b91507fffffffffffffffffffffffffffffffffffffffffffffffffffffffffffffffff82036159895761598861543c565b5b600182019050919050565b5f61599e82614c2f565b91506159a983614c2f565b92508282026159b781614c2f565b915082820484148315176159ce576159cd61543c565b5b5092915050565b7f4e487b71000000000000000000000000000000000000000000000000000000005f52601260045260245ffd5b5f615a0c82614c2f565b9150615a1783614c2f565b925082615a2757615a266159d5565b5b828204905092915050565b7f4e6f206e756d62657200000000000000000000000000000000000000000000005f82015250565b5f615a66600983614f92565b9150615a7182615a32565b602082019050919050565b5f6020820190508181035f830152615a9381615a5a565b9050919050565b7f4e6f74207475726e0000000000000000000000000000000000000000000000005f82015250565b5f615ace600883614f92565b9150615ad982615a9a565b602082019050919050565b5f6020820190508181035f830152615afb81615ac2565b9050919050565b7f54696d656f7574000000000000000000000000000000000000000000000000005f82015250565b5f615b36600783614f92565b9150615b4182615b02565b602082019050919050565b5f6020820190508181035f830152615b6381615b2a565b9050919050565b7f496e76616c6964000000000000000000000000000000000000000000000000005f82015250565b5f615b9e600783614f92565b9150615ba982615b6a565b602082019050919050565b5f6020820190508181035f830152615bcb81615b92565b9050919050565b5f606082019050615be55f830186614d3f565b615bf26020830185614c8d565b615bff6040830184614c8d565b949350505050565b7f496e76616c69642072616e6765000000000000000000000000000000000000005f82015250565b5f615c3b600d83614f92565b9150615c4682615c07565b602082019050919050565b5f6020820190508181035f830152615c6881615c2f565b9050919050565b5f606082019050615c825f830186614d00565b615c8f6020830185614d3f565b615c9c6040830184614c8d565b949350505050565b5f604082019050615cb75f830185614d3f565b615cc46020830184614c8d565b9392505050565b7f43616e6e6f74206a6f696e0000000000000000000000000000000000000000005f82015250565b5f615cff600b83614f92565b9150615d0a82615ccb565b602082019050919050565b5f6020820190508181035f830152615d2c81615cf3565b9050919050565b7f416c726561647920696e000000000000000000000000000000000000000000005f82015250565b5f615d67600a83614f92565b9150615d7282615d33565b602082019050919050565b5f6020820190508181035f830152615d9481615d5b565b9050919050565b7f46756c6c000000000000000000000000000000000000000000000000000000005f82015250565b5f615dcf600483614f92565b9150615dda82615d9b565b602082019050919050565b5f6020820190508181035f830152615dfc81615dc3565b9050919050565b7f57726f6e672066656500000000000000000000000000000000000000000000005f82015250565b5f615e37600983614f92565b9150615e4282615e03565b602082019050919050565b5f6020820190508181035f830152615e6481615e2b565b9050919050565b5f819050919050565b615e85615e8082614c2f565b615e6b565b82525050565b5f8160601b9050919050565b5f615ea182615e8b565b9050919050565b5f615eb282615e97565b9050919050565b615eca615ec582614d2e565b615ea8565b82525050565b5f615edb8289615e74565b602082019150615eeb8288615e74565b602082019150615efb8287615e74565b602082019150615f0b8286615eb9565b601482019150615f1b8285615eb9565b601482019150615f2b8284615e74565b602082019150819050979650505050505050565b5f615f4982614c2f565b9150615f5483614c2f565b925082615f6457615f636159d5565b5b82820690509291505056fe426f746820706c6179657273202b20626c6f636b2064617461202b20637573746f6d2073616c7446494e414c205741524e494e47202d204e6578742074696d656f7574203d204c4f53532147616d652061637469766520285741524e494e473a20312074696d656f7574207573656429a2646970667358221220a5f935b97d7024d11b5ab1328fad3dd57f32bf65bc07d4c90d9f1f141ab08ae264736f6c634300081c0033","linkReferences":{}},"methodIdentifiers":{"MAX_TIMEOUTS()":"b79fdcc5","balances(address)":"27e235e3","claimRewards()":"372500ab","createQuickDraw()":"85682a5e","createStrategic()":"55e46c89","emergency()":"caa6fea4","fees()":"9af1d35a","gameCounter()":"2e0be39a","gamePlayers(uint256,uint256)":"dfefef9f","games(uint256)":"117a5b90","getBonus(address)":"3a740a63","getGame(uint256)":"a2f77bcc","getGameForSpectators(uint256)":"4d389e78","getPlatformStats()":"136d8883","getPlayerView(uint256)":"3d2a9026","getPlayers(uint256)":"460e2049","getStats(address)":"c23f85d6","getTimeoutStatus(uint256,address)":"bcd9e0c3","handleTimeout(uint256)":"b4f36264","isGameBettable(uint256)":"5f5e3e91","isInGame(uint256,address)":"3a9a3073","isOnFinalWarning(uint256,address)":"1c07ec9d","isTimedOut(uint256)":"cc8ac988","joinGame(uint256)":"efaa55a0","makeMove(uint256,uint256)":"dea9456d","owner()":"8da5cb5b","paused()":"5c975abb","platformFee()":"26232a2e","played(address)":"1cc60908","playerTimeouts(uint256,address)":"53226bd0","renounceOwnership()":"715018a6","setPaused(bool)":"16c38b3c","setPlatformFee(uint256)":"12e8e2c3","setSpectatorContract(address)":"b6f5b3a6","setStakingAPY(uint256)":"25d3f8cb","setTimeLimit(uint256)":"e2889c82","spectatorContract()":"88b7225e","stake()":"3a4b66f1","staking(address)":"d764b78f","stakingAPY()":"1531b62a","timeLimit()":"c08d1fe5","totalStaked()":"817b1cd2","transferOwnership(address)":"f2fde38b","turnDeadlines(uint256)":"c3cb4e7a","unstake(uint256)":"2e17de78","verifyFairness(uint256)":"ed6fe707","wins(address)":"8047a97a","withdraw()":"3ccfd60b","withdrawFees()":"476343ee"},"id":28}