{"abi":[{"type":"constructor","inputs":[],"stateMutability":"nonpayable"},{"type":"function","name":"balances","inputs":[{"name":"","type":"address","internalType":"address"}],"outputs":[{"name":"","type":"uint256","internalType":"uint256"}],"stateMutability":"view"},{"type":"function","name":"createPureMysteryGame","inputs":[],"outputs":[],"stateMutability":"payable"},{"type":"function","name":"emergencyRevealNumber","inputs":[{"name":"_id","type":"uint256","internalType":"uint256"}],"outputs":[{"name":"actualNumber","type":"uint256","internalType":"uint256"},{"name":"remainingNumber","type":"uint256","internalType":"uint256"},{"name":"displayMin","type":"uint256","internalType":"uint256"},{"name":"displayMax","type":"uint256","internalType":"uint256"}],"stateMutability":"view"},{"type":"function","name":"emergencyWithdraw","inputs":[],"outputs":[],"stateMutability":"nonpayable"},{"type":"function","name":"fees","inputs":[],"outputs":[{"name":"","type":"uint256","internalType":"uint256"}],"stateMutability":"view"},{"type":"function","name":"gameCounter","inputs":[],"outputs":[{"name":"","type":"uint256","internalType":"uint256"}],"stateMutability":"view"},{"type":"function","name":"games","inputs":[{"name":"","type":"uint256","internalType":"uint256"}],"outputs":[{"name":"gameId","type":"uint256","internalType":"uint256"},{"name":"actualNumber","type":"uint256","internalType":"uint256"},{"name":"currentPlayer","type":"address","internalType":"address"},{"name":"status","type":"uint8","internalType":"enum ZeroSumPureMystery.GameStatus"},{"name":"entryFee","type":"uint256","internalType":"uint256"},{"name":"prizePool","type":"uint256","internalType":"uint256"},{"name":"winner","type":"address","internalType":"address"},{"name":"moveCount","type":"uint256","internalType":"uint256"},{"name":"isStarted","type":"bool","internalType":"bool"},{"name":"player1","type":"address","internalType":"address"},{"name":"player2","type":"address","internalType":"address"}],"stateMutability":"view"},{"type":"function","name":"getDisplayedRange","inputs":[{"name":"_id","type":"uint256","internalType":"uint256"}],"outputs":[{"name":"minRange","type":"uint256","internalType":"uint256"},{"name":"maxRange","type":"uint256","internalType":"uint256"},{"name":"hint","type":"string","internalType":"string"}],"stateMutability":"view"},{"type":"function","name":"getGame","inputs":[{"name":"_id","type":"uint256","internalType":"uint256"}],"outputs":[{"name":"gameId","type":"uint256","internalType":"uint256"},{"name":"actualNumber","type":"uint256","internalType":"uint256"},{"name":"currentPlayer","type":"address","internalType":"address"},{"name":"status","type":"uint8","internalType":"enum ZeroSumPureMystery.GameStatus"},{"name":"entryFee","type":"uint256","internalType":"uint256"},{"name":"prizePool","type":"uint256","internalType":"uint256"},{"name":"winner","type":"address","internalType":"address"},{"name":"moveCount","type":"uint256","internalType":"uint256"},{"name":"isStarted","type":"bool","internalType":"bool"},{"name":"player1","type":"address","internalType":"address"},{"name":"player2","type":"address","internalType":"address"}],"stateMutability":"view"},{"type":"function","name":"getGameForSpectators","inputs":[{"name":"_id","type":"uint256","internalType":"uint256"}],"outputs":[{"name":"status","type":"uint8","internalType":"enum ZeroSumPureMystery.GameStatus"},{"name":"winner","type":"address","internalType":"address"},{"name":"players","type":"address[]","internalType":"address[]"},{"name":"currentNumber","type":"uint256","internalType":"uint256"},{"name":"numberGenerated","type":"bool","internalType":"bool"},{"name":"currentPlayer","type":"address","internalType":"address"},{"name":"mode","type":"uint256","internalType":"uint256"}],"stateMutability":"view"},{"type":"function","name":"getLastMove","inputs":[{"name":"_id","type":"uint256","internalType":"uint256"}],"outputs":[{"name":"lastPlayer","type":"address","internalType":"address"},{"name":"lastSubtraction","type":"uint256","internalType":"uint256"},{"name":"lastResult","type":"uint8","internalType":"enum ZeroSumPureMystery.MoveResult"},{"name":"lastFeedback","type":"string","internalType":"string"}],"stateMutability":"view"},{"type":"function","name":"getMoveHistory","inputs":[{"name":"_id","type":"uint256","internalType":"uint256"}],"outputs":[{"name":"","type":"tuple[]","internalType":"struct ZeroSumPureMystery.MoveHistory[]","components":[{"name":"player","type":"address","internalType":"address"},{"name":"attemptedSubtraction","type":"uint256","internalType":"uint256"},{"name":"result","type":"uint8","internalType":"enum ZeroSumPureMystery.MoveResult"},{"name":"moveNumber","type":"uint256","internalType":"uint256"},{"name":"feedback","type":"string","internalType":"string"}]}],"stateMutability":"view"},{"type":"function","name":"getPlayerView","inputs":[{"name":"_id","type":"uint256","internalType":"uint256"}],"outputs":[{"name":"gameInfo","type":"string","internalType":"string"},{"name":"yourTurn","type":"bool","internalType":"bool"},{"name":"status","type":"string","internalType":"string"},{"name":"timeLeft","type":"uint256","internalType":"uint256"},{"name":"rangeDisplay","type":"string","internalType":"string"}],"stateMutability":"view"},{"type":"function","name":"getPlayers","inputs":[{"name":"_id","type":"uint256","internalType":"uint256"}],"outputs":[{"name":"","type":"address","internalType":"address"},{"name":"","type":"address","internalType":"address"}],"stateMutability":"view"},{"type":"function","name":"getStats","inputs":[{"name":"_player","type":"address","internalType":"address"}],"outputs":[{"name":"balance","type":"uint256","internalType":"uint256"},{"name":"totalWins","type":"uint256","internalType":"uint256"},{"name":"totalPlayed","type":"uint256","internalType":"uint256"},{"name":"winPercentage","type":"uint256","internalType":"uint256"}],"stateMutability":"view"},{"type":"function","name":"handleTimeout","inputs":[{"name":"_id","type":"uint256","internalType":"uint256"}],"outputs":[],"stateMutability":"nonpayable"},{"type":"function","name":"isGameBettable","inputs":[{"name":"_id","type":"uint256","internalType":"uint256"}],"outputs":[{"name":"","type":"bool","internalType":"bool"}],"stateMutability":"view"},{"type":"function","name":"isInGame","inputs":[{"name":"","type":"uint256","internalType":"uint256"},{"name":"","type":"address","internalType":"address"}],"outputs":[{"name":"","type":"bool","internalType":"bool"}],"stateMutability":"view"},{"type":"function","name":"joinGame","inputs":[{"name":"_id","type":"uint256","internalType":"uint256"}],"outputs":[],"stateMutability":"payable"},{"type":"function","name":"makeMove","inputs":[{"name":"_id","type":"uint256","internalType":"uint256"},{"name":"_sub","type":"uint256","internalType":"uint256"}],"outputs":[],"stateMutability":"nonpayable"},{"type":"function","name":"maxStrikes","inputs":[],"outputs":[{"name":"","type":"uint256","internalType":"uint256"}],"stateMutability":"view"},{"type":"function","name":"moveHistory","inputs":[{"name":"","type":"uint256","internalType":"uint256"},{"name":"","type":"uint256","internalType":"uint256"}],"outputs":[{"name":"player","type":"address","internalType":"address"},{"name":"attemptedSubtraction","type":"uint256","internalType":"uint256"},{"name":"result","type":"uint8","internalType":"enum ZeroSumPureMystery.MoveResult"},{"name":"moveNumber","type":"uint256","internalType":"uint256"},{"name":"feedback","type":"string","internalType":"string"}],"stateMutability":"view"},{"type":"function","name":"owner","inputs":[],"outputs":[{"name":"","type":"address","internalType":"address"}],"stateMutability":"view"},{"type":"function","name":"paused","inputs":[],"outputs":[{"name":"","type":"bool","internalType":"bool"}],"stateMutability":"view"},{"type":"function","name":"platformFee","inputs":[],"outputs":[{"name":"","type":"uint256","internalType":"uint256"}],"stateMutability":"view"},{"type":"function","name":"played","inputs":[{"name":"","type":"address","internalType":"address"}],"outputs":[{"name":"","type":"uint256","internalType":"uint256"}],"stateMutability":"view"},{"type":"function","name":"renounceOwnership","inputs":[],"outputs":[],"stateMutability":"nonpayable"},{"type":"function","name":"setPaused","inputs":[{"name":"_paused","type":"bool","internalType":"bool"}],"outputs":[],"stateMutability":"nonpayable"},{"type":"function","name":"setPlatformFee","inputs":[{"name":"_fee","type":"uint256","internalType":"uint256"}],"outputs":[],"stateMutability":"nonpayable"},{"type":"function","name":"setSpectatorContract","inputs":[{"name":"_spectator","type":"address","internalType":"address"}],"outputs":[],"stateMutability":"nonpayable"},{"type":"function","name":"setTimeLimit","inputs":[{"name":"_seconds","type":"uint256","internalType":"uint256"}],"outputs":[],"stateMutability":"nonpayable"},{"type":"function","name":"spectatorContract","inputs":[],"outputs":[{"name":"","type":"address","internalType":"address"}],"stateMutability":"view"},{"type":"function","name":"timeLimit","inputs":[],"outputs":[{"name":"","type":"uint256","internalType":"uint256"}],"stateMutability":"view"},{"type":"function","name":"timeouts","inputs":[{"name":"","type":"uint256","internalType":"uint256"},{"name":"","type":"address","internalType":"address"}],"outputs":[{"name":"","type":"uint256","internalType":"uint256"}],"stateMutability":"view"},{"type":"function","name":"transferOwnership","inputs":[{"name":"newOwner","type":"address","internalType":"address"}],"outputs":[],"stateMutability":"nonpayable"},{"type":"function","name":"turnDeadlines","inputs":[{"name":"","type":"uint256","internalType":"uint256"}],"outputs":[{"name":"","type":"uint256","internalType":"uint256"}],"stateMutability":"view"},{"type":"function","name":"verifyFairness","inputs":[{"name":"_id","type":"uint256","internalType":"uint256"}],"outputs":[{"name":"wasGameCompleted","type":"bool","internalType":"bool"},{"name":"actualStartingNumber","type":"uint256","internalType":"uint256"},{"name":"actualRange","type":"uint256","internalType":"uint256"},{"name":"displayedMin","type":"uint256","internalType":"uint256"},{"name":"displayedMax","type":"uint256","internalType":"uint256"},{"name":"proof","type":"string","internalType":"string"}],"stateMutability":"view"},{"type":"function","name":"wins","inputs":[{"name":"","type":"address","internalType":"address"}],"outputs":[{"name":"","type":"uint256","internalType":"uint256"}],"stateMutability":"view"},{"type":"function","name":"withdraw","inputs":[],"outputs":[],"stateMutability":"nonpayable"},{"type":"function","name":"withdrawFees","inputs":[],"outputs":[],"stateMutability":"nonpayable"},{"type":"event","name":"GameCreated","inputs":[{"name":"gameId","type":"uint256","indexed":true,"internalType":"uint256"},{"name":"creator","type":"address","indexed":false,"internalType":"address"},{"name":"entryFee","type":"uint256","indexed":false,"internalType":"uint256"}],"anonymous":false},{"type":"event","name":"GameFinished","inputs":[{"name":"gameId","type":"uint256","indexed":true,"internalType":"uint256"},{"name":"winner","type":"address","indexed":false,"internalType":"address"},{"name":"earnings","type":"uint256","indexed":false,"internalType":"uint256"}],"anonymous":false},{"type":"event","name":"MoveMade","inputs":[{"name":"gameId","type":"uint256","indexed":true,"internalType":"uint256"},{"name":"player","type":"address","indexed":false,"internalType":"address"},{"name":"subtraction","type":"uint256","indexed":false,"internalType":"uint256"},{"name":"result","type":"uint8","indexed":false,"internalType":"enum ZeroSumPureMystery.MoveResult"},{"name":"feedback","type":"string","indexed":false,"internalType":"string"}],"anonymous":false},{"type":"event","name":"OwnershipTransferred","inputs":[{"name":"previousOwner","type":"address","indexed":true,"internalType":"address"},{"name":"newOwner","type":"address","indexed":true,"internalType":"address"}],"anonymous":false},{"type":"event","name":"PlayerJoined","inputs":[{"name":"gameId","type":"uint256","indexed":true,"internalType":"uint256"},{"name":"player","type":"address","indexed":false,"internalType":"address"}],"anonymous":false},{"type":"event","name":"PureMysteryGameStarted","inputs":[{"name":"gameId","type":"uint256","indexed":true,"internalType":"uint256"},{"name":"displayMin","type":"uint256","indexed":false,"internalType":"uint256"},{"name":"displayMax","type":"uint256","indexed":false,"internalType":"uint256"}],"anonymous":false},{"type":"event","name":"TurnPassed","inputs":[{"name":"gameId","type":"uint256","indexed":true,"internalType":"uint256"},{"name":"player","type":"address","indexed":true,"internalType":"address"},{"name":"attemptedSubtraction","type":"uint256","indexed":false,"internalType":"uint256"}],"anonymous":false},{"type":"error","name":"OwnableInvalidOwner","inputs":[{"name":"owner","type":"address","internalType":"address"}]},{"type":"error","name":"OwnableUnauthorizedAccount","inputs":[{"name":"account","type":"address","internalType":"address"}]},{"type":"error","name":"ReentrancyGuardReentrantCall","inputs":[]}],"bytecode":{"object":"0x60806040526005600f5561012c601155600260125534801561001f575f5ffd5b503360015f819055505f73ffffffffffffffffffffffffffffffffffffffff168173ffffffffffffffffffffffffffffffffffffffff1603610098575f6040517f1e4fbdf700000000000000000000000000000000000000000000000000000000815260040161008f91906101af565b60405180910390fd5b6100a7816100ad60201b60201c565b506101c8565b5f60015f9054906101000a900473ffffffffffffffffffffffffffffffffffffffff1690508160015f6101000a81548173ffffffffffffffffffffffffffffffffffffffff021916908373ffffffffffffffffffffffffffffffffffffffff1602179055508173ffffffffffffffffffffffffffffffffffffffff168173ffffffffffffffffffffffffffffffffffffffff167f8be0079c531659141344cd1fd0a4f28419497f9722a3daafe3b4186f6b6457e060405160405180910390a35050565b5f73ffffffffffffffffffffffffffffffffffffffff82169050919050565b5f61019982610170565b9050919050565b6101a98161018f565b82525050565b5f6020820190506101c25f8301846101a0565b92915050565b6162a6806101d55f395ff3fe60806040526004361061023a575f3560e01c806388b7225e1161012d578063c3cb4e7a116100aa578063e57ffcc71161006e578063e57ffcc7146108fd578063ed6fe70714610907578063efaa55a014610948578063f2fde38b14610964578063fd7caf161461098c5761023a565b8063c3cb4e7a1461081d578063c6386e7c14610859578063db2e21bc14610897578063dea9456d146108ad578063e2889c82146108d55761023a565b8063b6f5b3a6116100f1578063b6f5b3a61461070d578063ba20286814610735578063c08d1fe514610775578063c23f85d61461079f578063c309b358146107de5761023a565b806388b7225e146106215780638da5cb5b1461064b5780639af1d35a14610675578063a2f77bcc1461069f578063b4f36264146106e55761023a565b8063460e2049116101bb5780635d981a601161017f5780635d981a601461052d5780635f5e3e911461056957806370f6a319146105a5578063715018a6146105cf5780638047a97a146105e55761023a565b8063460e204914610432578063476343ee1461046f5780634802efc2146104855780634d389e78146104c15780635c975abb146105035761023a565b806327e235e31161020257806327e235e31461033a5780632e0be39a146103765780633a9a3073146103a05780633ccfd60b146103dc5780633d2a9026146103f25761023a565b8063117a5b901461023e57806312e8e2c31461028457806316c38b3c146102ac5780631cc60908146102d457806326232a2e14610310575b5f5ffd5b348015610249575f5ffd5b50610264600480360381019061025f91906147a5565b6109cb565b60405161027b9b9a999897969594939291906148ab565b60405180910390f35b34801561028f575f5ffd5b506102aa60048036038101906102a591906147a5565b610ab7565b005b3480156102b7575f5ffd5b506102d260048036038101906102cd919061497e565b610b0d565b005b3480156102df575f5ffd5b506102fa60048036038101906102f591906149d3565b610b31565b60405161030791906149fe565b60405180910390f35b34801561031b575f5ffd5b50610324610b46565b60405161033191906149fe565b60405180910390f35b348015610345575f5ffd5b50610360600480360381019061035b91906149d3565b610b4c565b60405161036d91906149fe565b60405180910390f35b348015610381575f5ffd5b5061038a610b61565b60405161039791906149fe565b60405180910390f35b3480156103ab575f5ffd5b506103c660048036038101906103c19190614a17565b610b67565b6040516103d39190614a55565b60405180910390f35b3480156103e7575f5ffd5b506103f0610b91565b005b3480156103fd575f5ffd5b50610418600480360381019061041391906147a5565b610d12565b604051610429959493929190614ade565b60405180910390f35b34801561043d575f5ffd5b50610458600480360381019061045391906147a5565b611362565b604051610466929190614b44565b60405180910390f35b34801561047a575f5ffd5b50610483611575565b005b348015610490575f5ffd5b506104ab60048036038101906104a691906147a5565b61168f565b6040516104b89190614d45565b60405180910390f35b3480156104cc575f5ffd5b506104e760048036038101906104e291906147a5565b61182e565b6040516104fa9796959493929190614e0d565b60405180910390f35b34801561050e575f5ffd5b50610517611bcb565b6040516105249190614a55565b60405180910390f35b348015610538575f5ffd5b50610553600480360381019061054e9190614a17565b611bdd565b60405161056091906149fe565b60405180910390f35b348015610574575f5ffd5b5061058f600480360381019061058a91906147a5565b611bfd565b60405161059c9190614a55565b60405180910390f35b3480156105b0575f5ffd5b506105b9611e6e565b6040516105c691906149fe565b60405180910390f35b3480156105da575f5ffd5b506105e3611e74565b005b3480156105f0575f5ffd5b5061060b600480360381019061060691906149d3565b611e87565b60405161061891906149fe565b60405180910390f35b34801561062c575f5ffd5b50610635611e9c565b6040516106429190614e81565b60405180910390f35b348015610656575f5ffd5b5061065f611ec2565b60405161066c9190614e81565b60405180910390f35b348015610680575f5ffd5b50610689611eea565b60405161069691906149fe565b60405180910390f35b3480156106aa575f5ffd5b506106c560048036038101906106c091906147a5565b611ef0565b6040516106dc9b9a999897969594939291906148ab565b60405180910390f35b3480156106f0575f5ffd5b5061070b600480360381019061070691906147a5565b612151565b005b348015610718575f5ffd5b50610733600480360381019061072e91906149d3565b6123d5565b005b348015610740575f5ffd5b5061075b60048036038101906107569190614e9a565b612421565b60405161076c959493929190614ee7565b60405180910390f35b348015610780575f5ffd5b5061078961251e565b60405161079691906149fe565b60405180910390f35b3480156107aa575f5ffd5b506107c560048036038101906107c091906149d3565b612524565b6040516107d59493929190614f3f565b60405180910390f35b3480156107e9575f5ffd5b5061080460048036038101906107ff91906147a5565b6126ce565b6040516108149493929190614f3f565b60405180910390f35b348015610828575f5ffd5b50610843600480360381019061083e91906147a5565b6127b8565b60405161085091906149fe565b60405180910390f35b348015610864575f5ffd5b5061087f600480360381019061087a91906147a5565b6127cd565b60405161088e93929190614f82565b60405180910390f35b3480156108a2575f5ffd5b506108ab61287b565b005b3480156108b8575f5ffd5b506108d360048036038101906108ce9190614e9a565b612935565b005b3480156108e0575f5ffd5b506108fb60048036038101906108f691906147a5565b612f16565b005b610905612fb1565b005b348015610912575f5ffd5b5061092d600480360381019061092891906147a5565b6133b9565b60405161093f96959493929190614fbe565b60405180910390f35b610962600480360381019061095d91906147a5565b6134bb565b005b34801561096f575f5ffd5b5061098a600480360381019061098591906149d3565b61386b565b005b348015610997575f5ffd5b506109b260048036038101906109ad91906147a5565b6138ef565b6040516109c29493929190615024565b60405180910390f35b6006602052805f5260405f205f91509050805f015490806001015490806002015f9054906101000a900473ffffffffffffffffffffffffffffffffffffffff16908060020160149054906101000a900460ff1690806003015490806004015490806005015f9054906101000a900473ffffffffffffffffffffffffffffffffffffffff1690806006015490806007015f9054906101000a900460ff16908060070160019054906101000a900473ffffffffffffffffffffffffffffffffffffffff1690806008015f9054906101000a900473ffffffffffffffffffffffffffffffffffffffff1690508b565b610abf613b2c565b600a811115610b03576040517f08c379a0000000000000000000000000000000000000000000000000000000008152600401610afa906150b8565b60405180910390fd5b80600f8190555050565b610b15613b2c565b8060135f6101000a81548160ff02191690831515021790555050565b600d602052805f5260405f205f915090505481565b600f5481565b600b602052805f5260405f205f915090505481565b600e5481565b6007602052815f5260405f20602052805f5260405f205f915091509054906101000a900460ff1681565b610b99613bb3565b5f600b5f3373ffffffffffffffffffffffffffffffffffffffff1673ffffffffffffffffffffffffffffffffffffffff1681526020019081526020015f205490505f8111610c1c576040517f08c379a0000000000000000000000000000000000000000000000000000000008152600401610c1390615120565b60405180910390fd5b5f600b5f3373ffffffffffffffffffffffffffffffffffffffff1673ffffffffffffffffffffffffffffffffffffffff1681526020019081526020015f20819055505f3373ffffffffffffffffffffffffffffffffffffffff1682604051610c839061516b565b5f6040518083038185875af1925050503d805f8114610cbd576040519150601f19603f3d011682016040523d82523d5f602084013e610cc2565b606091505b5050905080610d06576040517f08c379a0000000000000000000000000000000000000000000000000000000008152600401610cfd906151c9565b60405180910390fd5b5050610d10613bf7565b565b60605f60605f60605f60065f8881526020019081526020015f20604051806101600160405290815f820154815260200160018201548152602001600282015f9054906101000a900473ffffffffffffffffffffffffffffffffffffffff1673ffffffffffffffffffffffffffffffffffffffff1673ffffffffffffffffffffffffffffffffffffffff1681526020016002820160149054906101000a900460ff166002811115610dc557610dc461481e565b5b6002811115610dd757610dd661481e565b5b81526020016003820154815260200160048201548152602001600582015f9054906101000a900473ffffffffffffffffffffffffffffffffffffffff1673ffffffffffffffffffffffffffffffffffffffff1673ffffffffffffffffffffffffffffffffffffffff16815260200160068201548152602001600782015f9054906101000a900460ff161515151581526020016007820160019054906101000a900473ffffffffffffffffffffffffffffffffffffffff1673ffffffffffffffffffffffffffffffffffffffff1673ffffffffffffffffffffffffffffffffffffffff168152602001600882015f9054906101000a900473ffffffffffffffffffffffffffffffffffffffff1673ffffffffffffffffffffffffffffffffffffffff1673ffffffffffffffffffffffffffffffffffffffff16815250509050806040015173ffffffffffffffffffffffffffffffffffffffff163373ffffffffffffffffffffffffffffffffffffffff16148015610fa1575060125460085f8981526020019081526020015f205f3373ffffffffffffffffffffffffffffffffffffffff1673ffffffffffffffffffffffffffffffffffffffff1681526020019081526020015f2054105b94505f6002811115610fb657610fb561481e565b5b81606001516002811115610fcd57610fcc61481e565b5b03611062576040518060600160405280602481526020016161906024913995506040518060400160405280600781526020017f57616974696e670000000000000000000000000000000000000000000000000081525093506040518060400160405280601681526020017f50757265204d797374657279206177616974732e2e2e000000000000000000008152509150611319565b600160028111156110765761107561481e565b5b8160600151600281111561108d5761108c61481e565b5b03611189576040518060600160405280603681526020016161ed6036913995506040518060400160405280600681526020017f416374697665000000000000000000000000000000000000000000000000000081525093508061010001511561114b5761110a60045f8981526020019081526020015f2054613c00565b61112460055f8a81526020019081526020015f2054613c00565b6040516020016111359291906152ff565b6040516020818303038152906040529150611184565b6040518060400160405280601b81526020017f47656e65726174696e67206d7973746572792072616e67652e2e2e000000000081525091505b611318565b3373ffffffffffffffffffffffffffffffffffffffff168160c0015173ffffffffffffffffffffffffffffffffffffffff16146111fb576040518060400160405280600d81526020017f47616d652066696e697368656400000000000000000000000000000000000000815250611232565b6040518060400160405280601181526020017f566963746f7279206163686965766564210000000000000000000000000000008152505b95503373ffffffffffffffffffffffffffffffffffffffff168160c0015173ffffffffffffffffffffffffffffffffffffffff16146112a6576040518060400160405280600481526020017f4c6f7374000000000000000000000000000000000000000000000000000000008152506112dd565b6040518060400160405280600381526020017f576f6e00000000000000000000000000000000000000000000000000000000008152505b93506040518060400160405280600981526020017f47616d65206f766572000000000000000000000000000000000000000000000081525091505b5b60095f8881526020019081526020015f2054421015611354574260095f8981526020019081526020015f205461134f9190615370565b611356565b5f5b92505091939590929450565b5f5f5f60065f8581526020019081526020015f20604051806101600160405290815f820154815260200160018201548152602001600282015f9054906101000a900473ffffffffffffffffffffffffffffffffffffffff1673ffffffffffffffffffffffffffffffffffffffff1673ffffffffffffffffffffffffffffffffffffffff1681526020016002820160149054906101000a900460ff16600281111561140f5761140e61481e565b5b60028111156114215761142061481e565b5b81526020016003820154815260200160048201548152602001600582015f9054906101000a900473ffffffffffffffffffffffffffffffffffffffff1673ffffffffffffffffffffffffffffffffffffffff1673ffffffffffffffffffffffffffffffffffffffff16815260200160068201548152602001600782015f9054906101000a900460ff161515151581526020016007820160019054906101000a900473ffffffffffffffffffffffffffffffffffffffff1673ffffffffffffffffffffffffffffffffffffffff1673ffffffffffffffffffffffffffffffffffffffff168152602001600882015f9054906101000a900473ffffffffffffffffffffffffffffffffffffffff1673ffffffffffffffffffffffffffffffffffffffff1673ffffffffffffffffffffffffffffffffffffffff168152505090508061012001518161014001519250925050915091565b61157d613b2c565b611585613bb3565b5f60105490505f81116115cd576040517f08c379a00000000000000000000000000000000000000000000000000000000081526004016115c4906153ed565b60405180910390fd5b5f6010819055505f6115dd611ec2565b73ffffffffffffffffffffffffffffffffffffffff16826040516116009061516b565b5f6040518083038185875af1925050503d805f811461163a576040519150601f19603f3d011682016040523d82523d5f602084013e61163f565b606091505b5050905080611683576040517f08c379a000000000000000000000000000000000000000000000000000000000815260040161167a90615455565b60405180910390fd5b505061168d613bf7565b565b6060600a5f8381526020019081526020015f20805480602002602001604051908101604052809291908181526020015f905b82821015611823578382905f5260205f2090600502016040518060a00160405290815f82015f9054906101000a900473ffffffffffffffffffffffffffffffffffffffff1673ffffffffffffffffffffffffffffffffffffffff1673ffffffffffffffffffffffffffffffffffffffff16815260200160018201548152602001600282015f9054906101000a900460ff1660028111156117645761176361481e565b5b60028111156117765761177561481e565b5b815260200160038201548152602001600482018054611794906154a0565b80601f01602080910402602001604051908101604052809291908181526020018280546117c0906154a0565b801561180b5780601f106117e25761010080835404028352916020019161180b565b820191905f5260205f20905b8154815290600101906020018083116117ee57829003601f168201915b505050505081525050815260200190600101906116c1565b505050509050919050565b5f5f60605f5f5f5f5f60065f8a81526020019081526020015f20604051806101600160405290815f820154815260200160018201548152602001600282015f9054906101000a900473ffffffffffffffffffffffffffffffffffffffff1673ffffffffffffffffffffffffffffffffffffffff1673ffffffffffffffffffffffffffffffffffffffff1681526020016002820160149054906101000a900460ff1660028111156118e1576118e061481e565b5b60028111156118f3576118f261481e565b5b81526020016003820154815260200160048201548152602001600582015f9054906101000a900473ffffffffffffffffffffffffffffffffffffffff1673ffffffffffffffffffffffffffffffffffffffff1673ffffffffffffffffffffffffffffffffffffffff16815260200160068201548152602001600782015f9054906101000a900460ff161515151581526020016007820160019054906101000a900473ffffffffffffffffffffffffffffffffffffffff1673ffffffffffffffffffffffffffffffffffffffff1673ffffffffffffffffffffffffffffffffffffffff168152602001600882015f9054906101000a900473ffffffffffffffffffffffffffffffffffffffff1673ffffffffffffffffffffffffffffffffffffffff1673ffffffffffffffffffffffffffffffffffffffff168152505090505f600267ffffffffffffffff811115611a4d57611a4c6154d0565b5b604051908082528060200260200182016040528015611a7b5781602001602082028036833780820191505090505b5090505f73ffffffffffffffffffffffffffffffffffffffff1682610120015173ffffffffffffffffffffffffffffffffffffffff1614611b0a57816101200151815f81518110611acf57611ace6154fd565b5b602002602001019073ffffffffffffffffffffffffffffffffffffffff16908173ffffffffffffffffffffffffffffffffffffffff16815250505b5f73ffffffffffffffffffffffffffffffffffffffff1682610140015173ffffffffffffffffffffffffffffffffffffffff1614611b975781610140015181600181518110611b5c57611b5b6154fd565b5b602002602001019073ffffffffffffffffffffffffffffffffffffffff16908173ffffffffffffffffffffffffffffffffffffffff16815250505b81606001518260c00151825f8561010001518660400151600498509850985098509850985098505050919395979092949650565b60135f9054906101000a900460ff1681565b6008602052815f5260405f20602052805f5260405f205f91509150505481565b5f5f60065f8481526020019081526020015f20604051806101600160405290815f820154815260200160018201548152602001600282015f9054906101000a900473ffffffffffffffffffffffffffffffffffffffff1673ffffffffffffffffffffffffffffffffffffffff1673ffffffffffffffffffffffffffffffffffffffff1681526020016002820160149054906101000a900460ff166002811115611ca957611ca861481e565b5b6002811115611cbb57611cba61481e565b5b81526020016003820154815260200160048201548152602001600582015f9054906101000a900473ffffffffffffffffffffffffffffffffffffffff1673ffffffffffffffffffffffffffffffffffffffff1673ffffffffffffffffffffffffffffffffffffffff16815260200160068201548152602001600782015f9054906101000a900460ff161515151581526020016007820160019054906101000a900473ffffffffffffffffffffffffffffffffffffffff1673ffffffffffffffffffffffffffffffffffffffff1673ffffffffffffffffffffffffffffffffffffffff168152602001600882015f9054906101000a900473ffffffffffffffffffffffffffffffffffffffff1673ffffffffffffffffffffffffffffffffffffffff1673ffffffffffffffffffffffffffffffffffffffff168152505090505f815f015114158015611e6657505f6002811115611e1a57611e1961481e565b5b81606001516002811115611e3157611e3061481e565b5b1480611e65575060016002811115611e4c57611e4b61481e565b5b81606001516002811115611e6357611e6261481e565b5b145b5b915050919050565b60125481565b611e7c613b2c565b611e855f613d59565b565b600c602052805f5260405f205f915090505481565b601360019054906101000a900473ffffffffffffffffffffffffffffffffffffffff1681565b5f60015f9054906101000a900473ffffffffffffffffffffffffffffffffffffffff16905090565b60105481565b5f5f5f5f5f5f5f5f5f5f5f5f60065f8e81526020019081526020015f20604051806101600160405290815f820154815260200160018201548152602001600282015f9054906101000a900473ffffffffffffffffffffffffffffffffffffffff1673ffffffffffffffffffffffffffffffffffffffff1673ffffffffffffffffffffffffffffffffffffffff1681526020016002820160149054906101000a900460ff166002811115611fa657611fa561481e565b5b6002811115611fb857611fb761481e565b5b81526020016003820154815260200160048201548152602001600582015f9054906101000a900473ffffffffffffffffffffffffffffffffffffffff1673ffffffffffffffffffffffffffffffffffffffff1673ffffffffffffffffffffffffffffffffffffffff16815260200160068201548152602001600782015f9054906101000a900460ff161515151581526020016007820160019054906101000a900473ffffffffffffffffffffffffffffffffffffffff1673ffffffffffffffffffffffffffffffffffffffff1673ffffffffffffffffffffffffffffffffffffffff168152602001600882015f9054906101000a900473ffffffffffffffffffffffffffffffffffffffff1673ffffffffffffffffffffffffffffffffffffffff1673ffffffffffffffffffffffffffffffffffffffff16815250509050805f01515f8260400151836060015184608001518560a001518660c001518760e001518861010001518961012001518a61014001519b509b509b509b509b509b509b509b509b509b509b505091939597999b90929496989a50565b5f60065f8381526020019081526020015f209050600160028111156121795761217861481e565b5b8160020160149054906101000a900460ff16600281111561219d5761219c61481e565b5b146121dd576040517f08c379a00000000000000000000000000000000000000000000000000000000081526004016121d490615574565b60405180910390fd5b60095f8381526020019081526020015f20544211612230576040517f08c379a0000000000000000000000000000000000000000000000000000000008152600401612227906155dc565b60405180910390fd5b5f816002015f9054906101000a900473ffffffffffffffffffffffffffffffffffffffff16905060085f8481526020019081526020015f205f8273ffffffffffffffffffffffffffffffffffffffff1673ffffffffffffffffffffffffffffffffffffffff1681526020019081526020015f205f8154809291906122b3906155fa565b919050555060125460085f8581526020019081526020015f205f8373ffffffffffffffffffffffffffffffffffffffff1673ffffffffffffffffffffffffffffffffffffffff1681526020019081526020015f2054106123c6575f8260070160019054906101000a900473ffffffffffffffffffffffffffffffffffffffff1673ffffffffffffffffffffffffffffffffffffffff168273ffffffffffffffffffffffffffffffffffffffff161461238f578260070160019054906101000a900473ffffffffffffffffffffffffffffffffffffffff166123b4565b826008015f9054906101000a900473ffffffffffffffffffffffffffffffffffffffff165b90506123c08482613e1c565b506123d0565b6123cf836140ab565b5b505050565b6123dd613b2c565b80601360016101000a81548173ffffffffffffffffffffffffffffffffffffffff021916908373ffffffffffffffffffffffffffffffffffffffff16021790555050565b600a602052815f5260405f20818154811061243a575f80fd5b905f5260205f2090600502015f9150915050805f015f9054906101000a900473ffffffffffffffffffffffffffffffffffffffff1690806001015490806002015f9054906101000a900460ff169080600301549080600401805461249d906154a0565b80601f01602080910402602001604051908101604052809291908181526020018280546124c9906154a0565b80156125145780601f106124eb57610100808354040283529160200191612514565b820191905f5260205f20905b8154815290600101906020018083116124f757829003601f168201915b5050505050905085565b60115481565b5f5f5f5f600b5f8673ffffffffffffffffffffffffffffffffffffffff1673ffffffffffffffffffffffffffffffffffffffff1681526020019081526020015f2054600c5f8773ffffffffffffffffffffffffffffffffffffffff1673ffffffffffffffffffffffffffffffffffffffff1681526020019081526020015f2054600d5f8873ffffffffffffffffffffffffffffffffffffffff1673ffffffffffffffffffffffffffffffffffffffff1681526020019081526020015f20545f600d5f8a73ffffffffffffffffffffffffffffffffffffffff1673ffffffffffffffffffffffffffffffffffffffff1681526020019081526020015f20541161262c575f6126bf565b600d5f8973ffffffffffffffffffffffffffffffffffffffff1673ffffffffffffffffffffffffffffffffffffffff1681526020019081526020015f20546064600c5f8b73ffffffffffffffffffffffffffffffffffffffff1673ffffffffffffffffffffffffffffffffffffffff1681526020019081526020015f20546126b49190615641565b6126be91906156af565b5b93509350935093509193509193565b5f5f5f5f6126da613b2c565b6002808111156126ed576126ec61481e565b5b60065f8781526020019081526020015f2060020160149054906101000a900460ff1660028111156127215761272061481e565b5b14612761576040517f08c379a000000000000000000000000000000000000000000000000000000000815260040161275890615729565b60405180910390fd5b60025f8681526020019081526020015f205460035f8781526020019081526020015f205460045f8881526020019081526020015f205460055f8981526020019081526020015f205493509350935093509193509193565b6009602052805f5260405f205f915090505481565b5f5f606060065f8581526020019081526020015f206007015f9054906101000a900460ff16612831576040517f08c379a000000000000000000000000000000000000000000000000000000000815260040161282890615791565b60405180910390fd5b60045f8581526020019081526020015f2054925060055f8581526020019081526020015f205491506040518060600160405280603981526020016161b46039913990509193909250565b612883613b2c565b5f61288c611ec2565b73ffffffffffffffffffffffffffffffffffffffff16476040516128af9061516b565b5f6040518083038185875af1925050503d805f81146128e9576040519150601f19603f3d011682016040523d82523d5f602084013e6128ee565b606091505b5050905080612932576040517f08c379a0000000000000000000000000000000000000000000000000000000008152600401612929906157f9565b60405180910390fd5b50565b60135f9054906101000a900460ff1615612984576040517f08c379a000000000000000000000000000000000000000000000000000000000815260040161297b90615861565b60405180910390fd5b5f60065f8481526020019081526020015f209050600160028111156129ac576129ab61481e565b5b8160020160149054906101000a900460ff1660028111156129d0576129cf61481e565b5b14612a10576040517f08c379a0000000000000000000000000000000000000000000000000000000008152600401612a0790615574565b60405180910390fd5b806007015f9054906101000a900460ff16612a60576040517f08c379a0000000000000000000000000000000000000000000000000000000008152600401612a5790615791565b60405180910390fd5b806002015f9054906101000a900473ffffffffffffffffffffffffffffffffffffffff1673ffffffffffffffffffffffffffffffffffffffff163373ffffffffffffffffffffffffffffffffffffffff1614612af1576040517f08c379a0000000000000000000000000000000000000000000000000000000008152600401612ae8906158c9565b60405180910390fd5b60125460085f8581526020019081526020015f205f3373ffffffffffffffffffffffffffffffffffffffff1673ffffffffffffffffffffffffffffffffffffffff1681526020019081526020015f205410612b81576040517f08c379a0000000000000000000000000000000000000000000000000000000008152600401612b7890615931565b60405180910390fd5b60095f8481526020019081526020015f2054421115612bd5576040517f08c379a0000000000000000000000000000000000000000000000000000000008152600401612bcc90615999565b60405180910390fd5b5f8211612c17576040517f08c379a0000000000000000000000000000000000000000000000000000000008152600401612c0e90615a01565b60405180910390fd5b806006015f815480929190612c2b906155fa565b91905055505f60035f8581526020019081526020015f205490505f606082851115612ce957600291506040518060400160405280601481526020017f596f7572207475726e20636f6d706c657465642e00000000000000000000000081525090503373ffffffffffffffffffffffffffffffffffffffff16867ff4426429ae459d394c4697de9e80f509b068d98323a20d8148607d2359b0b75e87604051612cd391906149fe565b60405180910390a3612ce4866140ab565b612da7565b5f8584612cf69190615370565b90508060035f8981526020019081526020015f20819055505f8103612d6057600192506040518060400160405280601a81526020017f596f752072656163686564207a65726f2120566963746f7279210000000000008152509150612d5b8733613e1c565b612da5565b5f92506040518060400160405280601481526020017f596f7572207475726e20636f6d706c657465642e0000000000000000000000008152509150612da4876140ab565b5b505b600a5f8781526020019081526020015f206040518060a001604052803373ffffffffffffffffffffffffffffffffffffffff168152602001878152602001846002811115612df857612df761481e565b5b81526020018660060154815260200183815250908060018154018082558091505060019003905f5260205f2090600502015f909190919091505f820151815f015f6101000a81548173ffffffffffffffffffffffffffffffffffffffff021916908373ffffffffffffffffffffffffffffffffffffffff160217905550602082015181600101556040820151816002015f6101000a81548160ff02191690836002811115612ea957612ea861481e565b5b0217905550606082015181600301556080820151816004019081612ecd9190615bbf565b505050857f3e93c728a46ab6b30ed4fba261f16881f600d521f175d04e80a1d5ace9d0ee8833878585604051612f069493929190615024565b60405180910390a2505050505050565b612f1e613b2c565b603c811015612f62576040517f08c379a0000000000000000000000000000000000000000000000000000000008152600401612f5990615cd8565b60405180910390fd5b610e10811115612fa7576040517f08c379a0000000000000000000000000000000000000000000000000000000008152600401612f9e90615d40565b60405180910390fd5b8060118190555050565b60135f9054906101000a900460ff1615613000576040517f08c379a0000000000000000000000000000000000000000000000000000000008152600401612ff790615861565b60405180910390fd5b5f3411613042576040517f08c379a000000000000000000000000000000000000000000000000000000000815260040161303990615da8565b60405180910390fd5b600e5f815480929190613054906155fa565b91905055505f600e5490506040518061016001604052808281526020015f81526020013373ffffffffffffffffffffffffffffffffffffffff1681526020015f60028111156130a6576130a561481e565b5b81526020013481526020013481526020015f73ffffffffffffffffffffffffffffffffffffffff1681526020015f81526020015f151581526020013373ffffffffffffffffffffffffffffffffffffffff1681526020015f73ffffffffffffffffffffffffffffffffffffffff1681525060065f8381526020019081526020015f205f820151815f0155602082015181600101556040820151816002015f6101000a81548173ffffffffffffffffffffffffffffffffffffffff021916908373ffffffffffffffffffffffffffffffffffffffff16021790555060608201518160020160146101000a81548160ff021916908360028111156131ab576131aa61481e565b5b02179055506080820151816003015560a0820151816004015560c0820151816005015f6101000a81548173ffffffffffffffffffffffffffffffffffffffff021916908373ffffffffffffffffffffffffffffffffffffffff16021790555060e08201518160060155610100820151816007015f6101000a81548160ff0219169083151502179055506101208201518160070160016101000a81548173ffffffffffffffffffffffffffffffffffffffff021916908373ffffffffffffffffffffffffffffffffffffffff160217905550610140820151816008015f6101000a81548173ffffffffffffffffffffffffffffffffffffffff021916908373ffffffffffffffffffffffffffffffffffffffff160217905550905050600160075f8381526020019081526020015f205f3373ffffffffffffffffffffffffffffffffffffffff1673ffffffffffffffffffffffffffffffffffffffff1681526020019081526020015f205f6101000a81548160ff021916908315150217905550600d5f3373ffffffffffffffffffffffffffffffffffffffff1673ffffffffffffffffffffffffffffffffffffffff1681526020019081526020015f205f815480929190613377906155fa565b9190505550807f7dfb67e9ff596fca4da65c7eedb128cd1aac553af54b3c0cb733625a2480d8bd33346040516133ae929190615dc6565b60405180910390a250565b5f5f5f5f5f60606002808111156133d3576133d261481e565b5b60065f8981526020019081526020015f2060020160149054906101000a900460ff1660028111156134075761340661481e565b5b14613447576040517f08c379a000000000000000000000000000000000000000000000000000000000815260040161343e90615e37565b60405180910390fd5b600160025f8981526020019081526020015f20546028606d6134699190615370565b60045f8b81526020019081526020015f205460055f8c81526020019081526020015f20546040518060800160405280604e8152602001616223604e913995509550955095509550955091939550919395565b60135f9054906101000a900460ff161561350a576040517f08c379a000000000000000000000000000000000000000000000000000000000815260040161350190615861565b60405180910390fd5b5f60065f8381526020019081526020015f2090505f815f01541415801561356557505f600281111561353f5761353e61481e565b5b8160020160149054906101000a900460ff1660028111156135635761356261481e565b5b145b6135a4576040517f08c379a000000000000000000000000000000000000000000000000000000000815260040161359b90615e9f565b60405180910390fd5b60075f8381526020019081526020015f205f3373ffffffffffffffffffffffffffffffffffffffff1673ffffffffffffffffffffffffffffffffffffffff1681526020019081526020015f205f9054906101000a900460ff161561363d576040517f08c379a000000000000000000000000000000000000000000000000000000000815260040161363490615f07565b60405180910390fd5b5f73ffffffffffffffffffffffffffffffffffffffff16816008015f9054906101000a900473ffffffffffffffffffffffffffffffffffffffff1673ffffffffffffffffffffffffffffffffffffffff16146136ce576040517f08c379a00000000000000000000000000000000000000000000000000000000081526004016136c590615f6f565b60405180910390fd5b80600301543414613714576040517f08c379a000000000000000000000000000000000000000000000000000000000815260040161370b90615fd7565b60405180910390fd5b33816008015f6101000a81548173ffffffffffffffffffffffffffffffffffffffff021916908373ffffffffffffffffffffffffffffffffffffffff16021790555034816004015f8282546137699190615ff5565b92505081905550600160075f8481526020019081526020015f205f3373ffffffffffffffffffffffffffffffffffffffff1673ffffffffffffffffffffffffffffffffffffffff1681526020019081526020015f205f6101000a81548160ff021916908315150217905550600d5f3373ffffffffffffffffffffffffffffffffffffffff1673ffffffffffffffffffffffffffffffffffffffff1681526020019081526020015f205f815480929190613821906155fa565b9190505550817f87969bc7faf902221a147b95ceba76e011c5efb0339a0a8ee7a2bb82d9cfbbd6336040516138569190614e81565b60405180910390a2613867826141f0565b5050565b613873613b2c565b5f73ffffffffffffffffffffffffffffffffffffffff168173ffffffffffffffffffffffffffffffffffffffff16036138e3575f6040517f1e4fbdf70000000000000000000000000000000000000000000000000000000081526004016138da9190614e81565b60405180910390fd5b6138ec81613d59565b50565b5f5f5f60605f600a5f8781526020019081526020015f20805480602002602001604051908101604052809291908181526020015f905b82821015613a87578382905f5260205f2090600502016040518060a00160405290815f82015f9054906101000a900473ffffffffffffffffffffffffffffffffffffffff1673ffffffffffffffffffffffffffffffffffffffff1673ffffffffffffffffffffffffffffffffffffffff16815260200160018201548152602001600282015f9054906101000a900460ff1660028111156139c8576139c761481e565b5b60028111156139da576139d961481e565b5b8152602001600382015481526020016004820180546139f8906154a0565b80601f0160208091040260200160405190810160405280929190818152602001828054613a24906154a0565b8015613a6f5780601f10613a4657610100808354040283529160200191613a6f565b820191905f5260205f20905b815481529060010190602001808311613a5257829003601f168201915b50505050508152505081526020019060010190613925565b5050505090505f815103613adc575f5f5f6040518060400160405280600c81526020017f4e6f206d6f766573207965740000000000000000000000000000000000000000815250945094509450945050613b25565b5f8160018351613aec9190615370565b81518110613afd57613afc6154fd565b5b60200260200101519050805f0151816020015182604001518360800151955095509550955050505b9193509193565b613b34614382565b73ffffffffffffffffffffffffffffffffffffffff16613b52611ec2565b73ffffffffffffffffffffffffffffffffffffffff1614613bb157613b75614382565b6040517f118cdaa7000000000000000000000000000000000000000000000000000000008152600401613ba89190614e81565b60405180910390fd5b565b60025f5403613bee576040517f3ee5aeb500000000000000000000000000000000000000000000000000000000815260040160405180910390fd5b60025f81905550565b60015f81905550565b60605f8203613c46576040518060400160405280600181526020017f30000000000000000000000000000000000000000000000000000000000000008152509050613d54565b5f8290505f5b5f8214613c75578080613c5e906155fa565b915050600a82613c6e91906156af565b9150613c4c565b5f8167ffffffffffffffff811115613c9057613c8f6154d0565b5b6040519080825280601f01601f191660200182016040528015613cc25781602001600182028036833780820191505090505b5090505b5f8514613d4d57600182613cda9190615370565b9150600a85613ce99190616028565b6030613cf59190615ff5565b60f81b818381518110613d0b57613d0a6154fd565b5b60200101907effffffffffffffffffffffffffffffffffffffffffffffffffffffffffffff191690815f1a905350600a85613d4691906156af565b9450613cc6565b8093505050505b919050565b5f60015f9054906101000a900473ffffffffffffffffffffffffffffffffffffffff1690508160015f6101000a81548173ffffffffffffffffffffffffffffffffffffffff021916908373ffffffffffffffffffffffffffffffffffffffff1602179055508173ffffffffffffffffffffffffffffffffffffffff168173ffffffffffffffffffffffffffffffffffffffff167f8be0079c531659141344cd1fd0a4f28419497f9722a3daafe3b4186f6b6457e060405160405180910390a35050565b5f60065f8481526020019081526020015f20905060028160020160146101000a81548160ff02191690836002811115613e5857613e5761481e565b5b021790555081816005015f6101000a81548173ffffffffffffffffffffffffffffffffffffffff021916908373ffffffffffffffffffffffffffffffffffffffff1602179055505f6064600f548360040154613eb49190615641565b613ebe91906156af565b90505f818360040154613ed19190615370565b905080600b5f8673ffffffffffffffffffffffffffffffffffffffff1673ffffffffffffffffffffffffffffffffffffffff1681526020019081526020015f205f828254613f1f9190615ff5565b92505081905550600c5f8573ffffffffffffffffffffffffffffffffffffffff1673ffffffffffffffffffffffffffffffffffffffff1681526020019081526020015f205f815480929190613f73906155fa565b91905055508160105f828254613f899190615ff5565b925050819055505f73ffffffffffffffffffffffffffffffffffffffff16601360019054906101000a900473ffffffffffffffffffffffffffffffffffffffff1673ffffffffffffffffffffffffffffffffffffffff161461406a57601360019054906101000a900473ffffffffffffffffffffffffffffffffffffffff1673ffffffffffffffffffffffffffffffffffffffff1663d33a24ec866040518263ffffffff1660e01b815260040161404091906149fe565b5f604051808303815f87803b158015614057575f5ffd5b505af1925050508015614068575060015b505b847ff5d92df6ae1a0b46d0a0c57c2e1da0d75d7591d2804ad086cb1e27ba67de7aaf858360405161409c929190615dc6565b60405180910390a25050505050565b5f60065f8381526020019081526020015f2090508060070160019054906101000a900473ffffffffffffffffffffffffffffffffffffffff1673ffffffffffffffffffffffffffffffffffffffff16816002015f9054906101000a900473ffffffffffffffffffffffffffffffffffffffff1673ffffffffffffffffffffffffffffffffffffffff1614614163578060070160019054906101000a900473ffffffffffffffffffffffffffffffffffffffff16614188565b806008015f9054906101000a900473ffffffffffffffffffffffffffffffffffffffff165b816002015f6101000a81548173ffffffffffffffffffffffffffffffffffffffff021916908373ffffffffffffffffffffffffffffffffffffffff160217905550601154426141d79190615ff5565b60095f8481526020019081526020015f20819055505050565b5f60065f8381526020019081526020015f2090505f61420e83614389565b90508060025f8581526020019081526020015f20819055508060035f8581526020019081526020015f2081905550614246838261461f565b5f82600101819055506001826007015f6101000a81548160ff02191690831515021790555060018260020160146101000a81548160ff021916908360028111156142935761429261481e565b5b02179055508160070160019054906101000a900473ffffffffffffffffffffffffffffffffffffffff16826002015f6101000a81548173ffffffffffffffffffffffffffffffffffffffff021916908373ffffffffffffffffffffffffffffffffffffffff1602179055506011544261430c9190615ff5565b60095f8581526020019081526020015f2081905550827f0ff662e962411efbc1d691a3c172a8a08d975352070ae62d280cea70a4d3eb7c60045f8681526020019081526020015f205460055f8781526020019081526020015f2054604051614375929190616058565b60405180910390a2505050565b5f33905090565b5f5f60065f8481526020019081526020015f20604051806101600160405290815f820154815260200160018201548152602001600282015f9054906101000a900473ffffffffffffffffffffffffffffffffffffffff1673ffffffffffffffffffffffffffffffffffffffff1673ffffffffffffffffffffffffffffffffffffffff1681526020016002820160149054906101000a900460ff1660028111156144355761443461481e565b5b60028111156144475761444661481e565b5b81526020016003820154815260200160048201548152602001600582015f9054906101000a900473ffffffffffffffffffffffffffffffffffffffff1673ffffffffffffffffffffffffffffffffffffffff1673ffffffffffffffffffffffffffffffffffffffff16815260200160068201548152602001600782015f9054906101000a900460ff161515151581526020016007820160019054906101000a900473ffffffffffffffffffffffffffffffffffffffff1673ffffffffffffffffffffffffffffffffffffffff1673ffffffffffffffffffffffffffffffffffffffff168152602001600882015f9054906101000a900473ffffffffffffffffffffffffffffffffffffffff1673ffffffffffffffffffffffffffffffffffffffff1673ffffffffffffffffffffffffffffffffffffffff168152505090505f4244858461012001518561014001517f2222333344445555666677778888999900001111aaaabbbbccccddddeeeeffff6040516020016145cb969594939291906160e4565b604051602081830303815290604052805190602001205f1c905060016028606d6145f59190615370565b6145ff9190615ff5565b8161460a9190616028565b60286146169190615ff5565b92505050919050565b5f81837f2222333344445555666677778888999900001111aaaabbbbccccddddeeeeffff60405160200161465593929190616153565b604051602081830303815290604052805190602001205f1c90505f60198261467d9190616028565b60056146899190615ff5565b90505f6023600884901c61469d9190616028565b600f6146a99190615ff5565b9050818410156146ba5760016146c7565b81846146c69190615370565b5b60045f8781526020019081526020015f208190555080846146e89190615ff5565b60055f8781526020019081526020015f2081905550602860045f8781526020019081526020015f205460055f8881526020019081526020015f205461472d9190615370565b101561476757602860045f8781526020019081526020015f20546147519190615ff5565b60055f8781526020019081526020015f20819055505b5050505050565b5f5ffd5b5f819050919050565b61478481614772565b811461478e575f5ffd5b50565b5f8135905061479f8161477b565b92915050565b5f602082840312156147ba576147b961476e565b5b5f6147c784828501614791565b91505092915050565b6147d981614772565b82525050565b5f73ffffffffffffffffffffffffffffffffffffffff82169050919050565b5f614808826147df565b9050919050565b614818816147fe565b82525050565b7f4e487b71000000000000000000000000000000000000000000000000000000005f52602160045260245ffd5b6003811061485c5761485b61481e565b5b50565b5f81905061486c8261484b565b919050565b5f61487b8261485f565b9050919050565b61488b81614871565b82525050565b5f8115159050919050565b6148a581614891565b82525050565b5f610160820190506148bf5f83018e6147d0565b6148cc602083018d6147d0565b6148d9604083018c61480f565b6148e6606083018b614882565b6148f3608083018a6147d0565b61490060a08301896147d0565b61490d60c083018861480f565b61491a60e08301876147d0565b61492861010083018661489c565b61493661012083018561480f565b61494461014083018461480f565b9c9b505050505050505050505050565b61495d81614891565b8114614967575f5ffd5b50565b5f8135905061497881614954565b92915050565b5f602082840312156149935761499261476e565b5b5f6149a08482850161496a565b91505092915050565b6149b2816147fe565b81146149bc575f5ffd5b50565b5f813590506149cd816149a9565b92915050565b5f602082840312156149e8576149e761476e565b5b5f6149f5848285016149bf565b91505092915050565b5f602082019050614a115f8301846147d0565b92915050565b5f5f60408385031215614a2d57614a2c61476e565b5b5f614a3a85828601614791565b9250506020614a4b858286016149bf565b9150509250929050565b5f602082019050614a685f83018461489c565b92915050565b5f81519050919050565b5f82825260208201905092915050565b8281835e5f83830152505050565b5f601f19601f8301169050919050565b5f614ab082614a6e565b614aba8185614a78565b9350614aca818560208601614a88565b614ad381614a96565b840191505092915050565b5f60a0820190508181035f830152614af68188614aa6565b9050614b05602083018761489c565b8181036040830152614b178186614aa6565b9050614b2660608301856147d0565b8181036080830152614b388184614aa6565b90509695505050505050565b5f604082019050614b575f83018561480f565b614b64602083018461480f565b9392505050565b5f81519050919050565b5f82825260208201905092915050565b5f819050602082019050919050565b614b9d816147fe565b82525050565b614bac81614772565b82525050565b60038110614bc357614bc261481e565b5b50565b5f819050614bd382614bb2565b919050565b5f614be282614bc6565b9050919050565b614bf281614bd8565b82525050565b5f82825260208201905092915050565b5f614c1282614a6e565b614c1c8185614bf8565b9350614c2c818560208601614a88565b614c3581614a96565b840191505092915050565b5f60a083015f830151614c555f860182614b94565b506020830151614c686020860182614ba3565b506040830151614c7b6040860182614be9565b506060830151614c8e6060860182614ba3565b5060808301518482036080860152614ca68282614c08565b9150508091505092915050565b5f614cbe8383614c40565b905092915050565b5f602082019050919050565b5f614cdc82614b6b565b614ce68185614b75565b935083602082028501614cf885614b85565b805f5b85811015614d335784840389528151614d148582614cb3565b9450614d1f83614cc6565b925060208a01995050600181019050614cfb565b50829750879550505050505092915050565b5f6020820190508181035f830152614d5d8184614cd2565b905092915050565b5f81519050919050565b5f82825260208201905092915050565b5f819050602082019050919050565b5f614d998383614b94565b60208301905092915050565b5f602082019050919050565b5f614dbb82614d65565b614dc58185614d6f565b9350614dd083614d7f565b805f5b83811015614e00578151614de78882614d8e565b9750614df283614da5565b925050600181019050614dd3565b5085935050505092915050565b5f60e082019050614e205f83018a614882565b614e2d602083018961480f565b8181036040830152614e3f8188614db1565b9050614e4e60608301876147d0565b614e5b608083018661489c565b614e6860a083018561480f565b614e7560c08301846147d0565b98975050505050505050565b5f602082019050614e945f83018461480f565b92915050565b5f5f60408385031215614eb057614eaf61476e565b5b5f614ebd85828601614791565b9250506020614ece85828601614791565b9150509250929050565b614ee181614bd8565b82525050565b5f60a082019050614efa5f83018861480f565b614f0760208301876147d0565b614f146040830186614ed8565b614f2160608301856147d0565b8181036080830152614f338184614aa6565b90509695505050505050565b5f608082019050614f525f8301876147d0565b614f5f60208301866147d0565b614f6c60408301856147d0565b614f7960608301846147d0565b95945050505050565b5f606082019050614f955f8301866147d0565b614fa260208301856147d0565b8181036040830152614fb48184614aa6565b9050949350505050565b5f60c082019050614fd15f83018961489c565b614fde60208301886147d0565b614feb60408301876147d0565b614ff860608301866147d0565b61500560808301856147d0565b81810360a08301526150178184614aa6565b9050979650505050505050565b5f6080820190506150375f83018761480f565b61504460208301866147d0565b6150516040830185614ed8565b81810360608301526150638184614aa6565b905095945050505050565b7f46656520746f6f206869676800000000000000000000000000000000000000005f82015250565b5f6150a2600c83614a78565b91506150ad8261506e565b602082019050919050565b5f6020820190508181035f8301526150cf81615096565b9050919050565b7f4e6f2062616c616e636520746f207769746864726177000000000000000000005f82015250565b5f61510a601683614a78565b9150615115826150d6565b602082019050919050565b5f6020820190508181035f830152615137816150fe565b9050919050565b5f81905092915050565b50565b5f6151565f8361513e565b915061516182615148565b5f82019050919050565b5f6151758261514b565b9150819050919050565b7f5769746864726177616c206661696c65640000000000000000000000000000005f82015250565b5f6151b3601183614a78565b91506151be8261517f565b602082019050919050565b5f6020820190508181035f8301526151e0816151a7565b9050919050565b5f81905092915050565b7f446973706c617965642052616e67653a200000000000000000000000000000005f82015250565b5f6152256011836151e7565b9150615230826151f1565b601182019050919050565b5f61524582614a6e565b61524f81856151e7565b935061525f818560208601614a88565b80840191505092915050565b7f202d2000000000000000000000000000000000000000000000000000000000005f82015250565b5f61529f6003836151e7565b91506152aa8261526b565b600382019050919050565b7f2028426567696e6e657220467269656e646c79212900000000000000000000005f82015250565b5f6152e96015836151e7565b91506152f4826152b5565b601582019050919050565b5f61530982615219565b9150615315828561523b565b915061532082615293565b915061532c828461523b565b9150615337826152dd565b91508190509392505050565b7f4e487b71000000000000000000000000000000000000000000000000000000005f52601160045260245ffd5b5f61537a82614772565b915061538583614772565b925082820390508181111561539d5761539c615343565b5b92915050565b7f4e6f206665657320746f207769746864726177000000000000000000000000005f82015250565b5f6153d7601383614a78565b91506153e2826153a3565b602082019050919050565b5f6020820190508181035f830152615404816153cb565b9050919050565b7f466565207769746864726177616c206661696c656400000000000000000000005f82015250565b5f61543f601583614a78565b915061544a8261540b565b602082019050919050565b5f6020820190508181035f83015261546c81615433565b9050919050565b7f4e487b71000000000000000000000000000000000000000000000000000000005f52602260045260245ffd5b5f60028204905060018216806154b757607f821691505b6020821081036154ca576154c9615473565b5b50919050565b7f4e487b71000000000000000000000000000000000000000000000000000000005f52604160045260245ffd5b7f4e487b71000000000000000000000000000000000000000000000000000000005f52603260045260245ffd5b7f47616d65206e6f742061637469766500000000000000000000000000000000005f82015250565b5f61555e600f83614a78565b91506155698261552a565b602082019050919050565b5f6020820190508181035f83015261558b81615552565b9050919050565b7f4e6f2074696d656f7574206f63637572726564000000000000000000000000005f82015250565b5f6155c6601383614a78565b91506155d182615592565b602082019050919050565b5f6020820190508181035f8301526155f3816155ba565b9050919050565b5f61560482614772565b91507fffffffffffffffffffffffffffffffffffffffffffffffffffffffffffffffff820361563657615635615343565b5b600182019050919050565b5f61564b82614772565b915061565683614772565b925082820261566481614772565b9150828204841483151761567b5761567a615343565b5b5092915050565b7f4e487b71000000000000000000000000000000000000000000000000000000005f52601260045260245ffd5b5f6156b982614772565b91506156c483614772565b9250826156d4576156d3615682565b5b828204905092915050565b7f4f6e6c7920666f722066696e69736865642067616d65730000000000000000005f82015250565b5f615713601783614a78565b915061571e826156df565b602082019050919050565b5f6020820190508181035f83015261574081615707565b9050919050565b7f47616d65206e6f742073746172746564000000000000000000000000000000005f82015250565b5f61577b601083614a78565b915061578682615747565b602082019050919050565b5f6020820190508181035f8301526157a88161576f565b9050919050565b7f456d657267656e6379207769746864726177616c206661696c656400000000005f82015250565b5f6157e3601b83614a78565b91506157ee826157af565b602082019050919050565b5f6020820190508181035f830152615810816157d7565b9050919050565b7f47616d65206973207061757365640000000000000000000000000000000000005f82015250565b5f61584b600e83614a78565b915061585682615817565b602082019050919050565b5f6020820190508181035f8301526158788161583f565b9050919050565b7f4e6f7420796f7572207475726e000000000000000000000000000000000000005f82015250565b5f6158b3600d83614a78565b91506158be8261587f565b602082019050919050565b5f6020820190508181035f8301526158e0816158a7565b9050919050565b7f596f752061726520656c696d696e6174656400000000000000000000000000005f82015250565b5f61591b601283614a78565b9150615926826158e7565b602082019050919050565b5f6020820190508181035f8301526159488161590f565b9050919050565b7f5475726e2074696d656f757400000000000000000000000000000000000000005f82015250565b5f615983600c83614a78565b915061598e8261594f565b602082019050919050565b5f6020820190508181035f8301526159b081615977565b9050919050565b7f4d75737420737562747261637420706f736974697665206e756d6265720000005f82015250565b5f6159eb601d83614a78565b91506159f6826159b7565b602082019050919050565b5f6020820190508181035f830152615a18816159df565b9050919050565b5f819050815f5260205f209050919050565b5f6020601f8301049050919050565b5f82821b905092915050565b5f60088302615a7b7fffffffffffffffffffffffffffffffffffffffffffffffffffffffffffffffff82615a40565b615a858683615a40565b95508019841693508086168417925050509392505050565b5f819050919050565b5f615ac0615abb615ab684614772565b615a9d565b614772565b9050919050565b5f819050919050565b615ad983615aa6565b615aed615ae582615ac7565b848454615a4c565b825550505050565b5f5f905090565b615b04615af5565b615b0f818484615ad0565b505050565b5b81811015615b3257615b275f82615afc565b600181019050615b15565b5050565b601f821115615b7757615b4881615a1f565b615b5184615a31565b81016020851015615b60578190505b615b74615b6c85615a31565b830182615b14565b50505b505050565b5f82821c905092915050565b5f615b975f1984600802615b7c565b1980831691505092915050565b5f615baf8383615b88565b9150826002028217905092915050565b615bc882614a6e565b67ffffffffffffffff811115615be157615be06154d0565b5b615beb82546154a0565b615bf6828285615b36565b5f60209050601f831160018114615c27575f8415615c15578287015190505b615c1f8582615ba4565b865550615c86565b601f198416615c3586615a1f565b5f5b82811015615c5c57848901518255600182019150602085019450602081019050615c37565b86831015615c795784890151615c75601f891682615b88565b8355505b6001600288020188555050505b505050505050565b7f546f6f2073686f727400000000000000000000000000000000000000000000005f82015250565b5f615cc2600983614a78565b9150615ccd82615c8e565b602082019050919050565b5f6020820190508181035f830152615cef81615cb6565b9050919050565b7f546f6f206c6f6e670000000000000000000000000000000000000000000000005f82015250565b5f615d2a600883614a78565b9150615d3582615cf6565b602082019050919050565b5f6020820190508181035f830152615d5781615d1e565b9050919050565b7f456e7472792066656520726571756972656400000000000000000000000000005f82015250565b5f615d92601283614a78565b9150615d9d82615d5e565b602082019050919050565b5f6020820190508181035f830152615dbf81615d86565b9050919050565b5f604082019050615dd95f83018561480f565b615de660208301846147d0565b9392505050565b7f47616d65206d7573742062652066696e697368656420666972737400000000005f82015250565b5f615e21601b83614a78565b9150615e2c82615ded565b602082019050919050565b5f6020820190508181035f830152615e4e81615e15565b9050919050565b7f43616e6e6f74206a6f696e20746869732067616d6500000000000000000000005f82015250565b5f615e89601583614a78565b9150615e9482615e55565b602082019050919050565b5f6020820190508181035f830152615eb681615e7d565b9050919050565b7f416c726561647920696e2067616d6500000000000000000000000000000000005f82015250565b5f615ef1600f83614a78565b9150615efc82615ebd565b602082019050919050565b5f6020820190508181035f830152615f1e81615ee5565b9050919050565b7f47616d652069732066756c6c00000000000000000000000000000000000000005f82015250565b5f615f59600c83614a78565b9150615f6482615f25565b602082019050919050565b5f6020820190508181035f830152615f8681615f4d565b9050919050565b7f57726f6e6720656e7472792066656500000000000000000000000000000000005f82015250565b5f615fc1600f83614a78565b9150615fcc82615f8d565b602082019050919050565b5f6020820190508181035f830152615fee81615fb5565b9050919050565b5f615fff82614772565b915061600a83614772565b925082820190508082111561602257616021615343565b5b92915050565b5f61603282614772565b915061603d83614772565b92508261604d5761604c615682565b5b828206905092915050565b5f60408201905061606b5f8301856147d0565b61607860208301846147d0565b9392505050565b5f819050919050565b61609961609482614772565b61607f565b82525050565b5f8160601b9050919050565b5f6160b58261609f565b9050919050565b5f6160c6826160ab565b9050919050565b6160de6160d9826147fe565b6160bc565b82525050565b5f6160ef8289616088565b6020820191506160ff8288616088565b60208201915061610f8287616088565b60208201915061611f82866160cd565b60148201915061612f82856160cd565b60148201915061613f8284616088565b602082019150819050979650505050505050565b5f61615e8286616088565b60208201915061616e8285616088565b60208201915061617e8284616088565b60208201915081905094935050505056fe57616974696e6720666f72207365636f6e6420706c6179657220746f206a6f696e2e2e2e50555245204d5953544552593a2057726f6e67206d6f766573206a7573742070617373207475726e202d206e6f2070756e6973686d656e742150555245204d5953544552593a205061747465726e20616e616c7973697320616e6420737472617465676963206775657373696e672150555245204d5953544552593a20466f72676976696e67206d6f646520776974682068696464656e206e756d626572202d2077726f6e67206d6f766573207061737365642073696c656e746c7921a26469706673582212201ec6c3d5c61c42e253cd117d06413a417304e743f01216286ede54c56be7e3d964736f6c634300081c0033","linkReferences":{}},"methodIdentifiers":{"balances(address)":"27e235e3","createPureMysteryGame()":"e57ffcc7","emergencyRevealNumber(uint256)":"c309b358","emergencyWithdraw()":"db2e21bc","fees()":"9af1d35a","gameCounter()":"2e0be39a","games(uint256)":"117a5b90","getDisplayedRange(uint256)":"c6386e7c","getGame(uint256)":"a2f77bcc","getGameForSpectators(uint256)":"4d389e78","getLastMove(uint256)":"fd7caf16","getMoveHistory(uint256)":"4802efc2","getPlayerView(uint256)":"3d2a9026","getPlayers(uint256)":"460e2049","getStats(address)":"c23f85d6","handleTimeout(uint256)":"b4f36264","isGameBettable(uint256)":"5f5e3e91","isInGame(uint256,address)":"3a9a3073","joinGame(uint256)":"efaa55a0","makeMove(uint256,uint256)":"dea9456d","maxStrikes()":"70f6a319","moveHistory(uint256,uint256)":"ba202868","owner()":"8da5cb5b","paused()":"5c975abb","platformFee()":"26232a2e","played(address)":"1cc60908","renounceOwnership()":"715018a6","setPaused(bool)":"16c38b3c","setPlatformFee(uint256)":"12e8e2c3","setSpectatorContract(address)":"b6f5b3a6","setTimeLimit(uint256)":"e2889c82","spectatorContract()":"88b7225e","timeLimit()":"c08d1fe5","timeouts(uint256,address)":"5d981a60","transferOwnership(address)":"f2fde38b","turnDeadlines(uint256)":"c3cb4e7a","verifyFairness(uint256)":"ed6fe707","wins(address)":"8047a97a","withdraw()":"3ccfd60b","withdrawFees()":"476343ee"},"id":27}