{"abi":[{"type":"constructor","inputs":[],"stateMutability":"nonpayable"},{"type":"function","name":"activePlayers","inputs":[{"name":"","type":"uint256","internalType":"uint256"},{"name":"","type":"uint256","internalType":"uint256"}],"outputs":[{"name":"","type":"address","internalType":"address"}],"stateMutability":"view"},{"type":"function","name":"balances","inputs":[{"name":"","type":"address","internalType":"address"}],"outputs":[{"name":"","type":"uint256","internalType":"uint256"}],"stateMutability":"view"},{"type":"function","name":"createHardcoreMysteryGame","inputs":[],"outputs":[],"stateMutability":"payable"},{"type":"function","name":"createLastStandGame","inputs":[],"outputs":[],"stateMutability":"payable"},{"type":"function","name":"emergency","inputs":[],"outputs":[],"stateMutability":"nonpayable"},{"type":"function","name":"emergencyRevealNumber","inputs":[{"name":"_id","type":"uint256","internalType":"uint256"}],"outputs":[{"name":"actualNumber","type":"uint256","internalType":"uint256"},{"name":"remainingNumber","type":"uint256","internalType":"uint256"},{"name":"displayMin","type":"uint256","internalType":"uint256"},{"name":"displayMax","type":"uint256","internalType":"uint256"}],"stateMutability":"view"},{"type":"function","name":"fees","inputs":[],"outputs":[{"name":"","type":"uint256","internalType":"uint256"}],"stateMutability":"view"},{"type":"function","name":"gameCounter","inputs":[],"outputs":[{"name":"","type":"uint256","internalType":"uint256"}],"stateMutability":"view"},{"type":"function","name":"gamePlayers","inputs":[{"name":"","type":"uint256","internalType":"uint256"},{"name":"","type":"uint256","internalType":"uint256"}],"outputs":[{"name":"","type":"address","internalType":"address"}],"stateMutability":"view"},{"type":"function","name":"games","inputs":[{"name":"","type":"uint256","internalType":"uint256"}],"outputs":[{"name":"gameId","type":"uint256","internalType":"uint256"},{"name":"mode","type":"uint8","internalType":"enum ZeroSumHardcoreMystery.GameMode"},{"name":"actualNumber","type":"uint256","internalType":"uint256"},{"name":"currentPlayer","type":"address","internalType":"address"},{"name":"status","type":"uint8","internalType":"enum ZeroSumHardcoreMystery.GameStatus"},{"name":"entryFee","type":"uint256","internalType":"uint256"},{"name":"prizePool","type":"uint256","internalType":"uint256"},{"name":"winner","type":"address","internalType":"address"},{"name":"maxPlayers","type":"uint256","internalType":"uint256"},{"name":"moveCount","type":"uint256","internalType":"uint256"},{"name":"isStarted","type":"bool","internalType":"bool"}],"stateMutability":"view"},{"type":"function","name":"getActive","inputs":[{"name":"_id","type":"uint256","internalType":"uint256"}],"outputs":[{"name":"","type":"address[]","internalType":"address[]"}],"stateMutability":"view"},{"type":"function","name":"getDisplayedRange","inputs":[{"name":"_id","type":"uint256","internalType":"uint256"}],"outputs":[{"name":"minRange","type":"uint256","internalType":"uint256"},{"name":"maxRange","type":"uint256","internalType":"uint256"},{"name":"hint","type":"string","internalType":"string"}],"stateMutability":"view"},{"type":"function","name":"getGame","inputs":[{"name":"_id","type":"uint256","internalType":"uint256"}],"outputs":[{"name":"gameId","type":"uint256","internalType":"uint256"},{"name":"mode","type":"uint8","internalType":"enum ZeroSumHardcoreMystery.GameMode"},{"name":"actualNumber","type":"uint256","internalType":"uint256"},{"name":"currentPlayer","type":"address","internalType":"address"},{"name":"status","type":"uint8","internalType":"enum ZeroSumHardcoreMystery.GameStatus"},{"name":"entryFee","type":"uint256","internalType":"uint256"},{"name":"prizePool","type":"uint256","internalType":"uint256"},{"name":"winner","type":"address","internalType":"address"},{"name":"maxPlayers","type":"uint256","internalType":"uint256"},{"name":"moveCount","type":"uint256","internalType":"uint256"},{"name":"isStarted","type":"bool","internalType":"bool"}],"stateMutability":"view"},{"type":"function","name":"getGameForSpectators","inputs":[{"name":"_id","type":"uint256","internalType":"uint256"}],"outputs":[{"name":"status","type":"uint8","internalType":"enum ZeroSumHardcoreMystery.GameStatus"},{"name":"winner","type":"address","internalType":"address"},{"name":"players","type":"address[]","internalType":"address[]"},{"name":"currentNumber","type":"uint256","internalType":"uint256"},{"name":"numberGenerated","type":"bool","internalType":"bool"},{"name":"currentPlayer","type":"address","internalType":"address"},{"name":"mode","type":"uint256","internalType":"uint256"}],"stateMutability":"view"},{"type":"function","name":"getLastMove","inputs":[{"name":"_id","type":"uint256","internalType":"uint256"}],"outputs":[{"name":"lastPlayer","type":"address","internalType":"address"},{"name":"lastSubtraction","type":"uint256","internalType":"uint256"},{"name":"lastResult","type":"uint8","internalType":"enum ZeroSumHardcoreMystery.MoveResult"},{"name":"lastFeedback","type":"string","internalType":"string"}],"stateMutability":"view"},{"type":"function","name":"getMoveHistory","inputs":[{"name":"_id","type":"uint256","internalType":"uint256"}],"outputs":[{"name":"","type":"tuple[]","internalType":"struct ZeroSumHardcoreMystery.MoveHistory[]","components":[{"name":"player","type":"address","internalType":"address"},{"name":"attemptedSubtraction","type":"uint256","internalType":"uint256"},{"name":"result","type":"uint8","internalType":"enum ZeroSumHardcoreMystery.MoveResult"},{"name":"moveNumber","type":"uint256","internalType":"uint256"},{"name":"feedback","type":"string","internalType":"string"}]}],"stateMutability":"view"},{"type":"function","name":"getPlayerView","inputs":[{"name":"_id","type":"uint256","internalType":"uint256"}],"outputs":[{"name":"gameInfo","type":"string","internalType":"string"},{"name":"yourTurn","type":"bool","internalType":"bool"},{"name":"status","type":"string","internalType":"string"},{"name":"timeLeft","type":"uint256","internalType":"uint256"},{"name":"rangeDisplay","type":"string","internalType":"string"},{"name":"yourTimeouts","type":"uint256","internalType":"uint256"},{"name":"timeoutsRemaining","type":"uint256","internalType":"uint256"}],"stateMutability":"view"},{"type":"function","name":"getPlayers","inputs":[{"name":"_id","type":"uint256","internalType":"uint256"}],"outputs":[{"name":"","type":"address[]","internalType":"address[]"}],"stateMutability":"view"},{"type":"function","name":"getStats","inputs":[{"name":"_player","type":"address","internalType":"address"}],"outputs":[{"name":"","type":"uint256","internalType":"uint256"},{"name":"","type":"uint256","internalType":"uint256"},{"name":"","type":"uint256","internalType":"uint256"},{"name":"","type":"uint256","internalType":"uint256"}],"stateMutability":"view"},{"type":"function","name":"getTimeoutStatus","inputs":[{"name":"_id","type":"uint256","internalType":"uint256"},{"name":"_player","type":"address","internalType":"address"}],"outputs":[{"name":"currentTimeouts","type":"uint256","internalType":"uint256"},{"name":"remaining","type":"uint256","internalType":"uint256"}],"stateMutability":"view"},{"type":"function","name":"handleTimeout","inputs":[{"name":"_id","type":"uint256","internalType":"uint256"}],"outputs":[],"stateMutability":"nonpayable"},{"type":"function","name":"isGameBettable","inputs":[{"name":"_id","type":"uint256","internalType":"uint256"}],"outputs":[{"name":"","type":"bool","internalType":"bool"}],"stateMutability":"view"},{"type":"function","name":"isInGame","inputs":[{"name":"","type":"uint256","internalType":"uint256"},{"name":"","type":"address","internalType":"address"}],"outputs":[{"name":"","type":"bool","internalType":"bool"}],"stateMutability":"view"},{"type":"function","name":"isOnFinalWarning","inputs":[{"name":"_id","type":"uint256","internalType":"uint256"},{"name":"_player","type":"address","internalType":"address"}],"outputs":[{"name":"","type":"bool","internalType":"bool"}],"stateMutability":"view"},{"type":"function","name":"isTimedOut","inputs":[{"name":"_id","type":"uint256","internalType":"uint256"}],"outputs":[{"name":"","type":"bool","internalType":"bool"}],"stateMutability":"view"},{"type":"function","name":"joinGame","inputs":[{"name":"_id","type":"uint256","internalType":"uint256"}],"outputs":[],"stateMutability":"payable"},{"type":"function","name":"makeMove","inputs":[{"name":"_id","type":"uint256","internalType":"uint256"},{"name":"_sub","type":"uint256","internalType":"uint256"}],"outputs":[],"stateMutability":"nonpayable"},{"type":"function","name":"maxStrikes","inputs":[],"outputs":[{"name":"","type":"uint256","internalType":"uint256"}],"stateMutability":"view"},{"type":"function","name":"moveHistory","inputs":[{"name":"","type":"uint256","internalType":"uint256"},{"name":"","type":"uint256","internalType":"uint256"}],"outputs":[{"name":"player","type":"address","internalType":"address"},{"name":"attemptedSubtraction","type":"uint256","internalType":"uint256"},{"name":"result","type":"uint8","internalType":"enum ZeroSumHardcoreMystery.MoveResult"},{"name":"moveNumber","type":"uint256","internalType":"uint256"},{"name":"feedback","type":"string","internalType":"string"}],"stateMutability":"view"},{"type":"function","name":"owner","inputs":[],"outputs":[{"name":"","type":"address","internalType":"address"}],"stateMutability":"view"},{"type":"function","name":"paused","inputs":[],"outputs":[{"name":"","type":"bool","internalType":"bool"}],"stateMutability":"view"},{"type":"function","name":"platformFee","inputs":[],"outputs":[{"name":"","type":"uint256","internalType":"uint256"}],"stateMutability":"view"},{"type":"function","name":"played","inputs":[{"name":"","type":"address","internalType":"address"}],"outputs":[{"name":"","type":"uint256","internalType":"uint256"}],"stateMutability":"view"},{"type":"function","name":"renounceOwnership","inputs":[],"outputs":[],"stateMutability":"nonpayable"},{"type":"function","name":"setMaxStrikes","inputs":[{"name":"_strikes","type":"uint256","internalType":"uint256"}],"outputs":[],"stateMutability":"nonpayable"},{"type":"function","name":"setPaused","inputs":[{"name":"_paused","type":"bool","internalType":"bool"}],"outputs":[],"stateMutability":"nonpayable"},{"type":"function","name":"setPlatformFee","inputs":[{"name":"_fee","type":"uint256","internalType":"uint256"}],"outputs":[],"stateMutability":"nonpayable"},{"type":"function","name":"setSpectatorContract","inputs":[{"name":"_spectator","type":"address","internalType":"address"}],"outputs":[],"stateMutability":"nonpayable"},{"type":"function","name":"setTimeLimit","inputs":[{"name":"_timeLimit","type":"uint256","internalType":"uint256"}],"outputs":[],"stateMutability":"nonpayable"},{"type":"function","name":"spectatorContract","inputs":[],"outputs":[{"name":"","type":"address","internalType":"address"}],"stateMutability":"view"},{"type":"function","name":"timeLimit","inputs":[],"outputs":[{"name":"","type":"uint256","internalType":"uint256"}],"stateMutability":"view"},{"type":"function","name":"timeouts","inputs":[{"name":"","type":"uint256","internalType":"uint256"},{"name":"","type":"address","internalType":"address"}],"outputs":[{"name":"","type":"uint256","internalType":"uint256"}],"stateMutability":"view"},{"type":"function","name":"transferOwnership","inputs":[{"name":"newOwner","type":"address","internalType":"address"}],"outputs":[],"stateMutability":"nonpayable"},{"type":"function","name":"turnDeadlines","inputs":[{"name":"","type":"uint256","internalType":"uint256"}],"outputs":[{"name":"","type":"uint256","internalType":"uint256"}],"stateMutability":"view"},{"type":"function","name":"verifyFairness","inputs":[{"name":"_id","type":"uint256","internalType":"uint256"}],"outputs":[{"name":"wasGameCompleted","type":"bool","internalType":"bool"},{"name":"actualStartingNumber","type":"uint256","internalType":"uint256"},{"name":"actualRange","type":"uint256","internalType":"uint256"},{"name":"displayedMin","type":"uint256","internalType":"uint256"},{"name":"displayedMax","type":"uint256","internalType":"uint256"},{"name":"proof","type":"string","internalType":"string"}],"stateMutability":"view"},{"type":"function","name":"wins","inputs":[{"name":"","type":"address","internalType":"address"}],"outputs":[{"name":"","type":"uint256","internalType":"uint256"}],"stateMutability":"view"},{"type":"function","name":"withdraw","inputs":[],"outputs":[],"stateMutability":"nonpayable"},{"type":"function","name":"withdrawFees","inputs":[],"outputs":[],"stateMutability":"nonpayable"},{"type":"event","name":"GameCreated","inputs":[{"name":"gameId","type":"uint256","indexed":true,"internalType":"uint256"},{"name":"mode","type":"uint8","indexed":false,"internalType":"enum ZeroSumHardcoreMystery.GameMode"},{"name":"creator","type":"address","indexed":false,"internalType":"address"},{"name":"entryFee","type":"uint256","indexed":false,"internalType":"uint256"}],"anonymous":false},{"type":"event","name":"GameFinished","inputs":[{"name":"gameId","type":"uint256","indexed":true,"internalType":"uint256"},{"name":"winner","type":"address","indexed":false,"internalType":"address"},{"name":"earnings","type":"uint256","indexed":false,"internalType":"uint256"}],"anonymous":false},{"type":"event","name":"HardcoreMysteryGameStarted","inputs":[{"name":"gameId","type":"uint256","indexed":true,"internalType":"uint256"},{"name":"displayMin","type":"uint256","indexed":false,"internalType":"uint256"},{"name":"displayMax","type":"uint256","indexed":false,"internalType":"uint256"}],"anonymous":false},{"type":"event","name":"InstantLoss","inputs":[{"name":"gameId","type":"uint256","indexed":true,"internalType":"uint256"},{"name":"player","type":"address","indexed":true,"internalType":"address"},{"name":"attemptedSubtraction","type":"uint256","indexed":false,"internalType":"uint256"},{"name":"actualRemaining","type":"uint256","indexed":false,"internalType":"uint256"}],"anonymous":false},{"type":"event","name":"MoveMade","inputs":[{"name":"gameId","type":"uint256","indexed":true,"internalType":"uint256"},{"name":"player","type":"address","indexed":false,"internalType":"address"},{"name":"subtraction","type":"uint256","indexed":false,"internalType":"uint256"},{"name":"result","type":"uint8","indexed":false,"internalType":"enum ZeroSumHardcoreMystery.MoveResult"},{"name":"feedback","type":"string","indexed":false,"internalType":"string"}],"anonymous":false},{"type":"event","name":"OwnershipTransferred","inputs":[{"name":"previousOwner","type":"address","indexed":true,"internalType":"address"},{"name":"newOwner","type":"address","indexed":true,"internalType":"address"}],"anonymous":false},{"type":"event","name":"PlayerEliminated","inputs":[{"name":"gameId","type":"uint256","indexed":true,"internalType":"uint256"},{"name":"player","type":"address","indexed":true,"internalType":"address"},{"name":"position","type":"uint256","indexed":false,"internalType":"uint256"}],"anonymous":false},{"type":"event","name":"PlayerJoined","inputs":[{"name":"gameId","type":"uint256","indexed":true,"internalType":"uint256"},{"name":"player","type":"address","indexed":false,"internalType":"address"}],"anonymous":false},{"type":"event","name":"PlayerTimeout","inputs":[{"name":"gameId","type":"uint256","indexed":true,"internalType":"uint256"},{"name":"player","type":"address","indexed":true,"internalType":"address"},{"name":"timeoutCount","type":"uint256","indexed":false,"internalType":"uint256"}],"anonymous":false},{"type":"event","name":"TurnSkipped","inputs":[{"name":"gameId","type":"uint256","indexed":true,"internalType":"uint256"},{"name":"player","type":"address","indexed":true,"internalType":"address"},{"name":"timeoutCount","type":"uint256","indexed":false,"internalType":"uint256"}],"anonymous":false},{"type":"error","name":"OwnableInvalidOwner","inputs":[{"name":"owner","type":"address","internalType":"address"}]},{"type":"error","name":"OwnableUnauthorizedAccount","inputs":[{"name":"account","type":"address","internalType":"address"}]},{"type":"error","name":"ReentrancyGuardReentrantCall","inputs":[]}],"bytecode":{"object":"0x6080604052600560115561012c601355600260145534801561001f575f5ffd5b503360015f819055505f73ffffffffffffffffffffffffffffffffffffffff168173ffffffffffffffffffffffffffffffffffffffff1603610098575f6040517f1e4fbdf700000000000000000000000000000000000000000000000000000000815260040161008f91906101af565b60405180910390fd5b6100a7816100ad60201b60201c565b506101c8565b5f60015f9054906101000a900473ffffffffffffffffffffffffffffffffffffffff1690508160015f6101000a81548173ffffffffffffffffffffffffffffffffffffffff021916908373ffffffffffffffffffffffffffffffffffffffff1602179055508173ffffffffffffffffffffffffffffffffffffffff168173ffffffffffffffffffffffffffffffffffffffff167f8be0079c531659141344cd1fd0a4f28419497f9722a3daafe3b4186f6b6457e060405160405180910390a35050565b5f73ffffffffffffffffffffffffffffffffffffffff82169050919050565b5f61019982610170565b9050919050565b6101a98161018f565b82525050565b5f6020820190506101c25f8301846101a0565b92915050565b61771b806101d55f395ff3fe608060405260043610610292575f3560e01c806388b7225e11610159578063c3cb4e7a116100c0578063dfefef9f11610079578063dfefef9f14610a97578063e2889c8214610ad3578063ed6fe70714610afb578063efaa55a014610b3c578063f2fde38b14610b58578063fd7caf1614610b8057610292565b8063c3cb4e7a14610967578063c53fb1a5146109a3578063c6386e7c146109df578063caa6fea414610a1d578063cc8ac98814610a33578063dea9456d14610a6f57610292565b8063b6f5b3a611610112578063b6f5b3a61461081a578063ba20286814610842578063bcd9e0c314610882578063c08d1fe5146108bf578063c23f85d6146108e9578063c309b3581461092857610292565b806388b7225e146107065780638da5cb5b146107305780639af1d35a1461075a578063a2f77bcc14610784578063a6152bc4146107ca578063b4f36264146107f257610292565b8063476343ee116101fd5780635d981a60116101b65780635d981a60146106085780635f5e3e911461064457806370f6a31914610680578063715018a6146106aa5780638047a97a146106c0578063807caf3f146106fc57610292565b8063476343ee146105045780634802efc21461051a5780634d389e78146105565780634dec09e0146105985780635c975abb146105a25780635d371926146105cc57610292565b806327e235e31161024f57806327e235e3146103ce5780632e0be39a1461040a5780633a9a3073146104345780633ccfd60b146104705780633d2a902614610486578063460e2049146104c857610292565b8063117a5b901461029657806312e8e2c3146102dc57806316c38b3c146103045780631c07ec9d1461032c5780631cc609081461036857806326232a2e146103a4575b5f5ffd5b3480156102a1575f5ffd5b506102bc60048036038101906102b79190615b9c565b610bbf565b6040516102d39b9a99989796959493929190615ce8565b60405180910390f35b3480156102e7575f5ffd5b5061030260048036038101906102fd9190615b9c565b610c78565b005b34801561030f575f5ffd5b5061032a60048036038101906103259190615dbb565b610cce565b005b348015610337575f5ffd5b50610352600480360381019061034d9190615e10565b610cf2565b60405161035f9190615e4e565b60405180910390f35b348015610373575f5ffd5b5061038e60048036038101906103899190615e67565b610d58565b60405161039b9190615e92565b60405180910390f35b3480156103af575f5ffd5b506103b8610d6d565b6040516103c59190615e92565b60405180910390f35b3480156103d9575f5ffd5b506103f460048036038101906103ef9190615e67565b610d73565b6040516104019190615e92565b60405180910390f35b348015610415575f5ffd5b5061041e610d88565b60405161042b9190615e92565b60405180910390f35b34801561043f575f5ffd5b5061045a60048036038101906104559190615e10565b610d8e565b6040516104679190615e4e565b60405180910390f35b34801561047b575f5ffd5b50610484610db8565b005b348015610491575f5ffd5b506104ac60048036038101906104a79190615b9c565b610f39565b6040516104bf9796959493929190615f1b565b60405180910390f35b3480156104d3575f5ffd5b506104ee60048036038101906104e99190615b9c565b611730565b6040516104fb9190616054565b60405180910390f35b34801561050f575f5ffd5b506105186117cc565b005b348015610525575f5ffd5b50610540600480360381019061053b9190615b9c565b6118e6565b60405161054d919061623f565b60405180910390f35b348015610561575f5ffd5b5061057c60048036038101906105779190615b9c565b611a85565b60405161058f979695949392919061625f565b60405180910390f35b6105a0611d44565b005b3480156105ad575f5ffd5b506105b6611de3565b6040516105c39190615e4e565b60405180910390f35b3480156105d7575f5ffd5b506105f260048036038101906105ed91906162d3565b611df5565b6040516105ff9190616311565b60405180910390f35b348015610613575f5ffd5b5061062e60048036038101906106299190615e10565b611e3d565b60405161063b9190615e92565b60405180910390f35b34801561064f575f5ffd5b5061066a60048036038101906106659190615b9c565b611e5d565b6040516106779190615e4e565b60405180910390f35b34801561068b575f5ffd5b50610694612067565b6040516106a19190615e92565b60405180910390f35b3480156106b5575f5ffd5b506106be61206d565b005b3480156106cb575f5ffd5b506106e660048036038101906106e19190615e67565b612080565b6040516106f39190615e92565b60405180910390f35b610704612095565b005b348015610711575f5ffd5b5061071a612133565b6040516107279190616311565b60405180910390f35b34801561073b575f5ffd5b50610744612159565b6040516107519190616311565b60405180910390f35b348015610765575f5ffd5b5061076e612181565b60405161077b9190615e92565b60405180910390f35b34801561078f575f5ffd5b506107aa60048036038101906107a59190615b9c565b612187565b6040516107c19b9a99989796959493929190615ce8565b60405180910390f35b3480156107d5575f5ffd5b506107f060048036038101906107eb9190615b9c565b612381565b005b3480156107fd575f5ffd5b5061081860048036038101906108139190615b9c565b6123e2565b005b348015610825575f5ffd5b50610840600480360381019061083b9190615e67565b61273d565b005b34801561084d575f5ffd5b50610868600480360381019061086391906162d3565b612789565b604051610879959493929190616339565b60405180910390f35b34801561088d575f5ffd5b506108a860048036038101906108a39190615e10565b612886565b6040516108b6929190616391565b60405180910390f35b3480156108ca575f5ffd5b506108d36128ff565b6040516108e09190615e92565b60405180910390f35b3480156108f4575f5ffd5b5061090f600480360381019061090a9190615e67565b612905565b60405161091f94939291906163b8565b60405180910390f35b348015610933575f5ffd5b5061094e60048036038101906109499190615b9c565b612aaf565b60405161095e94939291906163b8565b60405180910390f35b348015610972575f5ffd5b5061098d60048036038101906109889190615b9c565b612b99565b60405161099a9190615e92565b60405180910390f35b3480156109ae575f5ffd5b506109c960048036038101906109c49190615b9c565b612bae565b6040516109d69190616054565b60405180910390f35b3480156109ea575f5ffd5b50610a056004803603810190610a009190615b9c565b612c4a565b604051610a14939291906163fb565b60405180910390f35b348015610a28575f5ffd5b50610a31612d81565b005b348015610a3e575f5ffd5b50610a596004803603810190610a549190615b9c565b612e3b565b604051610a669190615e4e565b60405180910390f35b348015610a7a575f5ffd5b50610a956004803603810190610a9091906162d3565b613020565b005b348015610aa2575f5ffd5b50610abd6004803603810190610ab891906162d3565b613a71565b604051610aca9190616311565b60405180910390f35b348015610ade575f5ffd5b50610af96004803603810190610af49190615b9c565b613ab9565b005b348015610b06575f5ffd5b50610b216004803603810190610b1c9190615b9c565b613b1d565b604051610b3396959493929190616437565b60405180910390f35b610b566004803603810190610b519190615b9c565b613c1f565b005b348015610b63575f5ffd5b50610b7e6004803603810190610b799190615e67565b613c7b565b005b348015610b8b575f5ffd5b50610ba66004803603810190610ba19190615b9c565b613cff565b604051610bb6949392919061649d565b60405180910390f35b6006602052805f5260405f205f91509050805f015490806001015f9054906101000a900460ff1690806002015490806003015f9054906101000a900473ffffffffffffffffffffffffffffffffffffffff16908060030160149054906101000a900460ff1690806004015490806005015490806006015f9054906101000a900473ffffffffffffffffffffffffffffffffffffffff1690806007015490806008015490806009015f9054906101000a900460ff1690508b565b610c80613f3c565b600a811115610cc4576040517f08c379a0000000000000000000000000000000000000000000000000000000008152600401610cbb90616531565b60405180910390fd5b8060118190555050565b610cd6613f3c565b8060155f6101000a81548160ff02191690831515021790555050565b5f6001601454610d02919061657c565b600a5f8581526020019081526020015f205f8473ffffffffffffffffffffffffffffffffffffffff1673ffffffffffffffffffffffffffffffffffffffff1681526020019081526020015f205414905092915050565b600f602052805f5260405f205f915090505481565b60115481565b600d602052805f5260405f205f915090505481565b60105481565b6009602052815f5260405f20602052805f5260405f205f915091509054906101000a900460ff1681565b610dc0613fc3565b5f600d5f3373ffffffffffffffffffffffffffffffffffffffff1673ffffffffffffffffffffffffffffffffffffffff1681526020019081526020015f205490505f8111610e43576040517f08c379a0000000000000000000000000000000000000000000000000000000008152600401610e3a906165f9565b60405180910390fd5b5f600d5f3373ffffffffffffffffffffffffffffffffffffffff1673ffffffffffffffffffffffffffffffffffffffff1681526020019081526020015f20819055505f3373ffffffffffffffffffffffffffffffffffffffff1682604051610eaa90616644565b5f6040518083038185875af1925050503d805f8114610ee4576040519150601f19603f3d011682016040523d82523d5f602084013e610ee9565b606091505b5050905080610f2d576040517f08c379a0000000000000000000000000000000000000000000000000000000008152600401610f24906166a2565b60405180910390fd5b5050610f37614007565b565b60605f60605f60605f5f5f60065f8a81526020019081526020015f20604051806101600160405290815f8201548152602001600182015f9054906101000a900460ff166001811115610f8e57610f8d615bd6565b5b6001811115610fa057610f9f615bd6565b5b815260200160028201548152602001600382015f9054906101000a900473ffffffffffffffffffffffffffffffffffffffff1673ffffffffffffffffffffffffffffffffffffffff1673ffffffffffffffffffffffffffffffffffffffff1681526020016003820160149054906101000a900460ff16600281111561102857611027615bd6565b5b600281111561103a57611039615bd6565b5b81526020016004820154815260200160058201548152602001600682015f9054906101000a900473ffffffffffffffffffffffffffffffffffffffff1673ffffffffffffffffffffffffffffffffffffffff1673ffffffffffffffffffffffffffffffffffffffff1681526020016007820154815260200160088201548152602001600982015f9054906101000a900460ff1615151515815250509050600a5f8a81526020019081526020015f205f3373ffffffffffffffffffffffffffffffffffffffff1673ffffffffffffffffffffffffffffffffffffffff1681526020019081526020015f20549250601454831015611143578260145461113e919061657c565b611145565b5f5b9150806060015173ffffffffffffffffffffffffffffffffffffffff163373ffffffffffffffffffffffffffffffffffffffff161480156111d35750601454600a5f8b81526020019081526020015f205f3373ffffffffffffffffffffffffffffffffffffffff1673ffffffffffffffffffffffffffffffffffffffff1681526020019081526020015f2054105b96505f60028111156111e8576111e7615bd6565b5b816080015160028111156111ff576111fe615bd6565b5b036112b1576040518060400160405280601681526020017f57616974696e6720666f7220706c61796572732e2e2e0000000000000000000081525097506040518060400160405280600781526020017f57616974696e670000000000000000000000000000000000000000000000000081525095506040518060400160405280601a81526020017f48617264636f7265204d797374657279206177616974732e2e2e00000000000081525093506116e5565b600160028111156112c5576112c4615bd6565b5b816080015160028111156112dc576112db615bd6565b5b0361155557604051806060016040528060338152602001617683603391399750600b5f8a81526020019081526020015f20544211156113dd575f600a5f8b81526020019081526020015f205f836060015173ffffffffffffffffffffffffffffffffffffffff1673ffffffffffffffffffffffffffffffffffffffff1681526020019081526020015f205490506001601454611378919061657c565b811061139e576040518060600160405280602b81526020016175da602b913996506113d7565b6040518060400160405280601e81526020017f54696d656f7574202d205475726e2077696c6c20626520736b6970706564000081525096505b506114b1565b5f600a5f8b81526020019081526020015f205f836060015173ffffffffffffffffffffffffffffffffffffffff1673ffffffffffffffffffffffffffffffffffffffff1681526020019081526020015f2054905060018103611476576040518060400160405280602081526020017f41637469766520285741524e494e473a20312074696d656f757420757365642981525096506114af565b6040518060400160405280600681526020017f416374697665000000000000000000000000000000000000000000000000000081525096505b505b80610140015115611517576114d660045f8b81526020019081526020015f2054614010565b6114f060055f8c81526020019081526020015f2054614010565b6040516020016115019291906167d8565b6040516020818303038152906040529350611550565b6040518060400160405280601381526020017f47656e65726174696e672072616e67652e2e2e0000000000000000000000000081525093505b6116e4565b3373ffffffffffffffffffffffffffffffffffffffff168160e0015173ffffffffffffffffffffffffffffffffffffffff16146115c7576040518060400160405280600d81526020017f47616d652066696e6973686564000000000000000000000000000000000000008152506115fe565b6040518060400160405280600881526020017f566963746f7279210000000000000000000000000000000000000000000000008152505b97503373ffffffffffffffffffffffffffffffffffffffff168160e0015173ffffffffffffffffffffffffffffffffffffffff1614611672576040518060400160405280600481526020017f4c6f7374000000000000000000000000000000000000000000000000000000008152506116a9565b6040518060400160405280600381526020017f576f6e00000000000000000000000000000000000000000000000000000000008152505b95506040518060400160405280600981526020017f47616d65206f766572000000000000000000000000000000000000000000000081525093505b5b600b5f8a81526020019081526020015f20544210156117205742600b5f8b81526020019081526020015f205461171b919061657c565b611722565b5f5b945050919395979092949650565b606060075f8381526020019081526020015f208054806020026020016040519081016040528092919081815260200182805480156117c057602002820191905f5260205f20905b815f9054906101000a900473ffffffffffffffffffffffffffffffffffffffff1673ffffffffffffffffffffffffffffffffffffffff1681526020019060010190808311611777575b50505050509050919050565b6117d4613f3c565b6117dc613fc3565b5f60125490505f8111611824576040517f08c379a000000000000000000000000000000000000000000000000000000000815260040161181b90616866565b60405180910390fd5b5f6012819055505f611834612159565b73ffffffffffffffffffffffffffffffffffffffff168260405161185790616644565b5f6040518083038185875af1925050503d805f8114611891576040519150601f19603f3d011682016040523d82523d5f602084013e611896565b606091505b50509050806118da576040517f08c379a00000000000000000000000000000000000000000000000000000000081526004016118d1906166a2565b60405180910390fd5b50506118e4614007565b565b6060600c5f8381526020019081526020015f20805480602002602001604051908101604052809291908181526020015f905b82821015611a7a578382905f5260205f2090600502016040518060a00160405290815f82015f9054906101000a900473ffffffffffffffffffffffffffffffffffffffff1673ffffffffffffffffffffffffffffffffffffffff1673ffffffffffffffffffffffffffffffffffffffff16815260200160018201548152602001600282015f9054906101000a900460ff1660028111156119bb576119ba615bd6565b5b60028111156119cd576119cc615bd6565b5b8152602001600382015481526020016004820180546119eb906168b1565b80601f0160208091040260200160405190810160405280929190818152602001828054611a17906168b1565b8015611a625780601f10611a3957610100808354040283529160200191611a62565b820191905f5260205f20905b815481529060010190602001808311611a4557829003601f168201915b50505050508152505081526020019060010190611918565b505050509050919050565b5f5f60605f5f5f5f5f60065f8a81526020019081526020015f20604051806101600160405290815f8201548152602001600182015f9054906101000a900460ff166001811115611ad857611ad7615bd6565b5b6001811115611aea57611ae9615bd6565b5b815260200160028201548152602001600382015f9054906101000a900473ffffffffffffffffffffffffffffffffffffffff1673ffffffffffffffffffffffffffffffffffffffff1673ffffffffffffffffffffffffffffffffffffffff1681526020016003820160149054906101000a900460ff166002811115611b7257611b71615bd6565b5b6002811115611b8457611b83615bd6565b5b81526020016004820154815260200160058201548152602001600682015f9054906101000a900473ffffffffffffffffffffffffffffffffffffffff1673ffffffffffffffffffffffffffffffffffffffff1673ffffffffffffffffffffffffffffffffffffffff1681526020016007820154815260200160088201548152602001600982015f9054906101000a900460ff161515151581525050905080608001518160e00151600180811115611c3e57611c3d615bd6565b5b83602001516001811115611c5557611c54615bd6565b5b14611c705760075f8c81526020019081526020015f20611c82565b60085f8c81526020019081526020015f205b5f846101400151856060015186602001516001811115611ca557611ca4615bd6565b5b84805480602002602001604051908101604052809291908181526020018280548015611d2357602002820191905f5260205f20905b815f9054906101000a900473ffffffffffffffffffffffffffffffffffffffff1673ffffffffffffffffffffffffffffffffffffffff1681526020019060010190808311611cda575b50505050509450975097509750975097509750975050919395979092949650565b60155f9054906101000a900460ff1615611d93576040517f08c379a0000000000000000000000000000000000000000000000000000000008152600401611d8a9061692b565b60405180910390fd5b5f3411611dd5576040517f08c379a0000000000000000000000000000000000000000000000000000000008152600401611dcc90616993565b60405180910390fd5b611de160016008614169565b565b60155f9054906101000a900460ff1681565b6008602052815f5260405f208181548110611e0e575f80fd5b905f5260205f20015f915091509054906101000a900473ffffffffffffffffffffffffffffffffffffffff1681565b600a602052815f5260405f20602052805f5260405f205f91509150505481565b5f5f60065f8481526020019081526020015f20604051806101600160405290815f8201548152602001600182015f9054906101000a900460ff166001811115611ea957611ea8615bd6565b5b6001811115611ebb57611eba615bd6565b5b815260200160028201548152602001600382015f9054906101000a900473ffffffffffffffffffffffffffffffffffffffff1673ffffffffffffffffffffffffffffffffffffffff1673ffffffffffffffffffffffffffffffffffffffff1681526020016003820160149054906101000a900460ff166002811115611f4357611f42615bd6565b5b6002811115611f5557611f54615bd6565b5b81526020016004820154815260200160058201548152602001600682015f9054906101000a900473ffffffffffffffffffffffffffffffffffffffff1673ffffffffffffffffffffffffffffffffffffffff1673ffffffffffffffffffffffffffffffffffffffff1681526020016007820154815260200160088201548152602001600982015f9054906101000a900460ff16151515158152505090505f815f01511415801561205f57505f600281111561201357612012615bd6565b5b8160800151600281111561202a57612029615bd6565b5b148061205e57506001600281111561204557612044615bd6565b5b8160800151600281111561205c5761205b615bd6565b5b145b5b915050919050565b60145481565b612075613f3c565b61207e5f61441b565b565b600e602052805f5260405f205f915090505481565b60155f9054906101000a900460ff16156120e4576040517f08c379a00000000000000000000000000000000000000000000000000000000081526004016120db9061692b565b60405180910390fd5b5f3411612126576040517f08c379a000000000000000000000000000000000000000000000000000000000815260040161211d90616993565b60405180910390fd5b6121315f6002614169565b565b601560019054906101000a900473ffffffffffffffffffffffffffffffffffffffff1681565b5f60015f9054906101000a900473ffffffffffffffffffffffffffffffffffffffff16905090565b60125481565b5f5f5f5f5f5f5f5f5f5f5f5f60065f8e81526020019081526020015f20604051806101600160405290815f8201548152602001600182015f9054906101000a900460ff1660018111156121dd576121dc615bd6565b5b60018111156121ef576121ee615bd6565b5b815260200160028201548152602001600382015f9054906101000a900473ffffffffffffffffffffffffffffffffffffffff1673ffffffffffffffffffffffffffffffffffffffff1673ffffffffffffffffffffffffffffffffffffffff1681526020016003820160149054906101000a900460ff16600281111561227757612276615bd6565b5b600281111561228957612288615bd6565b5b81526020016004820154815260200160058201548152602001600682015f9054906101000a900473ffffffffffffffffffffffffffffffffffffffff1673ffffffffffffffffffffffffffffffffffffffff1673ffffffffffffffffffffffffffffffffffffffff1681526020016007820154815260200160088201548152602001600982015f9054906101000a900460ff1615151515815250509050805f015181602001515f836060015184608001518560a001518660c001518760e001518861010001518961012001518a61014001519b509b509b509b509b509b509b509b509b509b509b505091939597999b90929496989a50565b612389613f3c565b5f81118015612399575060058111155b6123d8576040517f08c379a00000000000000000000000000000000000000000000000000000000081526004016123cf906169fb565b60405180910390fd5b8060148190555050565b5f60065f8381526020019081526020015f2090506001600281111561240a57612409615bd6565b5b8160030160149054906101000a900460ff16600281111561242e5761242d615bd6565b5b1461246e576040517f08c379a000000000000000000000000000000000000000000000000000000000815260040161246590616a63565b60405180910390fd5b600b5f8381526020019081526020015f205442116124c1576040517f08c379a00000000000000000000000000000000000000000000000000000000081526004016124b890616acb565b60405180910390fd5b5f816003015f9054906101000a900473ffffffffffffffffffffffffffffffffffffffff169050600a5f8481526020019081526020015f205f8273ffffffffffffffffffffffffffffffffffffffff1673ffffffffffffffffffffffffffffffffffffffff1681526020019081526020015f205f81548092919061254490616ae9565b91905055508073ffffffffffffffffffffffffffffffffffffffff16837f2a791377fc5eeec8a3c10b3ad4baf3687eb8dd74bdd79dbd63d29070d4c687c7600a5f8781526020019081526020015f205f8573ffffffffffffffffffffffffffffffffffffffff1673ffffffffffffffffffffffffffffffffffffffff1681526020019081526020015f20546040516125dc9190615e92565b60405180910390a3601454600a5f8581526020019081526020015f205f8373ffffffffffffffffffffffffffffffffffffffff1673ffffffffffffffffffffffffffffffffffffffff1681526020019081526020015f2054106126935760018081111561264c5761264b615bd6565b5b826001015f9054906101000a900460ff16600181111561266f5761266e615bd6565b5b036126835761267e83826144de565b61268e565b61268d838261480b565b5b612738565b61269c8361493e565b8073ffffffffffffffffffffffffffffffffffffffff16837f483c4ee11e1d637eff6c2e536ba48554bb3f35d6895431e9bc8e02111e4c6f70600a5f8781526020019081526020015f205f8573ffffffffffffffffffffffffffffffffffffffff1673ffffffffffffffffffffffffffffffffffffffff1681526020019081526020015f205460405161272f9190615e92565b60405180910390a35b505050565b612745613f3c565b80601560016101000a81548173ffffffffffffffffffffffffffffffffffffffff021916908373ffffffffffffffffffffffffffffffffffffffff16021790555050565b600c602052815f5260405f2081815481106127a2575f80fd5b905f5260205f2090600502015f9150915050805f015f9054906101000a900473ffffffffffffffffffffffffffffffffffffffff1690806001015490806002015f9054906101000a900460ff1690806003015490806004018054612805906168b1565b80601f0160208091040260200160405190810160405280929190818152602001828054612831906168b1565b801561287c5780601f106128535761010080835404028352916020019161287c565b820191905f5260205f20905b81548152906001019060200180831161285f57829003601f168201915b5050505050905085565b5f5f600a5f8581526020019081526020015f205f8473ffffffffffffffffffffffffffffffffffffffff1673ffffffffffffffffffffffffffffffffffffffff1681526020019081526020015f205491506014548210156128f457816014546128ef919061657c565b6128f6565b5f5b90509250929050565b60135481565b5f5f5f5f600d5f8673ffffffffffffffffffffffffffffffffffffffff1673ffffffffffffffffffffffffffffffffffffffff1681526020019081526020015f2054600e5f8773ffffffffffffffffffffffffffffffffffffffff1673ffffffffffffffffffffffffffffffffffffffff1681526020019081526020015f2054600f5f8873ffffffffffffffffffffffffffffffffffffffff1673ffffffffffffffffffffffffffffffffffffffff1681526020019081526020015f20545f600f5f8a73ffffffffffffffffffffffffffffffffffffffff1673ffffffffffffffffffffffffffffffffffffffff1681526020019081526020015f205411612a0d575f612aa0565b600f5f8973ffffffffffffffffffffffffffffffffffffffff1673ffffffffffffffffffffffffffffffffffffffff1681526020019081526020015f20546064600e5f8b73ffffffffffffffffffffffffffffffffffffffff1673ffffffffffffffffffffffffffffffffffffffff1681526020019081526020015f2054612a959190616b30565b612a9f9190616b9e565b5b93509350935093509193509193565b5f5f5f5f612abb613f3c565b600280811115612ace57612acd615bd6565b5b60065f8781526020019081526020015f2060030160149054906101000a900460ff166002811115612b0257612b01615bd6565b5b14612b42576040517f08c379a0000000000000000000000000000000000000000000000000000000008152600401612b3990616c18565b60405180910390fd5b60025f8681526020019081526020015f205460035f8781526020019081526020015f205460045f8881526020019081526020015f205460055f8981526020019081526020015f205493509350935093509193509193565b600b602052805f5260405f205f915090505481565b606060085f8381526020019081526020015f20805480602002602001604051908101604052809291908181526020018280548015612c3e57602002820191905f5260205f20905b815f9054906101000a900473ffffffffffffffffffffffffffffffffffffffff1673ffffffffffffffffffffffffffffffffffffffff1681526020019060010190808311612bf5575b50505050509050919050565b5f5f606060065f8581526020019081526020015f206009015f9054906101000a900460ff16612cae576040517f08c379a0000000000000000000000000000000000000000000000000000000008152600401612ca590616c80565b60405180910390fd5b60045f8581526020019081526020015f2054925060055f8581526020019081526020015f205491505f6001811115612ce957612ce8615bd6565b5b60065f8681526020019081526020015f206001015f9054906101000a900460ff166001811115612d1c57612d1b615bd6565b5b03612d41576040518060600160405280603081526020016176b6603091399050612d7a565b6040518060400160405280601e81526020017f426174746c6520726f79616c65202d20737572766976616c206d6f646521000081525090505b9193909250565b612d89613f3c565b5f612d92612159565b73ffffffffffffffffffffffffffffffffffffffff1647604051612db590616644565b5f6040518083038185875af1925050503d805f8114612def576040519150601f19603f3d011682016040523d82523d5f602084013e612df4565b606091505b5050905080612e38576040517f08c379a0000000000000000000000000000000000000000000000000000000008152600401612e2f906166a2565b60405180910390fd5b50565b5f5f60065f8481526020019081526020015f20604051806101600160405290815f8201548152602001600182015f9054906101000a900460ff166001811115612e8757612e86615bd6565b5b6001811115612e9957612e98615bd6565b5b815260200160028201548152602001600382015f9054906101000a900473ffffffffffffffffffffffffffffffffffffffff1673ffffffffffffffffffffffffffffffffffffffff1673ffffffffffffffffffffffffffffffffffffffff1681526020016003820160149054906101000a900460ff166002811115612f2157612f20615bd6565b5b6002811115612f3357612f32615bd6565b5b81526020016004820154815260200160058201548152602001600682015f9054906101000a900473ffffffffffffffffffffffffffffffffffffffff1673ffffffffffffffffffffffffffffffffffffffff1673ffffffffffffffffffffffffffffffffffffffff1681526020016007820154815260200160088201548152602001600982015f9054906101000a900460ff161515151581525050905060016002811115612fe457612fe3615bd6565b5b81608001516002811115612ffb57612ffa615bd6565b5b1480156130185750600b5f8481526020019081526020015f205442115b915050919050565b60155f9054906101000a900460ff161561306f576040517f08c379a00000000000000000000000000000000000000000000000000000000081526004016130669061692b565b60405180910390fd5b5f60065f8481526020019081526020015f2090506001600281111561309757613096615bd6565b5b8160030160149054906101000a900460ff1660028111156130bb576130ba615bd6565b5b146130fb576040517f08c379a00000000000000000000000000000000000000000000000000000000081526004016130f290616a63565b60405180910390fd5b806009015f9054906101000a900460ff1661314b576040517f08c379a000000000000000000000000000000000000000000000000000000000815260040161314290616ce8565b60405180910390fd5b600b5f8481526020019081526020015f2054421115613413575f816003015f9054906101000a900473ffffffffffffffffffffffffffffffffffffffff1690508073ffffffffffffffffffffffffffffffffffffffff163373ffffffffffffffffffffffffffffffffffffffff161461341157600a5f8581526020019081526020015f205f8273ffffffffffffffffffffffffffffffffffffffff1673ffffffffffffffffffffffffffffffffffffffff1681526020019081526020015f205f81548092919061321a90616ae9565b91905055508073ffffffffffffffffffffffffffffffffffffffff16847f2a791377fc5eeec8a3c10b3ad4baf3687eb8dd74bdd79dbd63d29070d4c687c7600a5f8881526020019081526020015f205f8573ffffffffffffffffffffffffffffffffffffffff1673ffffffffffffffffffffffffffffffffffffffff1681526020019081526020015f20546040516132b29190615e92565b60405180910390a3601454600a5f8681526020019081526020015f205f8373ffffffffffffffffffffffffffffffffffffffff1673ffffffffffffffffffffffffffffffffffffffff1681526020019081526020015f20541061336c5760018081111561332257613321615bd6565b5b826001015f9054906101000a900460ff16600181111561334557613344615bd6565b5b0361335b5761335484826144de565b5050613a6d565b613365848261480b565b5050613a6d565b6133758461493e565b8073ffffffffffffffffffffffffffffffffffffffff16847f483c4ee11e1d637eff6c2e536ba48554bb3f35d6895431e9bc8e02111e4c6f70600a5f8881526020019081526020015f205f8573ffffffffffffffffffffffffffffffffffffffff1673ffffffffffffffffffffffffffffffffffffffff1681526020019081526020015f20546040516134089190615e92565b60405180910390a35b505b806003015f9054906101000a900473ffffffffffffffffffffffffffffffffffffffff1673ffffffffffffffffffffffffffffffffffffffff163373ffffffffffffffffffffffffffffffffffffffff16146134a4576040517f08c379a000000000000000000000000000000000000000000000000000000000815260040161349b90616d50565b60405180910390fd5b601454600a5f8581526020019081526020015f205f3373ffffffffffffffffffffffffffffffffffffffff1673ffffffffffffffffffffffffffffffffffffffff1681526020019081526020015f205410613534576040517f08c379a000000000000000000000000000000000000000000000000000000000815260040161352b90616db8565b60405180910390fd5b600b5f8481526020019081526020015f2054421115613588576040517f08c379a000000000000000000000000000000000000000000000000000000000815260040161357f90616e20565b60405180910390fd5b5f82116135ca576040517f08c379a00000000000000000000000000000000000000000000000000000000081526004016135c190616e88565b60405180910390fd5b806008015f8154809291906135de90616ae9565b91905055505f60035f8581526020019081526020015f205490505f60608285111561384357600291506040518060600160405280603f8152602001617644603f9139905060018081111561363557613634615bd6565b5b846001015f9054906101000a900460ff16600181111561365857613657615bd6565b5b036136bd573373ffffffffffffffffffffffffffffffffffffffff16867f9f0a3e7973408de7509a11ff49999b4619206c8f695ace1982d6a8e314fa204a87866040516136a6929190616391565b60405180910390a36136b886336144de565b61383e565b5f60075f8881526020019081526020015f2080548060200260200160405190810160405280929190818152602001828054801561374c57602002820191905f5260205f20905b815f9054906101000a900473ffffffffffffffffffffffffffffffffffffffff1673ffffffffffffffffffffffffffffffffffffffff1681526020019060010190808311613703575b505050505090505f3373ffffffffffffffffffffffffffffffffffffffff16825f8151811061377e5761377d616ea6565b5b602002602001015173ffffffffffffffffffffffffffffffffffffffff16146137c157815f815181106137b4576137b3616ea6565b5b60200260200101516137de565b816001815181106137d5576137d4616ea6565b5b60200260200101515b90503373ffffffffffffffffffffffffffffffffffffffff16887f9f0a3e7973408de7509a11ff49999b4619206c8f695ace1982d6a8e314fa204a8988604051613829929190616391565b60405180910390a361383b8882614ca7565b50505b613901565b5f8584613850919061657c565b90508060035f8981526020019081526020015f20819055505f81036138ba57600192506040518060400160405280601a81526020017f596f752072656163686564207a65726f2120566963746f72792100000000000081525091506138b58733614ca7565b6138ff565b5f92506040518060400160405280601481526020017f596f7572207475726e20636f6d706c657465642e00000000000000000000000081525091506138fe8761493e565b5b505b600c5f8781526020019081526020015f206040518060a001604052803373ffffffffffffffffffffffffffffffffffffffff16815260200187815260200184600281111561395257613951615bd6565b5b81526020018660080154815260200183815250908060018154018082558091505060019003905f5260205f2090600502015f909190919091505f820151815f015f6101000a81548173ffffffffffffffffffffffffffffffffffffffff021916908373ffffffffffffffffffffffffffffffffffffffff160217905550602082015181600101556040820151816002015f6101000a81548160ff02191690836002811115613a0357613a02615bd6565b5b0217905550606082015181600301556080820151816004019081613a2791906170a0565b505050857f3e93c728a46ab6b30ed4fba261f16881f600d521f175d04e80a1d5ace9d0ee8833878585604051613a60949392919061649d565b60405180910390a2505050505b5050565b6007602052815f5260405f208181548110613a8a575f80fd5b905f5260205f20015f915091509054906101000a900473ffffffffffffffffffffffffffffffffffffffff1681565b613ac1613f3c565b603c8110158015613ad45750610e108111155b613b13576040517f08c379a0000000000000000000000000000000000000000000000000000000008152600401613b0a906169fb565b60405180910390fd5b8060138190555050565b5f5f5f5f5f6060600280811115613b3757613b36615bd6565b5b60065f8981526020019081526020015f2060030160149054906101000a900460ff166002811115613b6b57613b6a615bd6565b5b14613bab576040517f08c379a0000000000000000000000000000000000000000000000000000000008152600401613ba2906171b9565b60405180910390fd5b600160025f8981526020019081526020015f20546028606d613bcd919061657c565b60045f8b81526020019081526020015f205460055f8c81526020019081526020015f20546040518060600160405280603f8152602001617605603f913995509550955095509550955091939550919395565b60155f9054906101000a900460ff1615613c6e576040517f08c379a0000000000000000000000000000000000000000000000000000000008152600401613c659061692b565b60405180910390fd5b613c788133614f36565b50565b613c83613f3c565b5f73ffffffffffffffffffffffffffffffffffffffff168173ffffffffffffffffffffffffffffffffffffffff1603613cf3575f6040517f1e4fbdf7000000000000000000000000000000000000000000000000000000008152600401613cea9190616311565b60405180910390fd5b613cfc8161441b565b50565b5f5f5f60605f600c5f8781526020019081526020015f20805480602002602001604051908101604052809291908181526020015f905b82821015613e97578382905f5260205f2090600502016040518060a00160405290815f82015f9054906101000a900473ffffffffffffffffffffffffffffffffffffffff1673ffffffffffffffffffffffffffffffffffffffff1673ffffffffffffffffffffffffffffffffffffffff16815260200160018201548152602001600282015f9054906101000a900460ff166002811115613dd857613dd7615bd6565b5b6002811115613dea57613de9615bd6565b5b815260200160038201548152602001600482018054613e08906168b1565b80601f0160208091040260200160405190810160405280929190818152602001828054613e34906168b1565b8015613e7f5780601f10613e5657610100808354040283529160200191613e7f565b820191905f5260205f20905b815481529060010190602001808311613e6257829003601f168201915b50505050508152505081526020019060010190613d35565b5050505090505f815103613eec575f5f5f6040518060400160405280600c81526020017f4e6f206d6f766573207965740000000000000000000000000000000000000000815250945094509450945050613f35565b5f8160018351613efc919061657c565b81518110613f0d57613f0c616ea6565b5b60200260200101519050805f0151816020015182604001518360800151955095509550955050505b9193509193565b613f446152ff565b73ffffffffffffffffffffffffffffffffffffffff16613f62612159565b73ffffffffffffffffffffffffffffffffffffffff1614613fc157613f856152ff565b6040517f118cdaa7000000000000000000000000000000000000000000000000000000008152600401613fb89190616311565b60405180910390fd5b565b60025f5403613ffe576040517f3ee5aeb500000000000000000000000000000000000000000000000000000000815260040160405180910390fd5b60025f81905550565b60015f81905550565b60605f8203614056576040518060400160405280600181526020017f30000000000000000000000000000000000000000000000000000000000000008152509050614164565b5f8290505f5b5f821461408557808061406e90616ae9565b915050600a8261407e9190616b9e565b915061405c565b5f8167ffffffffffffffff8111156140a05761409f616ed3565b5b6040519080825280601f01601f1916602001820160405280156140d25781602001600182028036833780820191505090505b5090505b5f851461415d576001826140ea919061657c565b9150600a856140f991906171d7565b60306141059190617207565b60f81b81838151811061411b5761411a616ea6565b5b60200101907effffffffffffffffffffffffffffffffffffffffffffffffffffffffffffff191690815f1a905350600a856141569190616b9e565b94506140d6565b8093505050505b919050565b60105f81548092919061417b90616ae9565b91905055505f60105490506040518061016001604052808281526020018460018111156141ab576141aa615bd6565b5b81526020015f81526020015f73ffffffffffffffffffffffffffffffffffffffff1681526020015f60028111156141e5576141e4615bd6565b5b81526020013481526020013481526020015f73ffffffffffffffffffffffffffffffffffffffff1681526020018381526020015f81526020015f151581525060065f8381526020019081526020015f205f820151815f01556020820151816001015f6101000a81548160ff0219169083600181111561426757614266615bd6565b5b0217905550604082015181600201556060820151816003015f6101000a81548173ffffffffffffffffffffffffffffffffffffffff021916908373ffffffffffffffffffffffffffffffffffffffff16021790555060808201518160030160146101000a81548160ff021916908360028111156142e7576142e6615bd6565b5b021790555060a0820151816004015560c0820151816005015560e0820151816006015f6101000a81548173ffffffffffffffffffffffffffffffffffffffff021916908373ffffffffffffffffffffffffffffffffffffffff16021790555061010082015181600701556101208201518160080155610140820151816009015f6101000a81548160ff0219169083151502179055509050505f600a5f8381526020019081526020015f205f3373ffffffffffffffffffffffffffffffffffffffff1673ffffffffffffffffffffffffffffffffffffffff1681526020019081526020015f20819055506143da8133614f36565b807fe4216bf1ea74a23afc4c3fa522338d44ec4db2964ceb2b532d1db68869bf07f284333460405161440e9392919061723a565b60405180910390a2505050565b5f60015f9054906101000a900473ffffffffffffffffffffffffffffffffffffffff1690508160015f6101000a81548173ffffffffffffffffffffffffffffffffffffffff021916908373ffffffffffffffffffffffffffffffffffffffff1602179055508173ffffffffffffffffffffffffffffffffffffffff168173ffffffffffffffffffffffffffffffffffffffff167f8be0079c531659141344cd1fd0a4f28419497f9722a3daafe3b4186f6b6457e060405160405180910390a35050565b5f60085f8481526020019081526020015f2090505f5f90505b8180549050811015614668578273ffffffffffffffffffffffffffffffffffffffff1682828154811061452d5761452c616ea6565b5b905f5260205f20015f9054906101000a900473ffffffffffffffffffffffffffffffffffffffff1673ffffffffffffffffffffffffffffffffffffffff160361465b578160018380549050614582919061657c565b8154811061459357614592616ea6565b5b905f5260205f20015f9054906101000a900473ffffffffffffffffffffffffffffffffffffffff168282815481106145ce576145cd616ea6565b5b905f5260205f20015f6101000a81548173ffffffffffffffffffffffffffffffffffffffff021916908373ffffffffffffffffffffffffffffffffffffffff160217905550818054806146245761462361726f565b5b600190038181905f5260205f20015f6101000a81549073ffffffffffffffffffffffffffffffffffffffff02191690559055614668565b80806001019150506144f7565b505f8180549050600961467b919061657c565b90508273ffffffffffffffffffffffffffffffffffffffff16847f51479c93d7646904d2282e9e79cddf11999ac774b7fd0289e2f59cb4ad0f086a836040516146c49190615e92565b60405180910390a35f73ffffffffffffffffffffffffffffffffffffffff16601560019054906101000a900473ffffffffffffffffffffffffffffffffffffffff1673ffffffffffffffffffffffffffffffffffffffff16146147a657601560019054906101000a900473ffffffffffffffffffffffffffffffffffffffff1673ffffffffffffffffffffffffffffffffffffffff1663066d4407856040518263ffffffff1660e01b815260040161477c9190615e92565b5f604051808303815f87803b158015614793575f5ffd5b505af19250505080156147a4575060015b505b60018280549050036147fb576147f684835f815481106147c9576147c8616ea6565b5b905f5260205f20015f9054906101000a900473ffffffffffffffffffffffffffffffffffffffff16614ca7565b614805565b6148048461493e565b5b50505050565b5f60075f8481526020019081526020015f2080548060200260200160405190810160405280929190818152602001828054801561489a57602002820191905f5260205f20905b815f9054906101000a900473ffffffffffffffffffffffffffffffffffffffff1673ffffffffffffffffffffffffffffffffffffffff1681526020019060010190808311614851575b505050505090505f8273ffffffffffffffffffffffffffffffffffffffff16825f815181106148cc576148cb616ea6565b5b602002602001015173ffffffffffffffffffffffffffffffffffffffff161461490f57815f8151811061490257614901616ea6565b5b602002602001015161492c565b8160018151811061492357614922616ea6565b5b60200260200101515b90506149388482614ca7565b50505050565b5f60065f8381526020019081526020015f20905060018081111561496557614964615bd6565b5b816001015f9054906101000a900460ff16600181111561498857614987615bd6565b5b03614afa575f60085f8481526020019081526020015f2090505f5f90505f5f90505b8280549050811015614a5b57836003015f9054906101000a900473ffffffffffffffffffffffffffffffffffffffff1673ffffffffffffffffffffffffffffffffffffffff16838281548110614a0357614a02616ea6565b5b905f5260205f20015f9054906101000a900473ffffffffffffffffffffffffffffffffffffffff1673ffffffffffffffffffffffffffffffffffffffff1603614a4e57809150614a5b565b80806001019150506149aa565b50818280549050600183614a6f9190617207565b614a7991906171d7565b81548110614a8a57614a89616ea6565b5b905f5260205f20015f9054906101000a900473ffffffffffffffffffffffffffffffffffffffff16836003015f6101000a81548173ffffffffffffffffffffffffffffffffffffffff021916908373ffffffffffffffffffffffffffffffffffffffff1602179055505050614c80565b5f60075f8481526020019081526020015f20805480602002602001604051908101604052809291908181526020018280548015614b8957602002820191905f5260205f20905b815f9054906101000a900473ffffffffffffffffffffffffffffffffffffffff1673ffffffffffffffffffffffffffffffffffffffff1681526020019060010190808311614b40575b50505050509050816003015f9054906101000a900473ffffffffffffffffffffffffffffffffffffffff1673ffffffffffffffffffffffffffffffffffffffff16815f81518110614bdd57614bdc616ea6565b5b602002602001015173ffffffffffffffffffffffffffffffffffffffff1614614c2057805f81518110614c1357614c12616ea6565b5b6020026020010151614c3d565b80600181518110614c3457614c33616ea6565b5b60200260200101515b826003015f6101000a81548173ffffffffffffffffffffffffffffffffffffffff021916908373ffffffffffffffffffffffffffffffffffffffff160217905550505b60135442614c8e9190617207565b600b5f8481526020019081526020015f20819055505050565b5f60065f8481526020019081526020015f20905060028160030160146101000a81548160ff02191690836002811115614ce357614ce2615bd6565b5b021790555081816006015f6101000a81548173ffffffffffffffffffffffffffffffffffffffff021916908373ffffffffffffffffffffffffffffffffffffffff1602179055505f60646011548360050154614d3f9190616b30565b614d499190616b9e565b90505f818360050154614d5c919061657c565b905080600d5f8673ffffffffffffffffffffffffffffffffffffffff1673ffffffffffffffffffffffffffffffffffffffff1681526020019081526020015f205f828254614daa9190617207565b92505081905550600e5f8573ffffffffffffffffffffffffffffffffffffffff1673ffffffffffffffffffffffffffffffffffffffff1681526020019081526020015f205f815480929190614dfe90616ae9565b91905055508160125f828254614e149190617207565b925050819055505f73ffffffffffffffffffffffffffffffffffffffff16601560019054906101000a900473ffffffffffffffffffffffffffffffffffffffff1673ffffffffffffffffffffffffffffffffffffffff1614614ef557601560019054906101000a900473ffffffffffffffffffffffffffffffffffffffff1673ffffffffffffffffffffffffffffffffffffffff1663d33a24ec866040518263ffffffff1660e01b8152600401614ecb9190615e92565b5f604051808303815f87803b158015614ee2575f5ffd5b505af1925050508015614ef3575060015b505b847ff5d92df6ae1a0b46d0a0c57c2e1da0d75d7591d2804ad086cb1e27ba67de7aaf8583604051614f2792919061729c565b60405180910390a25050505050565b5f60065f8481526020019081526020015f2090505f815f015414158015614f9157505f6002811115614f6b57614f6a615bd6565b5b8160030160149054906101000a900460ff166002811115614f8f57614f8e615bd6565b5b145b614fd0576040517f08c379a0000000000000000000000000000000000000000000000000000000008152600401614fc79061730d565b60405180910390fd5b60095f8481526020019081526020015f205f8373ffffffffffffffffffffffffffffffffffffffff1673ffffffffffffffffffffffffffffffffffffffff1681526020019081526020015f205f9054906101000a900460ff1615615069576040517f08c379a000000000000000000000000000000000000000000000000000000000815260040161506090617375565b60405180910390fd5b806007015460075f8581526020019081526020015f2080549050106150c3576040517f08c379a00000000000000000000000000000000000000000000000000000000081526004016150ba906173dd565b60405180910390fd5b80600401543414615109576040517f08c379a000000000000000000000000000000000000000000000000000000000815260040161510090617445565b60405180910390fd5b60075f8481526020019081526020015f2082908060018154018082558091505060019003905f5260205f20015f9091909190916101000a81548173ffffffffffffffffffffffffffffffffffffffff021916908373ffffffffffffffffffffffffffffffffffffffff16021790555034816005015f82825461518b9190617207565b92505081905550600160095f8581526020019081526020015f205f8473ffffffffffffffffffffffffffffffffffffffff1673ffffffffffffffffffffffffffffffffffffffff1681526020019081526020015f205f6101000a81548160ff021916908315150217905550600f5f8373ffffffffffffffffffffffffffffffffffffffff1673ffffffffffffffffffffffffffffffffffffffff1681526020019081526020015f205f81548092919061524390616ae9565b91905055505f600a5f8581526020019081526020015f205f8473ffffffffffffffffffffffffffffffffffffffff1673ffffffffffffffffffffffffffffffffffffffff1681526020019081526020015f2081905550827f87969bc7faf902221a147b95ceba76e011c5efb0339a0a8ee7a2bb82d9cfbbd6836040516152c99190616311565b60405180910390a2806007015460075f8581526020019081526020015f2080549050036152fa576152f983615306565b5b505050565b5f33905090565b5f60065f8381526020019081526020015f2090505f61533583836001015f9054906101000a900460ff166156d3565b90508060025f8581526020019081526020015f20819055508060035f8581526020019081526020015f208190555061537e8382846001015f9054906101000a900460ff166159b5565b5f82600201819055506001826009015f6101000a81548160ff02191690831515021790555060018260030160146101000a81548160ff021916908360028111156153cb576153ca615bd6565b5b021790555060075f8481526020019081526020015f205f815481106153f3576153f2616ea6565b5b905f5260205f20015f9054906101000a900473ffffffffffffffffffffffffffffffffffffffff16826003015f6101000a81548173ffffffffffffffffffffffffffffffffffffffff021916908373ffffffffffffffffffffffffffffffffffffffff16021790555060018081111561546f5761546e615bd6565b5b826001015f9054906101000a900460ff16600181111561549257615491615bd6565b5b0361564f575f60075f8581526020019081526020015f2090505f5f90505b81805490508110156155725760085f8681526020019081526020015f208282815481106154e0576154df616ea6565b5b905f5260205f20015f9054906101000a900473ffffffffffffffffffffffffffffffffffffffff16908060018154018082558091505060019003905f5260205f20015f9091909190916101000a81548173ffffffffffffffffffffffffffffffffffffffff021916908373ffffffffffffffffffffffffffffffffffffffff16021790555080806001019150506154b0565b505f73ffffffffffffffffffffffffffffffffffffffff16601560019054906101000a900473ffffffffffffffffffffffffffffffffffffffff1673ffffffffffffffffffffffffffffffffffffffff161461564d57601560019054906101000a900473ffffffffffffffffffffffffffffffffffffffff1673ffffffffffffffffffffffffffffffffffffffff16634ef6c853856040518263ffffffff1660e01b81526004016156239190615e92565b5f604051808303815f87803b15801561563a575f5ffd5b505af192505050801561564b575060015b505b505b6013544261565d9190617207565b600b5f8581526020019081526020015f2081905550827fde872254a38cdba86edfe7c6235b4eb55880fbdb39910002a4a4504ac30c5d3b60045f8681526020019081526020015f205460055f8781526020019081526020015f20546040516156c6929190616391565b60405180910390a2505050565b5f5f60075f8581526020019081526020015f2080548060200260200160405190810160405280929190818152602001828054801561576357602002820191905f5260205f20905b815f9054906101000a900473ffffffffffffffffffffffffffffffffffffffff1673ffffffffffffffffffffffffffffffffffffffff168152602001906001019080831161571a575b505050505090505f424486845f8151811061578157615780616ea6565b5b60200260200101516001865111615798575f6157b5565b856001815181106157ac576157ab616ea6565b5b60200260200101515b60028751116157c4575f6157e1565b866002815181106157d8576157d7616ea6565b5b60200260200101515b60038851116157f0575f61580d565b8760038151811061580457615803616ea6565b5b60200260200101515b600489511161581c575f615839565b886004815181106158305761582f616ea6565b5b60200260200101515b60058a5111615848575f615865565b8960058151811061585c5761585b616ea6565b5b60200260200101515b60068b5111615874575f615891565b8a60068151811061588857615887616ea6565b5b60200260200101515b60078c51116158a0575f6158bd565b8b6007815181106158b4576158b3616ea6565b5b60200260200101515b7f2222333344445555666677778888999900001111aaaabbbbccccddddeeeeffff6040516020016158f99c9b9a999897969594939291906174c8565b604051602081830303815290604052805190602001205f1c90505f600181111561592657615925615bd6565b5b84600181111561593957615938615bd6565b5b036159785760016028606d61594e919061657c565b6159589190617207565b8161596391906171d7565b602861596f9190617207565b925050506159af565b600160c86101f3615989919061657c565b6159939190617207565b8161599e91906171d7565b60c86159aa9190617207565b925050505b92915050565b5f60018111156159c8576159c7615bd6565b5b8160018111156159db576159da615bd6565b5b03615b30575f82847f2222333344445555666677778888999900001111aaaabbbbccccddddeeeeffff604051602001615a169392919061759d565b604051602081830303815290604052805190602001205f1c90505f601482615a3e91906171d7565b6001615a4a9190617207565b90505f601e600884901c615a5e91906171d7565b600a615a6a9190617207565b905081851015615a7b576001615a88565b8185615a87919061657c565b5b60045f8881526020019081526020015f20819055508085615aa99190617207565b60055f8881526020019081526020015f2081905550601e60045f8881526020019081526020015f205460055f8981526020019081526020015f2054615aee919061657c565b1015615b2857601e60045f8881526020019081526020015f2054615b129190617207565b60055f8881526020019081526020015f20819055505b505050615b60565b600160045f8581526020019081526020015f20819055506103e760055f8581526020019081526020015f20819055505b505050565b5f5ffd5b5f819050919050565b615b7b81615b69565b8114615b85575f5ffd5b50565b5f81359050615b9681615b72565b92915050565b5f60208284031215615bb157615bb0615b65565b5b5f615bbe84828501615b88565b91505092915050565b615bd081615b69565b82525050565b7f4e487b71000000000000000000000000000000000000000000000000000000005f52602160045260245ffd5b60028110615c1457615c13615bd6565b5b50565b5f819050615c2482615c03565b919050565b5f615c3382615c17565b9050919050565b615c4381615c29565b82525050565b5f73ffffffffffffffffffffffffffffffffffffffff82169050919050565b5f615c7282615c49565b9050919050565b615c8281615c68565b82525050565b60038110615c9957615c98615bd6565b5b50565b5f819050615ca982615c88565b919050565b5f615cb882615c9c565b9050919050565b615cc881615cae565b82525050565b5f8115159050919050565b615ce281615cce565b82525050565b5f61016082019050615cfc5f83018e615bc7565b615d09602083018d615c3a565b615d16604083018c615bc7565b615d23606083018b615c79565b615d30608083018a615cbf565b615d3d60a0830189615bc7565b615d4a60c0830188615bc7565b615d5760e0830187615c79565b615d65610100830186615bc7565b615d73610120830185615bc7565b615d81610140830184615cd9565b9c9b505050505050505050505050565b615d9a81615cce565b8114615da4575f5ffd5b50565b5f81359050615db581615d91565b92915050565b5f60208284031215615dd057615dcf615b65565b5b5f615ddd84828501615da7565b91505092915050565b615def81615c68565b8114615df9575f5ffd5b50565b5f81359050615e0a81615de6565b92915050565b5f5f60408385031215615e2657615e25615b65565b5b5f615e3385828601615b88565b9250506020615e4485828601615dfc565b9150509250929050565b5f602082019050615e615f830184615cd9565b92915050565b5f60208284031215615e7c57615e7b615b65565b5b5f615e8984828501615dfc565b91505092915050565b5f602082019050615ea55f830184615bc7565b92915050565b5f81519050919050565b5f82825260208201905092915050565b8281835e5f83830152505050565b5f601f19601f8301169050919050565b5f615eed82615eab565b615ef78185615eb5565b9350615f07818560208601615ec5565b615f1081615ed3565b840191505092915050565b5f60e0820190508181035f830152615f33818a615ee3565b9050615f426020830189615cd9565b8181036040830152615f548188615ee3565b9050615f636060830187615bc7565b8181036080830152615f758186615ee3565b9050615f8460a0830185615bc7565b615f9160c0830184615bc7565b98975050505050505050565b5f81519050919050565b5f82825260208201905092915050565b5f819050602082019050919050565b615fcf81615c68565b82525050565b5f615fe08383615fc6565b60208301905092915050565b5f602082019050919050565b5f61600282615f9d565b61600c8185615fa7565b935061601783615fb7565b805f5b8381101561604757815161602e8882615fd5565b975061603983615fec565b92505060018101905061601a565b5085935050505092915050565b5f6020820190508181035f83015261606c8184615ff8565b905092915050565b5f81519050919050565b5f82825260208201905092915050565b5f819050602082019050919050565b6160a681615b69565b82525050565b600381106160bd576160bc615bd6565b5b50565b5f8190506160cd826160ac565b919050565b5f6160dc826160c0565b9050919050565b6160ec816160d2565b82525050565b5f82825260208201905092915050565b5f61610c82615eab565b61611681856160f2565b9350616126818560208601615ec5565b61612f81615ed3565b840191505092915050565b5f60a083015f83015161614f5f860182615fc6565b506020830151616162602086018261609d565b50604083015161617560408601826160e3565b506060830151616188606086018261609d565b50608083015184820360808601526161a08282616102565b9150508091505092915050565b5f6161b8838361613a565b905092915050565b5f602082019050919050565b5f6161d682616074565b6161e0818561607e565b9350836020820285016161f28561608e565b805f5b8581101561622d578484038952815161620e85826161ad565b9450616219836161c0565b925060208a019950506001810190506161f5565b50829750879550505050505092915050565b5f6020820190508181035f83015261625781846161cc565b905092915050565b5f60e0820190506162725f83018a615cbf565b61627f6020830189615c79565b81810360408301526162918188615ff8565b90506162a06060830187615bc7565b6162ad6080830186615cd9565b6162ba60a0830185615c79565b6162c760c0830184615bc7565b98975050505050505050565b5f5f604083850312156162e9576162e8615b65565b5b5f6162f685828601615b88565b925050602061630785828601615b88565b9150509250929050565b5f6020820190506163245f830184615c79565b92915050565b616333816160d2565b82525050565b5f60a08201905061634c5f830188615c79565b6163596020830187615bc7565b616366604083018661632a565b6163736060830185615bc7565b81810360808301526163858184615ee3565b90509695505050505050565b5f6040820190506163a45f830185615bc7565b6163b16020830184615bc7565b9392505050565b5f6080820190506163cb5f830187615bc7565b6163d86020830186615bc7565b6163e56040830185615bc7565b6163f26060830184615bc7565b95945050505050565b5f60608201905061640e5f830186615bc7565b61641b6020830185615bc7565b818103604083015261642d8184615ee3565b9050949350505050565b5f60c08201905061644a5f830189615cd9565b6164576020830188615bc7565b6164646040830187615bc7565b6164716060830186615bc7565b61647e6080830185615bc7565b81810360a08301526164908184615ee3565b9050979650505050505050565b5f6080820190506164b05f830187615c79565b6164bd6020830186615bc7565b6164ca604083018561632a565b81810360608301526164dc8184615ee3565b905095945050505050565b7f546f6f20686967680000000000000000000000000000000000000000000000005f82015250565b5f61651b600883615eb5565b9150616526826164e7565b602082019050919050565b5f6020820190508181035f8301526165488161650f565b9050919050565b7f4e487b71000000000000000000000000000000000000000000000000000000005f52601160045260245ffd5b5f61658682615b69565b915061659183615b69565b92508282039050818111156165a9576165a861654f565b5b92915050565b7f4e6f2062616c616e6365000000000000000000000000000000000000000000005f82015250565b5f6165e3600a83615eb5565b91506165ee826165af565b602082019050919050565b5f6020820190508181035f830152616610816165d7565b9050919050565b5f81905092915050565b50565b5f61662f5f83616617565b915061663a82616621565b5f82019050919050565b5f61664e82616624565b9150819050919050565b7f4661696c656400000000000000000000000000000000000000000000000000005f82015250565b5f61668c600683615eb5565b915061669782616658565b602082019050919050565b5f6020820190508181035f8301526166b981616680565b9050919050565b5f81905092915050565b7f52616e67653a20000000000000000000000000000000000000000000000000005f82015250565b5f6166fe6007836166c0565b9150616709826166ca565b600782019050919050565b5f61671e82615eab565b61672881856166c0565b9350616738818560208601615ec5565b80840191505092915050565b7f202d2000000000000000000000000000000000000000000000000000000000005f82015250565b5f6167786003836166c0565b915061678382616744565b600382019050919050565b7f20284245204341524546554c21290000000000000000000000000000000000005f82015250565b5f6167c2600e836166c0565b91506167cd8261678e565b600e82019050919050565b5f6167e2826166f2565b91506167ee8285616714565b91506167f98261676c565b91506168058284616714565b9150616810826167b6565b91508190509392505050565b7f4e6f2066656573000000000000000000000000000000000000000000000000005f82015250565b5f616850600783615eb5565b915061685b8261681c565b602082019050919050565b5f6020820190508181035f83015261687d81616844565b9050919050565b7f4e487b71000000000000000000000000000000000000000000000000000000005f52602260045260245ffd5b5f60028204905060018216806168c857607f821691505b6020821081036168db576168da616884565b5b50919050565b7f50617573656400000000000000000000000000000000000000000000000000005f82015250565b5f616915600683615eb5565b9150616920826168e1565b602082019050919050565b5f6020820190508181035f83015261694281616909565b9050919050565b7f46656520726571756972656400000000000000000000000000000000000000005f82015250565b5f61697d600c83615eb5565b915061698882616949565b602082019050919050565b5f6020820190508181035f8301526169aa81616971565b9050919050565b7f496e76616c69642072616e6765000000000000000000000000000000000000005f82015250565b5f6169e5600d83615eb5565b91506169f0826169b1565b602082019050919050565b5f6020820190508181035f830152616a12816169d9565b9050919050565b7f4e6f7420616374697665000000000000000000000000000000000000000000005f82015250565b5f616a4d600a83615eb5565b9150616a5882616a19565b602082019050919050565b5f6020820190508181035f830152616a7a81616a41565b9050919050565b7f4e6f2074696d656f7574000000000000000000000000000000000000000000005f82015250565b5f616ab5600a83615eb5565b9150616ac082616a81565b602082019050919050565b5f6020820190508181035f830152616ae281616aa9565b9050919050565b5f616af382615b69565b91507fffffffffffffffffffffffffffffffffffffffffffffffffffffffffffffffff8203616b2557616b2461654f565b5b600182019050919050565b5f616b3a82615b69565b9150616b4583615b69565b9250828202616b5381615b69565b91508282048414831517616b6a57616b6961654f565b5b5092915050565b7f4e487b71000000000000000000000000000000000000000000000000000000005f52601260045260245ffd5b5f616ba882615b69565b9150616bb383615b69565b925082616bc357616bc2616b71565b5b828204905092915050565b7f4f6e6c7920666f722066696e69736865642067616d65730000000000000000005f82015250565b5f616c02601783615eb5565b9150616c0d82616bce565b602082019050919050565b5f6020820190508181035f830152616c2f81616bf6565b9050919050565b7f47616d65206e6f742073746172746564000000000000000000000000000000005f82015250565b5f616c6a601083615eb5565b9150616c7582616c36565b602082019050919050565b5f6020820190508181035f830152616c9781616c5e565b9050919050565b7f4e6f7420737461727465640000000000000000000000000000000000000000005f82015250565b5f616cd2600b83615eb5565b9150616cdd82616c9e565b602082019050919050565b5f6020820190508181035f830152616cff81616cc6565b9050919050565b7f4e6f74207475726e0000000000000000000000000000000000000000000000005f82015250565b5f616d3a600883615eb5565b9150616d4582616d06565b602082019050919050565b5f6020820190508181035f830152616d6781616d2e565b9050919050565b7f456c696d696e61746564000000000000000000000000000000000000000000005f82015250565b5f616da2600a83615eb5565b9150616dad82616d6e565b602082019050919050565b5f6020820190508181035f830152616dcf81616d96565b9050919050565b7f54696d656f7574000000000000000000000000000000000000000000000000005f82015250565b5f616e0a600783615eb5565b9150616e1582616dd6565b602082019050919050565b5f6020820190508181035f830152616e3781616dfe565b9050919050565b7f4d75737420737562747261637420706f736974697665000000000000000000005f82015250565b5f616e72601683615eb5565b9150616e7d82616e3e565b602082019050919050565b5f6020820190508181035f830152616e9f81616e66565b9050919050565b7f4e487b71000000000000000000000000000000000000000000000000000000005f52603260045260245ffd5b7f4e487b71000000000000000000000000000000000000000000000000000000005f52604160045260245ffd5b5f819050815f5260205f209050919050565b5f6020601f8301049050919050565b5f82821b905092915050565b5f60088302616f5c7fffffffffffffffffffffffffffffffffffffffffffffffffffffffffffffffff82616f21565b616f668683616f21565b95508019841693508086168417925050509392505050565b5f819050919050565b5f616fa1616f9c616f9784615b69565b616f7e565b615b69565b9050919050565b5f819050919050565b616fba83616f87565b616fce616fc682616fa8565b848454616f2d565b825550505050565b5f5f905090565b616fe5616fd6565b616ff0818484616fb1565b505050565b5b81811015617013576170085f82616fdd565b600181019050616ff6565b5050565b601f8211156170585761702981616f00565b61703284616f12565b81016020851015617041578190505b61705561704d85616f12565b830182616ff5565b50505b505050565b5f82821c905092915050565b5f6170785f198460080261705d565b1980831691505092915050565b5f6170908383617069565b9150826002028217905092915050565b6170a982615eab565b67ffffffffffffffff8111156170c2576170c1616ed3565b5b6170cc82546168b1565b6170d7828285617017565b5f60209050601f831160018114617108575f84156170f6578287015190505b6171008582617085565b865550617167565b601f19841661711686616f00565b5f5b8281101561713d57848901518255600182019150602085019450602081019050617118565b8683101561715a5784890151617156601f891682617069565b8355505b6001600288020188555050505b505050505050565b7f47616d65206d7573742062652066696e697368656400000000000000000000005f82015250565b5f6171a3601583615eb5565b91506171ae8261716f565b602082019050919050565b5f6020820190508181035f8301526171d081617197565b9050919050565b5f6171e182615b69565b91506171ec83615b69565b9250826171fc576171fb616b71565b5b828206905092915050565b5f61721182615b69565b915061721c83615b69565b92508282019050808211156172345761723361654f565b5b92915050565b5f60608201905061724d5f830186615c3a565b61725a6020830185615c79565b6172676040830184615bc7565b949350505050565b7f4e487b71000000000000000000000000000000000000000000000000000000005f52603160045260245ffd5b5f6040820190506172af5f830185615c79565b6172bc6020830184615bc7565b9392505050565b7f43616e6e6f74206a6f696e0000000000000000000000000000000000000000005f82015250565b5f6172f7600b83615eb5565b9150617302826172c3565b602082019050919050565b5f6020820190508181035f830152617324816172eb565b9050919050565b7f416c726561647920696e000000000000000000000000000000000000000000005f82015250565b5f61735f600a83615eb5565b915061736a8261732b565b602082019050919050565b5f6020820190508181035f83015261738c81617353565b9050919050565b7f46756c6c000000000000000000000000000000000000000000000000000000005f82015250565b5f6173c7600483615eb5565b91506173d282617393565b602082019050919050565b5f6020820190508181035f8301526173f4816173bb565b9050919050565b7f57726f6e672066656500000000000000000000000000000000000000000000005f82015250565b5f61742f600983615eb5565b915061743a826173fb565b602082019050919050565b5f6020820190508181035f83015261745c81617423565b9050919050565b5f819050919050565b61747d61747882615b69565b617463565b82525050565b5f8160601b9050919050565b5f61749982617483565b9050919050565b5f6174aa8261748f565b9050919050565b6174c26174bd82615c68565b6174a0565b82525050565b5f6174d3828f61746c565b6020820191506174e3828e61746c565b6020820191506174f3828d61746c565b602082019150617503828c6174b1565b601482019150617513828b6174b1565b601482019150617523828a6174b1565b60148201915061753382896174b1565b60148201915061754382886174b1565b60148201915061755382876174b1565b60148201915061756382866174b1565b60148201915061757382856174b1565b601482019150617583828461746c565b6020820191508190509d9c50505050505050505050505050565b5f6175a8828661746c565b6020820191506175b8828561746c565b6020820191506175c8828461746c565b60208201915081905094935050505056fe46494e414c205741524e494e47202d204e6578742074696d656f7574203d20454c494d494e4154494f4e2148415244434f52453a204e756d626572207761732068696464656e207769746820696e7374616e74206c6f737320666f72206f76657273686f6f74696e6721596f75206c6f73742120596f7520747269656420746f207375627472616374206d6f7265207468616e207468652072656d61696e696e67206e756d6265722148415244434f5245204d5953544552593a20537562747261637420746f6f206d756368203d20494e5354414e54204c4f53532148415244434f5245204d4f44453a20537562747261637420746f6f206d756368203d20496e7374616e74204c6f737321a264697066735822122030159ad9117e9698649dbb6dc0b6f299c6491b82ed9ae6d8d343f1ae2cab0e1364736f6c634300081c0033","linkReferences":{}},"methodIdentifiers":{"activePlayers(uint256,uint256)":"5d371926","balances(address)":"27e235e3","createHardcoreMysteryGame()":"807caf3f","createLastStandGame()":"4dec09e0","emergency()":"caa6fea4","emergencyRevealNumber(uint256)":"c309b358","fees()":"9af1d35a","gameCounter()":"2e0be39a","gamePlayers(uint256,uint256)":"dfefef9f","games(uint256)":"117a5b90","getActive(uint256)":"c53fb1a5","getDisplayedRange(uint256)":"c6386e7c","getGame(uint256)":"a2f77bcc","getGameForSpectators(uint256)":"4d389e78","getLastMove(uint256)":"fd7caf16","getMoveHistory(uint256)":"4802efc2","getPlayerView(uint256)":"3d2a9026","getPlayers(uint256)":"460e2049","getStats(address)":"c23f85d6","getTimeoutStatus(uint256,address)":"bcd9e0c3","handleTimeout(uint256)":"b4f36264","isGameBettable(uint256)":"5f5e3e91","isInGame(uint256,address)":"3a9a3073","isOnFinalWarning(uint256,address)":"1c07ec9d","isTimedOut(uint256)":"cc8ac988","joinGame(uint256)":"efaa55a0","makeMove(uint256,uint256)":"dea9456d","maxStrikes()":"70f6a319","moveHistory(uint256,uint256)":"ba202868","owner()":"8da5cb5b","paused()":"5c975abb","platformFee()":"26232a2e","played(address)":"1cc60908","renounceOwnership()":"715018a6","setMaxStrikes(uint256)":"a6152bc4","setPaused(bool)":"16c38b3c","setPlatformFee(uint256)":"12e8e2c3","setSpectatorContract(address)":"b6f5b3a6","setTimeLimit(uint256)":"e2889c82","spectatorContract()":"88b7225e","timeLimit()":"c08d1fe5","timeouts(uint256,address)":"5d981a60","transferOwnership(address)":"f2fde38b","turnDeadlines(uint256)":"c3cb4e7a","verifyFairness(uint256)":"ed6fe707","wins(address)":"8047a97a","withdraw()":"3ccfd60b","withdrawFees()":"476343ee"},"id":26}